{
  "_format": "hh-sol-artifact-1",
  "contractName": "MoutaiTrace",
  "sourceName": "contracts/MoutaiTrace.sol",
  "abi": [
    {
      "inputs": [],
      "stateMutability": "nonpayable",
      "type": "constructor"
    },
    {
      "inputs": [],
      "name": "EmptyString",
      "type": "error"
    },
    {
      "inputs": [],
      "name": "InvalidAddress",
      "type": "error"
    },
    {
      "inputs": [],
      "name": "InvalidStage",
      "type": "error"
    },
    {
      "inputs": [],
      "name": "InvalidTransfer",
      "type": "error"
    },
    {
      "inputs": [],
      "name": "NodeNotFound",
      "type": "error"
    },
    {
      "inputs": [],
      "name": "NotAuthorizedNode",
      "type": "error"
    },
    {
      "inputs": [],
      "name": "NotProductOwner",
      "type": "error"
    },
    {
      "inputs": [
        {
          "internalType": "uint256",
          "name": "productId",
          "type": "uint256"
        }
      ],
      "name": "ProductNotFound",
      "type": "error"
    },
    {
      "anonymous": false,
      "inputs": [
        {
          "indexed": true,
          "internalType": "address",
          "name": "node",
          "type": "address"
        },
        {
          "indexed": false,
          "internalType": "string",
          "name": "nodeName",
          "type": "string"
        },
        {
          "indexed": false,
          "internalType": "string",
          "name": "category",
          "type": "string"
        }
      ],
      "name": "NodeAuthorized",
      "type": "event"
    },
    {
      "anonymous": false,
      "inputs": [
        {
          "indexed": true,
          "internalType": "address",
          "name": "node",
          "type": "address"
        }
      ],
      "name": "NodeRemoved",
      "type": "event"
    },
    {
      "anonymous": false,
      "inputs": [
        {
          "indexed": true,
          "internalType": "address",
          "name": "node",
          "type": "address"
        },
        {
          "indexed": false,
          "internalType": "string",
          "name": "nodeName",
          "type": "string"
        }
      ],
      "name": "NodeUpdated",
      "type": "event"
    },
    {
      "anonymous": false,
      "inputs": [
        {
          "indexed": true,
          "internalType": "uint256",
          "name": "productId",
          "type": "uint256"
        },
        {
          "indexed": false,
          "internalType": "string",
          "name": "name",
          "type": "string"
        },
        {
          "indexed": false,
          "internalType": "string",
          "name": "batchNo",
          "type": "string"
        },
        {
          "indexed": true,
          "internalType": "address",
          "name": "manufacturer",
          "type": "address"
        },
        {
          "indexed": false,
          "internalType": "uint256",
          "name": "productionDate",
          "type": "uint256"
        }
      ],
      "name": "ProductRegistered",
      "type": "event"
    },
    {
      "anonymous": false,
      "inputs": [
        {
          "indexed": true,
          "internalType": "uint256",
          "name": "productId",
          "type": "uint256"
        },
        {
          "indexed": true,
          "internalType": "address",
          "name": "from",
          "type": "address"
        },
        {
          "indexed": true,
          "internalType": "address",
          "name": "to",
          "type": "address"
        },
        {
          "indexed": false,
          "internalType": "string",
          "name": "fromLocation",
          "type": "string"
        },
        {
          "indexed": false,
          "internalType": "string",
          "name": "toLocation",
          "type": "string"
        },
        {
          "indexed": false,
          "internalType": "uint256",
          "name": "timestamp",
          "type": "uint256"
        },
        {
          "indexed": false,
          "internalType": "string",
          "name": "remark",
          "type": "string"
        },
        {
          "indexed": false,
          "internalType": "string",
          "name": "verifier",
          "type": "string"
        }
      ],
      "name": "TransferRecorded",
      "type": "event"
    },
    {
      "inputs": [],
      "name": "admin",
      "outputs": [
        {
          "internalType": "address",
          "name": "",
          "type": "address"
        }
      ],
      "stateMutability": "view",
      "type": "function"
    },
    {
      "inputs": [
        {
          "internalType": "uint256",
          "name": "",
          "type": "uint256"
        }
      ],
      "name": "allProductIds",
      "outputs": [
        {
          "internalType": "uint256",
          "name": "",
          "type": "uint256"
        }
      ],
      "stateMutability": "view",
      "type": "function"
    },
    {
      "inputs": [
        {
          "internalType": "address",
          "name": "_node",
          "type": "address"
        },
        {
          "internalType": "string",
          "name": "_nodeName",
          "type": "string"
        }
      ],
      "name": "authorizeNode",
      "outputs": [],
      "stateMutability": "nonpayable",
      "type": "function"
    },
    {
      "inputs": [
        {
          "internalType": "address",
          "name": "_node",
          "type": "address"
        },
        {
          "internalType": "string",
          "name": "_name",
          "type": "string"
        },
        {
          "internalType": "string",
          "name": "_phone",
          "type": "string"
        },
        {
          "internalType": "string",
          "name": "_category",
          "type": "string"
        },
        {
          "internalType": "string",
          "name": "_location",
          "type": "string"
        },
        {
          "internalType": "string",
          "name": "_description",
          "type": "string"
        }
      ],
      "name": "authorizeNodeWithInfo",
      "outputs": [],
      "stateMutability": "nonpayable",
      "type": "function"
    },
    {
      "inputs": [
        {
          "internalType": "address",
          "name": "",
          "type": "address"
        }
      ],
      "name": "authorizedNodes",
      "outputs": [
        {
          "internalType": "bool",
          "name": "",
          "type": "bool"
        }
      ],
      "stateMutability": "view",
      "type": "function"
    },
    {
      "inputs": [],
      "name": "getAllAuthorizedNodes",
      "outputs": [
        {
          "internalType": "address[]",
          "name": "",
          "type": "address[]"
        }
      ],
      "stateMutability": "view",
      "type": "function"
    },
    {
      "inputs": [],
      "name": "getAllProductIds",
      "outputs": [
        {
          "internalType": "uint256[]",
          "name": "",
          "type": "uint256[]"
        }
      ],
      "stateMutability": "view",
      "type": "function"
    },
    {
      "inputs": [
        {
          "internalType": "address",
          "name": "_node",
          "type": "address"
        }
      ],
      "name": "getNodeInfo",
      "outputs": [
        {
          "internalType": "string",
          "name": "name",
          "type": "string"
        },
        {
          "internalType": "string",
          "name": "phone",
          "type": "string"
        },
        {
          "internalType": "string",
          "name": "category",
          "type": "string"
        },
        {
          "internalType": "string",
          "name": "location",
          "type": "string"
        },
        {
          "internalType": "string",
          "name": "description",
          "type": "string"
        },
        {
          "internalType": "bool",
          "name": "isAuthorized",
          "type": "bool"
        }
      ],
      "stateMutability": "view",
      "type": "function"
    },
    {
      "inputs": [
        {
          "internalType": "address",
          "name": "_node",
          "type": "address"
        }
      ],
      "name": "getNodeName",
      "outputs": [
        {
          "internalType": "string",
          "name": "",
          "type": "string"
        }
      ],
      "stateMutability": "view",
      "type": "function"
    },
    {
      "inputs": [
        {
          "internalType": "uint256",
          "name": "_productId",
          "type": "uint256"
        }
      ],
      "name": "getProduct",
      "outputs": [
        {
          "internalType": "uint256",
          "name": "id",
          "type": "uint256"
        },
        {
          "internalType": "string",
          "name": "name",
          "type": "string"
        },
        {
          "internalType": "string",
          "name": "batchNo",
          "type": "string"
        },
        {
          "internalType": "uint256",
          "name": "productionDate",
          "type": "uint256"
        },
        {
          "internalType": "address",
          "name": "manufacturer",
          "type": "address"
        },
        {
          "internalType": "address",
          "name": "currentOwner",
          "type": "address"
        },
        {
          "internalType": "uint8",
          "name": "currentStage",
          "type": "uint8"
        }
      ],
      "stateMutability": "view",
      "type": "function"
    },
    {
      "inputs": [
        {
          "internalType": "address",
          "name": "_owner",
          "type": "address"
        }
      ],
      "name": "getProductCountByOwner",
      "outputs": [
        {
          "internalType": "uint256",
          "name": "",
          "type": "uint256"
        }
      ],
      "stateMutability": "view",
      "type": "function"
    },
    {
      "inputs": [
        {
          "internalType": "uint256",
          "name": "_productId",
          "type": "uint256"
        }
      ],
      "name": "getProductHistory",
      "outputs": [
        {
          "components": [
            {
              "internalType": "uint256",
              "name": "productId",
              "type": "uint256"
            },
            {
              "internalType": "address",
              "name": "from",
              "type": "address"
            },
            {
              "internalType": "address",
              "name": "to",
              "type": "address"
            },
            {
              "internalType": "string",
              "name": "fromLocation",
              "type": "string"
            },
            {
              "internalType": "string",
              "name": "toLocation",
              "type": "string"
            },
            {
              "internalType": "uint256",
              "name": "timestamp",
              "type": "uint256"
            },
            {
              "internalType": "string",
              "name": "remark",
              "type": "string"
            },
            {
              "internalType": "string",
              "name": "verifier",
              "type": "string"
            }
          ],
          "internalType": "struct MoutaiTrace.TransferRecord[]",
          "name": "",
          "type": "tuple[]"
        }
      ],
      "stateMutability": "view",
      "type": "function"
    },
    {
      "inputs": [
        {
          "internalType": "uint256",
          "name": "_productId",
          "type": "uint256"
        }
      ],
      "name": "getProductHistoryCount",
      "outputs": [
        {
          "internalType": "uint256",
          "name": "",
          "type": "uint256"
        }
      ],
      "stateMutability": "view",
      "type": "function"
    },
    {
      "inputs": [
        {
          "internalType": "address",
          "name": "_owner",
          "type": "address"
        }
      ],
      "name": "getProductsByOwner",
      "outputs": [
        {
          "internalType": "uint256[]",
          "name": "",
          "type": "uint256[]"
        }
      ],
      "stateMutability": "view",
      "type": "function"
    },
    {
      "inputs": [
        {
          "internalType": "uint256",
          "name": "_productId",
          "type": "uint256"
        },
        {
          "internalType": "uint256",
          "name": "_index",
          "type": "uint256"
        }
      ],
      "name": "getTransferRecord",
      "outputs": [
        {
          "internalType": "address",
          "name": "from",
          "type": "address"
        },
        {
          "internalType": "address",
          "name": "to",
          "type": "address"
        },
        {
          "internalType": "string",
          "name": "fromLocation",
          "type": "string"
        },
        {
          "internalType": "string",
          "name": "toLocation",
          "type": "string"
        },
        {
          "internalType": "uint256",
          "name": "timestamp",
          "type": "uint256"
        },
        {
          "internalType": "string",
          "name": "remark",
          "type": "string"
        },
        {
          "internalType": "string",
          "name": "verifier",
          "type": "string"
        }
      ],
      "stateMutability": "view",
      "type": "function"
    },
    {
      "inputs": [
        {
          "internalType": "address",
          "name": "_node",
          "type": "address"
        }
      ],
      "name": "isAuthorizedNode",
      "outputs": [
        {
          "internalType": "bool",
          "name": "",
          "type": "bool"
        }
      ],
      "stateMutability": "view",
      "type": "function"
    },
    {
      "inputs": [
        {
          "internalType": "address",
          "name": "",
          "type": "address"
        }
      ],
      "name": "nodeInfo",
      "outputs": [
        {
          "internalType": "string",
          "name": "name",
          "type": "string"
        },
        {
          "internalType": "string",
          "name": "phone",
          "type": "string"
        },
        {
          "internalType": "string",
          "name": "category",
          "type": "string"
        },
        {
          "internalType": "string",
          "name": "location",
          "type": "string"
        },
        {
          "internalType": "string",
          "name": "description",
          "type": "string"
        },
        {
          "internalType": "bool",
          "name": "isAuthorized",
          "type": "bool"
        },
        {
          "internalType": "bool",
          "name": "exists",
          "type": "bool"
        }
      ],
      "stateMutability": "view",
      "type": "function"
    },
    {
      "inputs": [],
      "name": "productCount",
      "outputs": [
        {
          "internalType": "uint256",
          "name": "",
          "type": "uint256"
        }
      ],
      "stateMutability": "view",
      "type": "function"
    },
    {
      "inputs": [
        {
          "internalType": "uint256",
          "name": "",
          "type": "uint256"
        },
        {
          "internalType": "uint256",
          "name": "",
          "type": "uint256"
        }
      ],
      "name": "productHistory",
      "outputs": [
        {
          "internalType": "uint256",
          "name": "productId",
          "type": "uint256"
        },
        {
          "internalType": "address",
          "name": "from",
          "type": "address"
        },
        {
          "internalType": "address",
          "name": "to",
          "type": "address"
        },
        {
          "internalType": "string",
          "name": "fromLocation",
          "type": "string"
        },
        {
          "internalType": "string",
          "name": "toLocation",
          "type": "string"
        },
        {
          "internalType": "uint256",
          "name": "timestamp",
          "type": "uint256"
        },
        {
          "internalType": "string",
          "name": "remark",
          "type": "string"
        },
        {
          "internalType": "string",
          "name": "verifier",
          "type": "string"
        }
      ],
      "stateMutability": "view",
      "type": "function"
    },
    {
      "inputs": [
        {
          "internalType": "uint256",
          "name": "",
          "type": "uint256"
        }
      ],
      "name": "products",
      "outputs": [
        {
          "internalType": "uint256",
          "name": "id",
          "type": "uint256"
        },
        {
          "internalType": "string",
          "name": "name",
          "type": "string"
        },
        {
          "internalType": "string",
          "name": "batchNo",
          "type": "string"
        },
        {
          "internalType": "uint256",
          "name": "productionDate",
          "type": "uint256"
        },
        {
          "internalType": "address",
          "name": "manufacturer",
          "type": "address"
        },
        {
          "internalType": "address",
          "name": "currentOwner",
          "type": "address"
        },
        {
          "internalType": "uint8",
          "name": "currentStage",
          "type": "uint8"
        },
        {
          "internalType": "bool",
          "name": "exists",
          "type": "bool"
        }
      ],
      "stateMutability": "view",
      "type": "function"
    },
    {
      "inputs": [
        {
          "internalType": "uint256",
          "name": "_productId",
          "type": "uint256"
        },
        {
          "internalType": "address",
          "name": "_to",
          "type": "address"
        },
        {
          "internalType": "string",
          "name": "_fromLocation",
          "type": "string"
        },
        {
          "internalType": "string",
          "name": "_toLocation",
          "type": "string"
        },
        {
          "internalType": "string",
          "name": "_remark",
          "type": "string"
        }
      ],
      "name": "recordTransfer",
      "outputs": [],
      "stateMutability": "nonpayable",
      "type": "function"
    },
    {
      "inputs": [
        {
          "internalType": "uint256",
          "name": "_productId",
          "type": "uint256"
        },
        {
          "internalType": "address",
          "name": "_to",
          "type": "address"
        },
        {
          "internalType": "string",
          "name": "_fromLocation",
          "type": "string"
        },
        {
          "internalType": "string",
          "name": "_toLocation",
          "type": "string"
        },
        {
          "internalType": "string",
          "name": "_remark",
          "type": "string"
        },
        {
          "internalType": "string",
          "name": "_verifier",
          "type": "string"
        }
      ],
      "name": "recordTransferWithVerifier",
      "outputs": [],
      "stateMutability": "nonpayable",
      "type": "function"
    },
    {
      "inputs": [
        {
          "internalType": "string",
          "name": "_name",
          "type": "string"
        },
        {
          "internalType": "string",
          "name": "_batchNo",
          "type": "string"
        },
        {
          "internalType": "uint256",
          "name": "_productionDate",
          "type": "uint256"
        }
      ],
      "name": "registerProduct",
      "outputs": [
        {
          "internalType": "uint256",
          "name": "",
          "type": "uint256"
        }
      ],
      "stateMutability": "nonpayable",
      "type": "function"
    },
    {
      "inputs": [
        {
          "internalType": "address",
          "name": "_node",
          "type": "address"
        }
      ],
      "name": "removeNode",
      "outputs": [],
      "stateMutability": "nonpayable",
      "type": "function"
    },
    {
      "inputs": [
        {
          "internalType": "address",
          "name": "_newAdmin",
          "type": "address"
        }
      ],
      "name": "transferAdmin",
      "outputs": [],
      "stateMutability": "nonpayable",
      "type": "function"
    },
    {
      "inputs": [],
      "name": "transferCount",
      "outputs": [
        {
          "internalType": "uint256",
          "name": "",
          "type": "uint256"
        }
      ],
      "stateMutability": "view",
      "type": "function"
    },
    {
      "inputs": [
        {
          "internalType": "string",
          "name": "_name",
          "type": "string"
        },
        {
          "internalType": "string",
          "name": "_phone",
          "type": "string"
        },
        {
          "internalType": "string",
          "name": "_category",
          "type": "string"
        },
        {
          "internalType": "string",
          "name": "_location",
          "type": "string"
        },
        {
          "internalType": "string",
          "name": "_description",
          "type": "string"
        }
      ],
      "name": "updateNodeInfo",
      "outputs": [],
      "stateMutability": "nonpayable",
      "type": "function"
    }
  ],
  "bytecode": "0x60806040523480156200001157600080fd5b50600080546001600160a01b0319163390811782556040805161012081018252600560e082018181526420b236b4b760d91b61010084018190529083528351602081810186528782528085019190915284518086018652838152808201929092528385019190915283518082018552868152606084015283518085018552601481527f53797374656d2041646d696e6973747261746f72000000000000000000000000818301526080840152600160a0840181905260c084015293855290925290912081518190620000e490826200026f565b5060208201516001820190620000fb90826200026f565b50604082015160028201906200011290826200026f565b50606082015160038201906200012990826200026f565b50608082015160048201906200014090826200026f565b5060a08201516005909101805460c09093015115156101000261ff00199215159290921661ffff19909316929092171790553360008181526006602052604090819020805460ff19166001179055517f5a1a1bd8d52a28df3c36664a5968c59a58035adc8caa3077c7198f792776312c90620001bc906200033b565b60405180910390a26200038d565b634e487b7160e01b600052604160045260246000fd5b600181811c90821680620001f557607f821691505b6020821081036200021657634e487b7160e01b600052602260045260246000fd5b50919050565b601f8211156200026a57600081815260208120601f850160051c81016020861015620002455750805b601f850160051c820191505b81811015620002665782815560010162000251565b5050505b505050565b81516001600160401b038111156200028b576200028b620001ca565b620002a3816200029c8454620001e0565b846200021c565b602080601f831160018114620002db5760008415620002c25750858301515b600019600386901b1c1916600185901b17855562000266565b600085815260208120601f198616915b828110156200030c57888601518255948401946001909101908401620002eb565b50858210156200032b5787850151600019600388901b60f8161c191681555b5050505050600190811b01905550565b6040815260006200036160408301600581526420b236b4b760d91b602082015260400190565b82810360208401526200038681600581526420b236b4b760d91b602082015260400190565b9392505050565b6137ec806200039d6000396000f3fe608060405234801561001057600080fd5b50600436106101a95760003560e01c80637acc0b20116100f9578063c1583f8011610097578063e0f6ef8711610071578063e0f6ef8714610433578063e3d33fc91461043c578063eaafd39f14610445578063f851a4401461046b57600080fd5b8063c1583f80146103f8578063d783778c1461040b578063dde1bbcf1461042057600080fd5b806398c5fcaf116100d357806398c5fcaf14610380578063ae02ef1a146103ac578063b2b99ec9146103bf578063b9db15b4146103d257600080fd5b80637acc0b20146103135780637b62735a1461033a5780637e53a7401461034d57600080fd5b8063582115fb11610166578063663c01af11610140578063663c01af146102d257806375829def146102da57806378347712146102ed5780637a1317ef1461030057600080fd5b8063582115fb146102785780635a49cfb31461029d5780635d1216d6146102b257600080fd5b80630fecef48146101ae5780631bed4e38146101d757806323c2e2bc146101f85780633153a15b1461021e5780633a7d23761461023157806357a096a114610258575b600080fd5b6101c16101bc366004612b4e565b610496565b6040516101ce9190612b70565b60405180910390f35b6101ea6101e5366004612b4e565b61061d565b6040519081526020016101ce565b61020b610206366004612b4e565b6106a1565b6040516101ce9796959493929190612bfa565b6101ea61022c366004612d1a565b610989565b61024461023f366004612d87565b610b94565b6040516101ce989796959493929190612da9565b61026b610266366004612e2d565b610e22565b6040516101ce9190612e46565b61028b610286366004612b4e565b61114e565b6040516101ce96959493929190612f3e565b6102b06102ab366004612fb5565b6114b8565b005b6102c56102c0366004612b4e565b611651565b6040516101ce9190613096565b6101c16116fd565b6102b06102e8366004612b4e565b611755565b6101ea6102fb366004612e2d565b611980565b6102b061030e3660046130a9565b6119d2565b610326610321366004612e2d565b611ad7565b6040516101ce98979695949392919061317b565b6102b06103483660046131e4565b611c40565b61037061035b366004612b4e565b60066020526000908152604090205460ff1681565b60405190151581526020016101ce565b61037061038e366004612b4e565b6001600160a01b031660009081526006602052604090205460ff1690565b6102b06103ba36600461322a565b611fb3565b6102b06103cd366004612b4e565b6122d9565b6103e56103e0366004612e2d565b612365565b6040516101ce979695949392919061326f565b6102b06104063660046132cf565b612598565b61041361273b565b6040516101ce919061331d565b6101ea61042e366004612e2d565b612773565b6101ea60015481565b6101ea60025481565b610458610453366004612d87565b612794565b6040516101ce979695949392919061335e565b60005461047e906001600160a01b031681565b6040516001600160a01b0390911681526020016101ce565b60606000805b60075481101561051457836001600160a01b031660036000600784815481106104c7576104c76133d8565b600091825260208083209091015483528201929092526040019020600501546001600160a01b03160361050257816104fe81613404565b9250505b8061050c81613404565b91505061049c565b5060008167ffffffffffffffff81111561053057610530612c77565b604051908082528060200260200182016040528015610559578160200160208202803683370190505b5090506000805b60075481101561061357856001600160a01b0316600360006007848154811061058b5761058b6133d8565b600091825260208083209091015483528201929092526040019020600501546001600160a01b03160361060157600781815481106105cb576105cb6133d8565b90600052602060002001548383815181106105e8576105e86133d8565b6020908102919091010152816105fd81613404565b9250505b8061060b81613404565b915050610560565b5090949350505050565b600080805b60075481101561069a57836001600160a01b0316600360006007848154811061064d5761064d6133d8565b600091825260208083209091015483528201929092526040019020600501546001600160a01b031603610688578161068481613404565b9250505b8061069281613404565b915050610622565b5092915050565b6005602052600090815260409020805481906106bc9061341d565b80601f01602080910402602001604051908101604052809291908181526020018280546106e89061341d565b80156107355780601f1061070a57610100808354040283529160200191610735565b820191906000526020600020905b81548152906001019060200180831161071857829003601f168201915b50505050509080600101805461074a9061341d565b80601f01602080910402602001604051908101604052809291908181526020018280546107769061341d565b80156107c35780601f10610798576101008083540402835291602001916107c3565b820191906000526020600020905b8154815290600101906020018083116107a657829003601f168201915b5050505050908060020180546107d89061341d565b80601f01602080910402602001604051908101604052809291908181526020018280546108049061341d565b80156108515780601f1061082657610100808354040283529160200191610851565b820191906000526020600020905b81548152906001019060200180831161083457829003601f168201915b5050505050908060030180546108669061341d565b80601f01602080910402602001604051908101604052809291908181526020018280546108929061341d565b80156108df5780601f106108b4576101008083540402835291602001916108df565b820191906000526020600020905b8154815290600101906020018083116108c257829003601f168201915b5050505050908060040180546108f49061341d565b80601f01602080910402602001604051908101604052809291908181526020018280546109209061341d565b801561096d5780601f106109425761010080835404028352916020019161096d565b820191906000526020600020905b81548152906001019060200180831161095057829003601f168201915b5050506005909301549192505060ff8082169161010090041687565b3360009081526006602052604081205460ff166109c15760405162461bcd60e51b81526004016109b890613451565b60405180910390fd5b83516000036109e35760405163ecd7b0d160e01b815260040160405180910390fd5b8251600003610a055760405163ecd7b0d160e01b815260040160405180910390fd5b60018054906000610a1583613404565b9091555050600180546040805161010081018252828152602080820189815282840189905260608301889052336080840181905260a084015260c0830186905260e08301869052600085815260039092529290208151815591519293909290820190610a8190826134ec565b5060408201516002820190610a9690826134ec565b506060820151600382015560808201516004820180546001600160a01b0319166001600160a01b0392831617905560a08301516005909201805460c085015160e090950151939092166001600160a81b031990921691909117600160a01b60ff909416939093029290921760ff60a81b1916600160a81b91151591909102179055600780546001810182556000919091527fa66cc928b5edb82af9bd49922954155ab7b0942694bea4ce44661d9a8736c68801819055604051339082907fea22475394060b6c039f5cad008910b7b9160a8aee04f8f9ba666147e67ef52c90610b84908990899089906135ac565b60405180910390a3949350505050565b60046020528160005260406000208181548110610bb057600080fd5b600091825260209091206008909102018054600182015460028301546003840180549396506001600160a01b03928316955091169291610bef9061341d565b80601f0160208091040260200160405190810160405280929190818152602001828054610c1b9061341d565b8015610c685780601f10610c3d57610100808354040283529160200191610c68565b820191906000526020600020905b815481529060010190602001808311610c4b57829003601f168201915b505050505090806004018054610c7d9061341d565b80601f0160208091040260200160405190810160405280929190818152602001828054610ca99061341d565b8015610cf65780601f10610ccb57610100808354040283529160200191610cf6565b820191906000526020600020905b815481529060010190602001808311610cd957829003601f168201915b505050505090806005015490806006018054610d119061341d565b80601f0160208091040260200160405190810160405280929190818152602001828054610d3d9061341d565b8015610d8a5780601f10610d5f57610100808354040283529160200191610d8a565b820191906000526020600020905b815481529060010190602001808311610d6d57829003601f168201915b505050505090806007018054610d9f9061341d565b80601f0160208091040260200160405190810160405280929190818152602001828054610dcb9061341d565b8015610e185780601f10610ded57610100808354040283529160200191610e18565b820191906000526020600020905b815481529060010190602001808311610dfb57829003601f168201915b5050505050905088565b6000818152600360205260409020600501546060908290600160a81b900460ff16610e63576040516392691cab60e01b8152600481018290526024016109b8565b600083815260046020908152604080832080548251818502810185019093528083529193909284015b828210156111415760008481526020908190206040805161010081018252600886029092018054835260018101546001600160a01b0390811694840194909452600281015490931690820152600382018054919291606084019190610ef09061341d565b80601f0160208091040260200160405190810160405280929190818152602001828054610f1c9061341d565b8015610f695780601f10610f3e57610100808354040283529160200191610f69565b820191906000526020600020905b815481529060010190602001808311610f4c57829003601f168201915b50505050508152602001600482018054610f829061341d565b80601f0160208091040260200160405190810160405280929190818152602001828054610fae9061341d565b8015610ffb5780601f10610fd057610100808354040283529160200191610ffb565b820191906000526020600020905b815481529060010190602001808311610fde57829003601f168201915b505050505081526020016005820154815260200160068201805461101e9061341d565b80601f016020809104026020016040519081016040528092919081815260200182805461104a9061341d565b80156110975780601f1061106c57610100808354040283529160200191611097565b820191906000526020600020905b81548152906001019060200180831161107a57829003601f168201915b505050505081526020016007820180546110b09061341d565b80601f01602080910402602001604051908101604052809291908181526020018280546110dc9061341d565b80156111295780601f106110fe57610100808354040283529160200191611129565b820191906000526020600020905b81548152906001019060200180831161110c57829003601f168201915b50505050508152505081526020019060010190610e8c565b5050505091505b50919050565b606080606080606060008060056000896001600160a01b03166001600160a01b031681526020019081526020016000206040518060e00160405290816000820180546111999061341d565b80601f01602080910402602001604051908101604052809291908181526020018280546111c59061341d565b80156112125780601f106111e757610100808354040283529160200191611212565b820191906000526020600020905b8154815290600101906020018083116111f557829003601f168201915b5050505050815260200160018201805461122b9061341d565b80601f01602080910402602001604051908101604052809291908181526020018280546112579061341d565b80156112a45780601f10611279576101008083540402835291602001916112a4565b820191906000526020600020905b81548152906001019060200180831161128757829003601f168201915b505050505081526020016002820180546112bd9061341d565b80601f01602080910402602001604051908101604052809291908181526020018280546112e99061341d565b80156113365780601f1061130b57610100808354040283529160200191611336565b820191906000526020600020905b81548152906001019060200180831161131957829003601f168201915b5050505050815260200160038201805461134f9061341d565b80601f016020809104026020016040519081016040528092919081815260200182805461137b9061341d565b80156113c85780601f1061139d576101008083540402835291602001916113c8565b820191906000526020600020905b8154815290600101906020018083116113ab57829003601f168201915b505050505081526020016004820180546113e19061341d565b80601f016020809104026020016040519081016040528092919081815260200182805461140d9061341d565b801561145a5780601f1061142f5761010080835404028352916020019161145a565b820191906000526020600020905b81548152906001019060200180831161143d57829003601f168201915b50505091835250506005919091015460ff8082161515602080850191909152610100909204161515604092830152825190830151918301516060840151608085015160a090950151929d939c50909a50985091965090945092505050565b6000546001600160a01b031633146114e25760405162461bcd60e51b81526004016109b8906135e2565b6001600160a01b0386166115095760405163e6c4247b60e01b815260040160405180910390fd5b6040805160e08101825286815260208082018790528183018690526060820185905260808201849052600160a0830181905260c08301526001600160a01b03891660009081526005909152919091208151819061156690826134ec565b506020820151600182019061157b90826134ec565b506040820151600282019061159090826134ec565b50606082015160038201906115a590826134ec565b50608082015160048201906115ba90826134ec565b5060a08201516005909101805460c09093015115156101000261ff00199215159290921661ffff19909316929092171790556001600160a01b03861660008181526006602052604090819020805460ff19166001179055517f5a1a1bd8d52a28df3c36664a5968c59a58035adc8caa3077c7198f792776312c906116419088908790613623565b60405180910390a2505050505050565b6001600160a01b03811660009081526005602052604090208054606091906116789061341d565b80601f01602080910402602001604051908101604052809291908181526020018280546116a49061341d565b80156116f15780601f106116c6576101008083540402835291602001916116f1565b820191906000526020600020905b8154815290600101906020018083116116d457829003601f168201915b50505050509050919050565b6060600780548060200260200160405190810160405280929190818152602001828054801561174b57602002820191906000526020600020905b815481526020019060010190808311611737575b5050505050905090565b6000546001600160a01b0316331461177f5760405162461bcd60e51b81526004016109b8906135e2565b6001600160a01b0381166117a65760405163e6c4247b60e01b815260040160405180910390fd5b600080546001600160a01b039081168252600660208181526040808520805460ff199081169091558554851686526005808452828720810180548316905586546001600160a01b03191695881695861787558587529383528186208054909116600190811790915581516101208101835260e081018581526420b236b4b760d91b6101008301819052908252835180860185528881528286015283518085018552868152808601919091528184015282518085018452878152606082015282518084018452601481527329bcb9ba32b69020b236b4b734b9ba3930ba37b960611b81860152608082015260a0810182905260c0810191909152938552919052909120815181906118b690826134ec565b50602082015160018201906118cb90826134ec565b50604082015160028201906118e090826134ec565b50606082015160038201906118f590826134ec565b506080820151600482019061190a90826134ec565b5060a08201516005909101805460c09093015115156101000261ff00199215159290921661ffff19909316929092171790556040516001600160a01b038216907f5a1a1bd8d52a28df3c36664a5968c59a58035adc8caa3077c7198f792776312c9061197590613651565b60405180910390a250565b6000818152600360205260408120600501548290600160a81b900460ff166119be576040516392691cab60e01b8152600481018290526024016109b8565b505060009081526004602052604090205490565b3360009081526006602052604090205460ff16611a015760405162461bcd60e51b81526004016109b890613451565b336000908152600560205260409020611a1a86826134ec565b50336000908152600560205260409020600101611a3785826134ec565b50336000908152600560205260409020600201611a5484826134ec565b50336000908152600560205260409020600301611a7183826134ec565b50336000908152600560205260409020600401611a8e82826134ec565b50336001600160a01b03167f5f9fcbc17fba60677ae056851409ca727b54b90cb63be975f68684d06613b07886604051611ac89190613096565b60405180910390a25050505050565b60036020526000908152604090208054600182018054919291611af99061341d565b80601f0160208091040260200160405190810160405280929190818152602001828054611b259061341d565b8015611b725780601f10611b4757610100808354040283529160200191611b72565b820191906000526020600020905b815481529060010190602001808311611b5557829003601f168201915b505050505090806002018054611b879061341d565b80601f0160208091040260200160405190810160405280929190818152602001828054611bb39061341d565b8015611c005780601f10611bd557610100808354040283529160200191611c00565b820191906000526020600020905b815481529060010190602001808311611be357829003601f168201915b50505060038401546004850154600590950154939490936001600160a01b039182169350908116915060ff600160a01b8204811691600160a81b90041688565b6000868152600360205260409020600501548690600160a81b900460ff16611c7e576040516392691cab60e01b8152600481018290526024016109b8565b3360009081526006602052604090205460ff16611cad5760405162461bcd60e51b81526004016109b890613451565b600087815260036020526040902060058101546001600160a01b03163314611ce8576040516335cd3b6d60e01b815260040160405180910390fd5b6001600160a01b03871660009081526006602052604090205460ff16611d2157604051636e65c1bd60e01b815260040160405180910390fd5b6001600160a01b038716611d485760405163e6c4247b60e01b815260040160405180910390fd5b6005810154600090611d6590600160a01b900460ff16600161369a565b905060038160ff161115611d8c5760405163e82a532960e01b815260040160405180910390fd5b8651600003611dae5760405163ecd7b0d160e01b815260040160405180910390fd5b8551600003611dd05760405163ecd7b0d160e01b815260040160405180910390fd5b60028054906000611de083613404565b919050555060006040518061010001604052808b8152602001336001600160a01b031681526020018a6001600160a01b03168152602001898152602001888152602001428152602001878152602001868152509050600460008b81526020019081526020016000208190806001815401808255809150506001900390600052602060002090600802016000909190919091506000820151816000015560208201518160010160006101000a8154816001600160a01b0302191690836001600160a01b0316021790555060408201518160020160006101000a8154816001600160a01b0302191690836001600160a01b031602179055506060820151816003019081611eeb91906134ec565b5060808201516004820190611f0090826134ec565b5060a0820151600582015560c08201516006820190611f1f90826134ec565b5060e08201516007820190611f3490826134ec565b5050506005830180546001600160a01b038b166001600160a81b03199091168117600160a01b60ff8616021790915560405133908c907f467adaed63bfa826bc051092cee7992ecf6db053f457619d5b58c544e52dd2ee90611f9f908d908d9042908e908e906136b9565b60405180910390a450505050505050505050565b6000858152600360205260409020600501548590600160a81b900460ff16611ff1576040516392691cab60e01b8152600481018290526024016109b8565b3360009081526006602052604090205460ff166120205760405162461bcd60e51b81526004016109b890613451565b600086815260036020526040902060058101546001600160a01b0316331461205b576040516335cd3b6d60e01b815260040160405180910390fd5b6001600160a01b03861660009081526006602052604090205460ff1661209457604051636e65c1bd60e01b815260040160405180910390fd5b6001600160a01b0386166120bb5760405163e6c4247b60e01b815260040160405180910390fd5b60058101546000906120d890600160a01b900460ff16600161369a565b905060038160ff1611156120ff5760405163e82a532960e01b815260040160405180910390fd5b85516000036121215760405163ecd7b0d160e01b815260040160405180910390fd5b84516000036121435760405163ecd7b0d160e01b815260040160405180910390fd5b6002805490600061215383613404565b909155505060408051610100810182528981523360208083019182526001600160a01b038b8116848601908152606085018c8152608086018c90524260a087015260c086018b905286518085018852600080825260e08801919091528f815260048552968720805460018082018355918952949097208651600890950201938455935195830180546001600160a01b0319908116978416979097179055516002830180549096169116179093555190918291600382019061221490826134ec565b506080820151600482019061222990826134ec565b5060a0820151600582015560c0820151600682019061224890826134ec565b5060e0820151600782019061225d90826134ec565b5050506005830180546001600160a01b038a166001600160a81b03199091168117600160a01b60ff8616021790915560405133908b907f467adaed63bfa826bc051092cee7992ecf6db053f457619d5b58c544e52dd2ee906122c6908c908c9042908d90613718565b60405180910390a4505050505050505050565b6000546001600160a01b031633146123035760405162461bcd60e51b81526004016109b8906135e2565b6001600160a01b0381166000818152600660209081526040808320805460ff199081169091556005928390528184209092018054909216909155517fcfc24166db4bb677e857cacabd1541fb2b30645021b27c5130419589b84db52b9190a250565b600081815260036020526040812060050154606090819083908190819081908890600160a81b900460ff166123b0576040516392691cab60e01b8152600481018290526024016109b8565b6000600360008b815260200190815260200160002060405180610100016040529081600082015481526020016001820180546123eb9061341d565b80601f01602080910402602001604051908101604052809291908181526020018280546124179061341d565b80156124645780601f1061243957610100808354040283529160200191612464565b820191906000526020600020905b81548152906001019060200180831161244757829003601f168201915b5050505050815260200160028201805461247d9061341d565b80601f01602080910402602001604051908101604052809291908181526020018280546124a99061341d565b80156124f65780601f106124cb576101008083540402835291602001916124f6565b820191906000526020600020905b8154815290600101906020018083116124d957829003601f168201915b5050509183525050600382015460208083019190915260048301546001600160a01b0390811660408085019190915260059094015490811660608085019190915260ff600160a01b83048116608080870191909152600160a81b90930416151560a0948501528551928601519486015190860151918601519386015160c090960151929e50939c50929a50919850965090945092505050919395979092949650565b6000546001600160a01b031633146125c25760405162461bcd60e51b81526004016109b8906135e2565b6040805160e08101825282815281516020818101845260008083528184019290925283518085018552600d81526c155b98d85d1959dbdc9a5e9959609a1b8183015283850152835180820185528281526060840152835180820185528281526080840152600160a0840181905260c08401526001600160a01b038616825260059052919091208151819061265690826134ec565b506020820151600182019061266b90826134ec565b506040820151600282019061268090826134ec565b506060820151600382019061269590826134ec565b50608082015160048201906126aa90826134ec565b5060a08201516005909101805460c09093015115156101000261ff00199215159290921661ffff19909316929092171790556001600160a01b03821660008181526006602052604090819020805460ff19166001179055517f5a1a1bd8d52a28df3c36664a5968c59a58035adc8caa3077c7198f792776312c9061272f908490613774565b60405180910390a25050565b60606000805b60075481101561275d578061275581613404565b915050612741565b5050604080516000815260208101909152919050565b6007818154811061278357600080fd5b600091825260209091200154905081565b600082815260036020526040812060050154819060609081908390829081908990600160a81b900460ff166127df576040516392691cab60e01b8152600481018290526024016109b8565b60008a81526004602052604090205489106128325760405162461bcd60e51b8152602060048201526013602482015272496e646578206f7574206f6620626f756e647360681b60448201526064016109b8565b60008a815260046020526040812080548b908110612852576128526133d8565b6000918252602091829020604080516101008101825260089093029091018054835260018101546001600160a01b03908116948401949094526002810154909316908201526003820180549192916060840191906128af9061341d565b80601f01602080910402602001604051908101604052809291908181526020018280546128db9061341d565b80156129285780601f106128fd57610100808354040283529160200191612928565b820191906000526020600020905b81548152906001019060200180831161290b57829003601f168201915b505050505081526020016004820180546129419061341d565b80601f016020809104026020016040519081016040528092919081815260200182805461296d9061341d565b80156129ba5780601f1061298f576101008083540402835291602001916129ba565b820191906000526020600020905b81548152906001019060200180831161299d57829003601f168201915b50505050508152602001600582015481526020016006820180546129dd9061341d565b80601f0160208091040260200160405190810160405280929190818152602001828054612a099061341d565b8015612a565780601f10612a2b57610100808354040283529160200191612a56565b820191906000526020600020905b815481529060010190602001808311612a3957829003601f168201915b50505050508152602001600782018054612a6f9061341d565b80601f0160208091040260200160405190810160405280929190818152602001828054612a9b9061341d565b8015612ae85780601f10612abd57610100808354040283529160200191612ae8565b820191906000526020600020905b815481529060010190602001808311612acb57829003601f168201915b505050505081525050905080602001518160400151826060015183608001518460a001518560c001518660e001519850985098509850985098509850505092959891949750929550565b80356001600160a01b0381168114612b4957600080fd5b919050565b600060208284031215612b6057600080fd5b612b6982612b32565b9392505050565b6020808252825182820181905260009190848201906040850190845b81811015612ba857835183529284019291840191600101612b8c565b50909695505050505050565b6000815180845260005b81811015612bda57602081850181015186830182015201612bbe565b506000602082860101526020601f19601f83011685010191505092915050565b60e081526000612c0d60e083018a612bb4565b8281036020840152612c1f818a612bb4565b90508281036040840152612c338189612bb4565b90508281036060840152612c478188612bb4565b90508281036080840152612c5b8187612bb4565b94151560a0840152505090151560c09091015295945050505050565b634e487b7160e01b600052604160045260246000fd5b600082601f830112612c9e57600080fd5b813567ffffffffffffffff80821115612cb957612cb9612c77565b604051601f8301601f19908116603f01168101908282118183101715612ce157612ce1612c77565b81604052838152866020858801011115612cfa57600080fd5b836020870160208301376000602085830101528094505050505092915050565b600080600060608486031215612d2f57600080fd5b833567ffffffffffffffff80821115612d4757600080fd5b612d5387838801612c8d565b94506020860135915080821115612d6957600080fd5b50612d7686828701612c8d565b925050604084013590509250925092565b60008060408385031215612d9a57600080fd5b50508035926020909101359150565b8881526001600160a01b0388811660208301528716604082015261010060608201819052600090612ddc83820189612bb4565b90508281036080840152612df08188612bb4565b90508560a084015282810360c0840152612e0a8186612bb4565b905082810360e0840152612e1e8185612bb4565b9b9a5050505050505050505050565b600060208284031215612e3f57600080fd5b5035919050565b60006020808301818452808551808352604092508286019150828160051b87010184880160005b83811015612f3057603f19898403018552815180518452878101516001600160a01b03908116898601528782015116878501526060808201516101008287018190529190612ebd83880182612bb4565b9250505060808083015186830382880152612ed88382612bb4565b9250505060a080830151818701525060c08083015186830382880152612efe8382612bb4565b9250505060e08083015192508582038187015250612f1c8183612bb4565b968901969450505090860190600101612e6d565b509098975050505050505050565b60c081526000612f5160c0830189612bb4565b8281036020840152612f638189612bb4565b90508281036040840152612f778188612bb4565b90508281036060840152612f8b8187612bb4565b90508281036080840152612f9f8186612bb4565b91505082151560a0830152979650505050505050565b60008060008060008060c08789031215612fce57600080fd5b612fd787612b32565b9550602087013567ffffffffffffffff80821115612ff457600080fd5b6130008a838b01612c8d565b9650604089013591508082111561301657600080fd5b6130228a838b01612c8d565b9550606089013591508082111561303857600080fd5b6130448a838b01612c8d565b9450608089013591508082111561305a57600080fd5b6130668a838b01612c8d565b935060a089013591508082111561307c57600080fd5b5061308989828a01612c8d565b9150509295509295509295565b602081526000612b696020830184612bb4565b600080600080600060a086880312156130c157600080fd5b853567ffffffffffffffff808211156130d957600080fd5b6130e589838a01612c8d565b965060208801359150808211156130fb57600080fd5b61310789838a01612c8d565b9550604088013591508082111561311d57600080fd5b61312989838a01612c8d565b9450606088013591508082111561313f57600080fd5b61314b89838a01612c8d565b9350608088013591508082111561316157600080fd5b5061316e88828901612c8d565b9150509295509295909350565b60006101008a83528060208401526131958184018b612bb4565b905082810360408401526131a9818a612bb4565b606084019890985250506001600160a01b0394851660808201529290931660a083015260ff1660c082015290151560e0909101529392505050565b60008060008060008060c087890312156131fd57600080fd5b8635955061320d60208801612b32565b9450604087013567ffffffffffffffff8082111561301657600080fd5b600080600080600060a0868803121561324257600080fd5b8535945061325260208701612b32565b9350604086013567ffffffffffffffff8082111561311d57600080fd5b87815260e06020820152600061328860e0830189612bb4565b828103604084015261329a8189612bb4565b606084019790975250506001600160a01b0393841660808201529190921660a082015260ff90911660c0909101529392505050565b600080604083850312156132e257600080fd5b6132eb83612b32565b9150602083013567ffffffffffffffff81111561330757600080fd5b61331385828601612c8d565b9150509250929050565b6020808252825182820181905260009190848201906040850190845b81811015612ba85783516001600160a01b031683529284019291840191600101613339565b6001600160a01b0388811682528716602082015260e06040820181905260009061338a90830188612bb4565b828103606084015261339c8188612bb4565b905085608084015282810360a08401526133b68186612bb4565b905082810360c08401526133ca8185612bb4565b9a9950505050505050505050565b634e487b7160e01b600052603260045260246000fd5b634e487b7160e01b600052601160045260246000fd5b600060018201613416576134166133ee565b5060010190565b600181811c9082168061343157607f821691505b60208210810361114857634e487b7160e01b600052602260045260246000fd5b6020808252602c908201527f4f6e6c7920617574686f72697a6564206e6f6465732063616e2063616c6c207460408201526b3434b990333ab731ba34b7b760a11b606082015260800190565b601f8211156134e757600081815260208120601f850160051c810160208610156134c45750805b601f850160051c820191505b818110156134e3578281556001016134d0565b5050505b505050565b815167ffffffffffffffff81111561350657613506612c77565b61351a81613514845461341d565b8461349d565b602080601f83116001811461354f57600084156135375750858301515b600019600386901b1c1916600185901b1785556134e3565b600085815260208120601f198616915b8281101561357e5788860151825594840194600190910190840161355f565b508582101561359c5787850151600019600388901b60f8161c191681555b5050505050600190811b01905550565b6060815260006135bf6060830186612bb4565b82810360208401526135d18186612bb4565b915050826040830152949350505050565b60208082526021908201527f4f6e6c792061646d696e2063616e2063616c6c20746869732066756e6374696f6040820152603760f91b606082015260800190565b6040815260006136366040830185612bb4565b82810360208401526136488185612bb4565b95945050505050565b60408152600061367660408301600581526420b236b4b760d91b602082015260400190565b8281036020840152612b6981600581526420b236b4b760d91b602082015260400190565b60ff81811683821601908111156136b3576136b36133ee565b92915050565b60a0815260006136cc60a0830188612bb4565b82810360208401526136de8188612bb4565b905085604084015282810360608401526136f88186612bb4565b9050828103608084015261370c8185612bb4565b98975050505050505050565b60a08152600061372b60a0830187612bb4565b828103602084015261373d8187612bb4565b905084604084015282810360608401526137578185612bb4565b838103608090940193909352505060008152602001949350505050565b6040815260006137876040830184612bb4565b8281036020840152600d81526c155b98d85d1959dbdc9a5e9959609a1b6020820152604081019150509291505056fea264697066735822122002151c3d21ebeb64294722a9561d978f2fd7c79a43ac4a94e88bb2cb97fad9dc64736f6c63430008140033",
  "linkReferences": {},
  "deployedLinkReferences": {}
}