{"contracts/MoutaiTrace.sol":{"MoutaiTrace":{"abi":[{"inputs":[],"stateMutability":"nonpayable","type":"constructor"},{"inputs":[],"name":"EmptyString","type":"error"},{"inputs":[],"name":"InvalidAddress","type":"error"},{"inputs":[],"name":"InvalidStage","type":"error"},{"inputs":[],"name":"InvalidTransfer","type":"error"},{"inputs":[],"name":"NodeNotFound","type":"error"},{"inputs":[],"name":"NotAuthorizedNode","type":"error"},{"inputs":[],"name":"NotProductOwner","type":"error"},{"inputs":[{"internalType":"uint256","name":"productId","type":"uint256"}],"name":"ProductNotFound","type":"error"},{"anonymous":false,"inputs":[{"indexed":true,"internalType":"address","name":"node","type":"address"},{"indexed":false,"internalType":"string","name":"nodeName","type":"string"},{"indexed":false,"internalType":"string","name":"category","type":"string"}],"name":"NodeAuthorized","type":"event"},{"anonymous":false,"inputs":[{"indexed":true,"internalType":"address","name":"node","type":"address"}],"name":"NodeRemoved","type":"event"},{"anonymous":false,"inputs":[{"indexed":true,"internalType":"address","name":"node","type":"address"},{"indexed":false,"internalType":"string","name":"nodeName","type":"string"}],"name":"NodeUpdated","type":"event"},{"anonymous":false,"inputs":[{"indexed":true,"internalType":"uint256","name":"productId","type":"uint256"},{"indexed":false,"internalType":"string","name":"name","type":"string"},{"indexed":false,"internalType":"string","name":"batchNo","type":"string"},{"indexed":true,"internalType":"address","name":"manufacturer","type":"address"},{"indexed":false,"internalType":"uint256","name":"productionDate","type":"uint256"}],"name":"ProductRegistered","type":"event"},{"anonymous":false,"inputs":[{"indexed":true,"internalType":"uint256","name":"productId","type":"uint256"},{"indexed":true,"internalType":"address","name":"from","type":"address"},{"indexed":true,"internalType":"address","name":"to","type":"address"},{"indexed":false,"internalType":"string","name":"fromLocation","type":"string"},{"indexed":false,"internalType":"string","name":"toLocation","type":"string"},{"indexed":false,"internalType":"uint256","name":"timestamp","type":"uint256"},{"indexed":false,"internalType":"string","name":"remark","type":"string"},{"indexed":false,"internalType":"string","name":"verifier","type":"string"}],"name":"TransferRecorded","type":"event"},{"inputs":[],"name":"admin","outputs":[{"internalType":"address","name":"","type":"address"}],"stateMutability":"view","type":"function"},{"inputs":[{"internalType":"uint256","name":"","type":"uint256"}],"name":"allProductIds","outputs":[{"internalType":"uint256","name":"","type":"uint256"}],"stateMutability":"view","type":"function"},{"inputs":[{"internalType":"address","name":"_node","type":"address"},{"internalType":"string","name":"_nodeName","type":"string"}],"name":"authorizeNode","outputs":[],"stateMutability":"nonpayable","type":"function"},{"inputs":[{"internalType":"address","name":"_node","type":"address"},{"internalType":"string","name":"_name","type":"string"},{"internalType":"string","name":"_phone","type":"string"},{"internalType":"string","name":"_category","type":"string"},{"internalType":"string","name":"_location","type":"string"},{"internalType":"string","name":"_description","type":"string"}],"name":"authorizeNodeWithInfo","outputs":[],"stateMutability":"nonpayable","type":"function"},{"inputs":[{"internalType":"address","name":"","type":"address"}],"name":"authorizedNodes","outputs":[{"internalType":"bool","name":"","type":"bool"}],"stateMutability":"view","type":"function"},{"inputs":[],"name":"getAllAuthorizedNodes","outputs":[{"internalType":"address[]","name":"","type":"address[]"}],"stateMutability":"view","type":"function"},{"inputs":[],"name":"getAllProductIds","outputs":[{"internalType":"uint256[]","name":"","type":"uint256[]"}],"stateMutability":"view","type":"function"},{"inputs":[{"internalType":"address","name":"_node","type":"address"}],"name":"getNodeInfo","outputs":[{"internalType":"string","name":"name","type":"string"},{"internalType":"string","name":"phone","type":"string"},{"internalType":"string","name":"category","type":"string"},{"internalType":"string","name":"location","type":"string"},{"internalType":"string","name":"description","type":"string"},{"internalType":"bool","name":"isAuthorized","type":"bool"}],"stateMutability":"view","type":"function"},{"inputs":[{"internalType":"address","name":"_node","type":"address"}],"name":"getNodeName","outputs":[{"internalType":"string","name":"","type":"string"}],"stateMutability":"view","type":"function"},{"inputs":[{"internalType":"uint256","name":"_productId","type":"uint256"}],"name":"getProduct","outputs":[{"internalType":"uint256","name":"id","type":"uint256"},{"internalType":"string","name":"name","type":"string"},{"internalType":"string","name":"batchNo","type":"string"},{"internalType":"uint256","name":"productionDate","type":"uint256"},{"internalType":"address","name":"manufacturer","type":"address"},{"internalType":"address","name":"currentOwner","type":"address"},{"internalType":"uint8","name":"currentStage","type":"uint8"}],"stateMutability":"view","type":"function"},{"inputs":[{"internalType":"address","name":"_owner","type":"address"}],"name":"getProductCountByOwner","outputs":[{"internalType":"uint256","name":"","type":"uint256"}],"stateMutability":"view","type":"function"},{"inputs":[{"internalType":"uint256","name":"_productId","type":"uint256"}],"name":"getProductHistory","outputs":[{"components":[{"internalType":"uint256","name":"productId","type":"uint256"},{"internalType":"address","name":"from","type":"address"},{"internalType":"address","name":"to","type":"address"},{"internalType":"string","name":"fromLocation","type":"string"},{"internalType":"string","name":"toLocation","type":"string"},{"internalType":"uint256","name":"timestamp","type":"uint256"},{"internalType":"string","name":"remark","type":"string"},{"internalType":"string","name":"verifier","type":"string"}],"internalType":"struct MoutaiTrace.TransferRecord[]","name":"","type":"tuple[]"}],"stateMutability":"view","type":"function"},{"inputs":[{"internalType":"uint256","name":"_productId","type":"uint256"}],"name":"getProductHistoryCount","outputs":[{"internalType":"uint256","name":"","type":"uint256"}],"stateMutability":"view","type":"function"},{"inputs":[{"internalType":"address","name":"_owner","type":"address"}],"name":"getProductsByOwner","outputs":[{"internalType":"uint256[]","name":"","type":"uint256[]"}],"stateMutability":"view","type":"function"},{"inputs":[{"internalType":"uint256","name":"_productId","type":"uint256"},{"internalType":"uint256","name":"_index","type":"uint256"}],"name":"getTransferRecord","outputs":[{"internalType":"address","name":"from","type":"address"},{"internalType":"address","name":"to","type":"address"},{"internalType":"string","name":"fromLocation","type":"string"},{"internalType":"string","name":"toLocation","type":"string"},{"internalType":"uint256","name":"timestamp","type":"uint256"},{"internalType":"string","name":"remark","type":"string"},{"internalType":"string","name":"verifier","type":"string"}],"stateMutability":"view","type":"function"},{"inputs":[{"internalType":"address","name":"_node","type":"address"}],"name":"isAuthorizedNode","outputs":[{"internalType":"bool","name":"","type":"bool"}],"stateMutability":"view","type":"function"},{"inputs":[{"internalType":"address","name":"","type":"address"}],"name":"nodeInfo","outputs":[{"internalType":"string","name":"name","type":"string"},{"internalType":"string","name":"phone","type":"string"},{"internalType":"string","name":"category","type":"string"},{"internalType":"string","name":"location","type":"string"},{"internalType":"string","name":"description","type":"string"},{"internalType":"bool","name":"isAuthorized","type":"bool"},{"internalType":"bool","name":"exists","type":"bool"}],"stateMutability":"view","type":"function"},{"inputs":[],"name":"productCount","outputs":[{"internalType":"uint256","name":"","type":"uint256"}],"stateMutability":"view","type":"function"},{"inputs":[{"internalType":"uint256","name":"","type":"uint256"},{"internalType":"uint256","name":"","type":"uint256"}],"name":"productHistory","outputs":[{"internalType":"uint256","name":"productId","type":"uint256"},{"internalType":"address","name":"from","type":"address"},{"internalType":"address","name":"to","type":"address"},{"internalType":"string","name":"fromLocation","type":"string"},{"internalType":"string","name":"toLocation","type":"string"},{"internalType":"uint256","name":"timestamp","type":"uint256"},{"internalType":"string","name":"remark","type":"string"},{"internalType":"string","name":"verifier","type":"string"}],"stateMutability":"view","type":"function"},{"inputs":[{"internalType":"uint256","name":"","type":"uint256"}],"name":"products","outputs":[{"internalType":"uint256","name":"id","type":"uint256"},{"internalType":"string","name":"name","type":"string"},{"internalType":"string","name":"batchNo","type":"string"},{"internalType":"uint256","name":"productionDate","type":"uint256"},{"internalType":"address","name":"manufacturer","type":"address"},{"internalType":"address","name":"currentOwner","type":"address"},{"internalType":"uint8","name":"currentStage","type":"uint8"},{"internalType":"bool","name":"exists","type":"bool"}],"stateMutability":"view","type":"function"},{"inputs":[{"internalType":"uint256","name":"_productId","type":"uint256"},{"internalType":"address","name":"_to","type":"address"},{"internalType":"string","name":"_fromLocation","type":"string"},{"internalType":"string","name":"_toLocation","type":"string"},{"internalType":"string","name":"_remark","type":"string"}],"name":"recordTransfer","outputs":[],"stateMutability":"nonpayable","type":"function"},{"inputs":[{"internalType":"uint256","name":"_productId","type":"uint256"},{"internalType":"address","name":"_to","type":"address"},{"internalType":"string","name":"_fromLocation","type":"string"},{"internalType":"string","name":"_toLocation","type":"string"},{"internalType":"string","name":"_remark","type":"string"},{"internalType":"string","name":"_verifier","type":"string"}],"name":"recordTransferWithVerifier","outputs":[],"stateMutability":"nonpayable","type":"function"},{"inputs":[{"internalType":"string","name":"_name","type":"string"},{"internalType":"string","name":"_batchNo","type":"string"},{"internalType":"uint256","name":"_productionDate","type":"uint256"}],"name":"registerProduct","outputs":[{"internalType":"uint256","name":"","type":"uint256"}],"stateMutability":"nonpayable","type":"function"},{"inputs":[{"internalType":"address","name":"_node","type":"address"}],"name":"removeNode","outputs":[],"stateMutability":"nonpayable","type":"function"},{"inputs":[{"internalType":"address","name":"_newAdmin","type":"address"}],"name":"transferAdmin","outputs":[],"stateMutability":"nonpayable","type":"function"},{"inputs":[],"name":"transferCount","outputs":[{"internalType":"uint256","name":"","type":"uint256"}],"stateMutability":"view","type":"function"},{"inputs":[{"internalType":"string","name":"_name","type":"string"},{"internalType":"string","name":"_phone","type":"string"},{"internalType":"string","name":"_category","type":"string"},{"internalType":"string","name":"_location","type":"string"},{"internalType":"string","name":"_description","type":"string"}],"name":"updateNodeInfo","outputs":[],"stateMutability":"nonpayable","type":"function"}],"evm":{"bytecode":{"linkReferences":{},"object":"60806040523480156200001157600080fd5b50600080546001600160a01b0319163390811782556040805161012081018252600560e082018181526420b236b4b760d91b61010084018190529083528351602081810186528782528085019190915284518086018652838152808201929092528385019190915283518082018552868152606084015283518085018552601481527f53797374656d2041646d696e6973747261746f72000000000000000000000000818301526080840152600160a0840181905260c084015293855290925290912081518190620000e490826200026f565b5060208201516001820190620000fb90826200026f565b50604082015160028201906200011290826200026f565b50606082015160038201906200012990826200026f565b50608082015160048201906200014090826200026f565b5060a08201516005909101805460c09093015115156101000261ff00199215159290921661ffff19909316929092171790553360008181526006602052604090819020805460ff19166001179055517f5a1a1bd8d52a28df3c36664a5968c59a58035adc8caa3077c7198f792776312c90620001bc906200033b565b60405180910390a26200038d565b634e487b7160e01b600052604160045260246000fd5b600181811c90821680620001f557607f821691505b6020821081036200021657634e487b7160e01b600052602260045260246000fd5b50919050565b601f8211156200026a57600081815260208120601f850160051c81016020861015620002455750805b601f850160051c820191505b81811015620002665782815560010162000251565b5050505b505050565b81516001600160401b038111156200028b576200028b620001ca565b620002a3816200029c8454620001e0565b846200021c565b602080601f831160018114620002db5760008415620002c25750858301515b600019600386901b1c1916600185901b17855562000266565b600085815260208120601f198616915b828110156200030c57888601518255948401946001909101908401620002eb565b50858210156200032b5787850151600019600388901b60f8161c191681555b5050505050600190811b01905550565b6040815260006200036160408301600581526420b236b4b760d91b602082015260400190565b82810360208401526200038681600581526420b236b4b760d91b602082015260400190565b9392505050565b6137ec806200039d6000396000f3fe608060405234801561001057600080fd5b50600436106101a95760003560e01c80637acc0b20116100f9578063c1583f8011610097578063e0f6ef8711610071578063e0f6ef8714610433578063e3d33fc91461043c578063eaafd39f14610445578063f851a4401461046b57600080fd5b8063c1583f80146103f8578063d783778c1461040b578063dde1bbcf1461042057600080fd5b806398c5fcaf116100d357806398c5fcaf14610380578063ae02ef1a146103ac578063b2b99ec9146103bf578063b9db15b4146103d257600080fd5b80637acc0b20146103135780637b62735a1461033a5780637e53a7401461034d57600080fd5b8063582115fb11610166578063663c01af11610140578063663c01af146102d257806375829def146102da57806378347712146102ed5780637a1317ef1461030057600080fd5b8063582115fb146102785780635a49cfb31461029d5780635d1216d6146102b257600080fd5b80630fecef48146101ae5780631bed4e38146101d757806323c2e2bc146101f85780633153a15b1461021e5780633a7d23761461023157806357a096a114610258575b600080fd5b6101c16101bc366004612b4e565b610496565b6040516101ce9190612b70565b60405180910390f35b6101ea6101e5366004612b4e565b61061d565b6040519081526020016101ce565b61020b610206366004612b4e565b6106a1565b6040516101ce9796959493929190612bfa565b6101ea61022c366004612d1a565b610989565b61024461023f366004612d87565b610b94565b6040516101ce989796959493929190612da9565b61026b610266366004612e2d565b610e22565b6040516101ce9190612e46565b61028b610286366004612b4e565b61114e565b6040516101ce96959493929190612f3e565b6102b06102ab366004612fb5565b6114b8565b005b6102c56102c0366004612b4e565b611651565b6040516101ce9190613096565b6101c16116fd565b6102b06102e8366004612b4e565b611755565b6101ea6102fb366004612e2d565b611980565b6102b061030e3660046130a9565b6119d2565b610326610321366004612e2d565b611ad7565b6040516101ce98979695949392919061317b565b6102b06103483660046131e4565b611c40565b61037061035b366004612b4e565b60066020526000908152604090205460ff1681565b60405190151581526020016101ce565b61037061038e366004612b4e565b6001600160a01b031660009081526006602052604090205460ff1690565b6102b06103ba36600461322a565b611fb3565b6102b06103cd366004612b4e565b6122d9565b6103e56103e0366004612e2d565b612365565b6040516101ce979695949392919061326f565b6102b06104063660046132cf565b612598565b61041361273b565b6040516101ce919061331d565b6101ea61042e366004612e2d565b612773565b6101ea60015481565b6101ea60025481565b610458610453366004612d87565b612794565b6040516101ce979695949392919061335e565b60005461047e906001600160a01b031681565b6040516001600160a01b0390911681526020016101ce565b60606000805b60075481101561051457836001600160a01b031660036000600784815481106104c7576104c76133d8565b600091825260208083209091015483528201929092526040019020600501546001600160a01b03160361050257816104fe81613404565b9250505b8061050c81613404565b91505061049c565b5060008167ffffffffffffffff81111561053057610530612c77565b604051908082528060200260200182016040528015610559578160200160208202803683370190505b5090506000805b60075481101561061357856001600160a01b0316600360006007848154811061058b5761058b6133d8565b600091825260208083209091015483528201929092526040019020600501546001600160a01b03160361060157600781815481106105cb576105cb6133d8565b90600052602060002001548383815181106105e8576105e86133d8565b6020908102919091010152816105fd81613404565b9250505b8061060b81613404565b915050610560565b5090949350505050565b600080805b60075481101561069a57836001600160a01b0316600360006007848154811061064d5761064d6133d8565b600091825260208083209091015483528201929092526040019020600501546001600160a01b031603610688578161068481613404565b9250505b8061069281613404565b915050610622565b5092915050565b6005602052600090815260409020805481906106bc9061341d565b80601f01602080910402602001604051908101604052809291908181526020018280546106e89061341d565b80156107355780601f1061070a57610100808354040283529160200191610735565b820191906000526020600020905b81548152906001019060200180831161071857829003601f168201915b50505050509080600101805461074a9061341d565b80601f01602080910402602001604051908101604052809291908181526020018280546107769061341d565b80156107c35780601f10610798576101008083540402835291602001916107c3565b820191906000526020600020905b8154815290600101906020018083116107a657829003601f168201915b5050505050908060020180546107d89061341d565b80601f01602080910402602001604051908101604052809291908181526020018280546108049061341d565b80156108515780601f1061082657610100808354040283529160200191610851565b820191906000526020600020905b81548152906001019060200180831161083457829003601f168201915b5050505050908060030180546108669061341d565b80601f01602080910402602001604051908101604052809291908181526020018280546108929061341d565b80156108df5780601f106108b4576101008083540402835291602001916108df565b820191906000526020600020905b8154815290600101906020018083116108c257829003601f168201915b5050505050908060040180546108f49061341d565b80601f01602080910402602001604051908101604052809291908181526020018280546109209061341d565b801561096d5780601f106109425761010080835404028352916020019161096d565b820191906000526020600020905b81548152906001019060200180831161095057829003601f168201915b5050506005909301549192505060ff8082169161010090041687565b3360009081526006602052604081205460ff166109c15760405162461bcd60e51b81526004016109b890613451565b60405180910390fd5b83516000036109e35760405163ecd7b0d160e01b815260040160405180910390fd5b8251600003610a055760405163ecd7b0d160e01b815260040160405180910390fd5b60018054906000610a1583613404565b9091555050600180546040805161010081018252828152602080820189815282840189905260608301889052336080840181905260a084015260c0830186905260e08301869052600085815260039092529290208151815591519293909290820190610a8190826134ec565b5060408201516002820190610a9690826134ec565b506060820151600382015560808201516004820180546001600160a01b0319166001600160a01b0392831617905560a08301516005909201805460c085015160e090950151939092166001600160a81b031990921691909117600160a01b60ff909416939093029290921760ff60a81b1916600160a81b91151591909102179055600780546001810182556000919091527fa66cc928b5edb82af9bd49922954155ab7b0942694bea4ce44661d9a8736c68801819055604051339082907fea22475394060b6c039f5cad008910b7b9160a8aee04f8f9ba666147e67ef52c90610b84908990899089906135ac565b60405180910390a3949350505050565b60046020528160005260406000208181548110610bb057600080fd5b600091825260209091206008909102018054600182015460028301546003840180549396506001600160a01b03928316955091169291610bef9061341d565b80601f0160208091040260200160405190810160405280929190818152602001828054610c1b9061341d565b8015610c685780601f10610c3d57610100808354040283529160200191610c68565b820191906000526020600020905b815481529060010190602001808311610c4b57829003601f168201915b505050505090806004018054610c7d9061341d565b80601f0160208091040260200160405190810160405280929190818152602001828054610ca99061341d565b8015610cf65780601f10610ccb57610100808354040283529160200191610cf6565b820191906000526020600020905b815481529060010190602001808311610cd957829003601f168201915b505050505090806005015490806006018054610d119061341d565b80601f0160208091040260200160405190810160405280929190818152602001828054610d3d9061341d565b8015610d8a5780601f10610d5f57610100808354040283529160200191610d8a565b820191906000526020600020905b815481529060010190602001808311610d6d57829003601f168201915b505050505090806007018054610d9f9061341d565b80601f0160208091040260200160405190810160405280929190818152602001828054610dcb9061341d565b8015610e185780601f10610ded57610100808354040283529160200191610e18565b820191906000526020600020905b815481529060010190602001808311610dfb57829003601f168201915b5050505050905088565b6000818152600360205260409020600501546060908290600160a81b900460ff16610e63576040516392691cab60e01b8152600481018290526024016109b8565b600083815260046020908152604080832080548251818502810185019093528083529193909284015b828210156111415760008481526020908190206040805161010081018252600886029092018054835260018101546001600160a01b0390811694840194909452600281015490931690820152600382018054919291606084019190610ef09061341d565b80601f0160208091040260200160405190810160405280929190818152602001828054610f1c9061341d565b8015610f695780601f10610f3e57610100808354040283529160200191610f69565b820191906000526020600020905b815481529060010190602001808311610f4c57829003601f168201915b50505050508152602001600482018054610f829061341d565b80601f0160208091040260200160405190810160405280929190818152602001828054610fae9061341d565b8015610ffb5780601f10610fd057610100808354040283529160200191610ffb565b820191906000526020600020905b815481529060010190602001808311610fde57829003601f168201915b505050505081526020016005820154815260200160068201805461101e9061341d565b80601f016020809104026020016040519081016040528092919081815260200182805461104a9061341d565b80156110975780601f1061106c57610100808354040283529160200191611097565b820191906000526020600020905b81548152906001019060200180831161107a57829003601f168201915b505050505081526020016007820180546110b09061341d565b80601f01602080910402602001604051908101604052809291908181526020018280546110dc9061341d565b80156111295780601f106110fe57610100808354040283529160200191611129565b820191906000526020600020905b81548152906001019060200180831161110c57829003601f168201915b50505050508152505081526020019060010190610e8c565b5050505091505b50919050565b606080606080606060008060056000896001600160a01b03166001600160a01b031681526020019081526020016000206040518060e00160405290816000820180546111999061341d565b80601f01602080910402602001604051908101604052809291908181526020018280546111c59061341d565b80156112125780601f106111e757610100808354040283529160200191611212565b820191906000526020600020905b8154815290600101906020018083116111f557829003601f168201915b5050505050815260200160018201805461122b9061341d565b80601f01602080910402602001604051908101604052809291908181526020018280546112579061341d565b80156112a45780601f10611279576101008083540402835291602001916112a4565b820191906000526020600020905b81548152906001019060200180831161128757829003601f168201915b505050505081526020016002820180546112bd9061341d565b80601f01602080910402602001604051908101604052809291908181526020018280546112e99061341d565b80156113365780601f1061130b57610100808354040283529160200191611336565b820191906000526020600020905b81548152906001019060200180831161131957829003601f168201915b5050505050815260200160038201805461134f9061341d565b80601f016020809104026020016040519081016040528092919081815260200182805461137b9061341d565b80156113c85780601f1061139d576101008083540402835291602001916113c8565b820191906000526020600020905b8154815290600101906020018083116113ab57829003601f168201915b505050505081526020016004820180546113e19061341d565b80601f016020809104026020016040519081016040528092919081815260200182805461140d9061341d565b801561145a5780601f1061142f5761010080835404028352916020019161145a565b820191906000526020600020905b81548152906001019060200180831161143d57829003601f168201915b50505091835250506005919091015460ff8082161515602080850191909152610100909204161515604092830152825190830151918301516060840151608085015160a090950151929d939c50909a50985091965090945092505050565b6000546001600160a01b031633146114e25760405162461bcd60e51b81526004016109b8906135e2565b6001600160a01b0386166115095760405163e6c4247b60e01b815260040160405180910390fd5b6040805160e08101825286815260208082018790528183018690526060820185905260808201849052600160a0830181905260c08301526001600160a01b03891660009081526005909152919091208151819061156690826134ec565b506020820151600182019061157b90826134ec565b506040820151600282019061159090826134ec565b50606082015160038201906115a590826134ec565b50608082015160048201906115ba90826134ec565b5060a08201516005909101805460c09093015115156101000261ff00199215159290921661ffff19909316929092171790556001600160a01b03861660008181526006602052604090819020805460ff19166001179055517f5a1a1bd8d52a28df3c36664a5968c59a58035adc8caa3077c7198f792776312c906116419088908790613623565b60405180910390a2505050505050565b6001600160a01b03811660009081526005602052604090208054606091906116789061341d565b80601f01602080910402602001604051908101604052809291908181526020018280546116a49061341d565b80156116f15780601f106116c6576101008083540402835291602001916116f1565b820191906000526020600020905b8154815290600101906020018083116116d457829003601f168201915b50505050509050919050565b6060600780548060200260200160405190810160405280929190818152602001828054801561174b57602002820191906000526020600020905b815481526020019060010190808311611737575b5050505050905090565b6000546001600160a01b0316331461177f5760405162461bcd60e51b81526004016109b8906135e2565b6001600160a01b0381166117a65760405163e6c4247b60e01b815260040160405180910390fd5b600080546001600160a01b039081168252600660208181526040808520805460ff199081169091558554851686526005808452828720810180548316905586546001600160a01b03191695881695861787558587529383528186208054909116600190811790915581516101208101835260e081018581526420b236b4b760d91b6101008301819052908252835180860185528881528286015283518085018552868152808601919091528184015282518085018452878152606082015282518084018452601481527329bcb9ba32b69020b236b4b734b9ba3930ba37b960611b81860152608082015260a0810182905260c0810191909152938552919052909120815181906118b690826134ec565b50602082015160018201906118cb90826134ec565b50604082015160028201906118e090826134ec565b50606082015160038201906118f590826134ec565b506080820151600482019061190a90826134ec565b5060a08201516005909101805460c09093015115156101000261ff00199215159290921661ffff19909316929092171790556040516001600160a01b038216907f5a1a1bd8d52a28df3c36664a5968c59a58035adc8caa3077c7198f792776312c9061197590613651565b60405180910390a250565b6000818152600360205260408120600501548290600160a81b900460ff166119be576040516392691cab60e01b8152600481018290526024016109b8565b505060009081526004602052604090205490565b3360009081526006602052604090205460ff16611a015760405162461bcd60e51b81526004016109b890613451565b336000908152600560205260409020611a1a86826134ec565b50336000908152600560205260409020600101611a3785826134ec565b50336000908152600560205260409020600201611a5484826134ec565b50336000908152600560205260409020600301611a7183826134ec565b50336000908152600560205260409020600401611a8e82826134ec565b50336001600160a01b03167f5f9fcbc17fba60677ae056851409ca727b54b90cb63be975f68684d06613b07886604051611ac89190613096565b60405180910390a25050505050565b60036020526000908152604090208054600182018054919291611af99061341d565b80601f0160208091040260200160405190810160405280929190818152602001828054611b259061341d565b8015611b725780601f10611b4757610100808354040283529160200191611b72565b820191906000526020600020905b815481529060010190602001808311611b5557829003601f168201915b505050505090806002018054611b879061341d565b80601f0160208091040260200160405190810160405280929190818152602001828054611bb39061341d565b8015611c005780601f10611bd557610100808354040283529160200191611c00565b820191906000526020600020905b815481529060010190602001808311611be357829003601f168201915b50505060038401546004850154600590950154939490936001600160a01b039182169350908116915060ff600160a01b8204811691600160a81b90041688565b6000868152600360205260409020600501548690600160a81b900460ff16611c7e576040516392691cab60e01b8152600481018290526024016109b8565b3360009081526006602052604090205460ff16611cad5760405162461bcd60e51b81526004016109b890613451565b600087815260036020526040902060058101546001600160a01b03163314611ce8576040516335cd3b6d60e01b815260040160405180910390fd5b6001600160a01b03871660009081526006602052604090205460ff16611d2157604051636e65c1bd60e01b815260040160405180910390fd5b6001600160a01b038716611d485760405163e6c4247b60e01b815260040160405180910390fd5b6005810154600090611d6590600160a01b900460ff16600161369a565b905060038160ff161115611d8c5760405163e82a532960e01b815260040160405180910390fd5b8651600003611dae5760405163ecd7b0d160e01b815260040160405180910390fd5b8551600003611dd05760405163ecd7b0d160e01b815260040160405180910390fd5b60028054906000611de083613404565b919050555060006040518061010001604052808b8152602001336001600160a01b031681526020018a6001600160a01b03168152602001898152602001888152602001428152602001878152602001868152509050600460008b81526020019081526020016000208190806001815401808255809150506001900390600052602060002090600802016000909190919091506000820151816000015560208201518160010160006101000a8154816001600160a01b0302191690836001600160a01b0316021790555060408201518160020160006101000a8154816001600160a01b0302191690836001600160a01b031602179055506060820151816003019081611eeb91906134ec565b5060808201516004820190611f0090826134ec565b5060a0820151600582015560c08201516006820190611f1f90826134ec565b5060e08201516007820190611f3490826134ec565b5050506005830180546001600160a01b038b166001600160a81b03199091168117600160a01b60ff8616021790915560405133908c907f467adaed63bfa826bc051092cee7992ecf6db053f457619d5b58c544e52dd2ee90611f9f908d908d9042908e908e906136b9565b60405180910390a450505050505050505050565b6000858152600360205260409020600501548590600160a81b900460ff16611ff1576040516392691cab60e01b8152600481018290526024016109b8565b3360009081526006602052604090205460ff166120205760405162461bcd60e51b81526004016109b890613451565b600086815260036020526040902060058101546001600160a01b0316331461205b576040516335cd3b6d60e01b815260040160405180910390fd5b6001600160a01b03861660009081526006602052604090205460ff1661209457604051636e65c1bd60e01b815260040160405180910390fd5b6001600160a01b0386166120bb5760405163e6c4247b60e01b815260040160405180910390fd5b60058101546000906120d890600160a01b900460ff16600161369a565b905060038160ff1611156120ff5760405163e82a532960e01b815260040160405180910390fd5b85516000036121215760405163ecd7b0d160e01b815260040160405180910390fd5b84516000036121435760405163ecd7b0d160e01b815260040160405180910390fd5b6002805490600061215383613404565b909155505060408051610100810182528981523360208083019182526001600160a01b038b8116848601908152606085018c8152608086018c90524260a087015260c086018b905286518085018852600080825260e08801919091528f815260048552968720805460018082018355918952949097208651600890950201938455935195830180546001600160a01b0319908116978416979097179055516002830180549096169116179093555190918291600382019061221490826134ec565b506080820151600482019061222990826134ec565b5060a0820151600582015560c0820151600682019061224890826134ec565b5060e0820151600782019061225d90826134ec565b5050506005830180546001600160a01b038a166001600160a81b03199091168117600160a01b60ff8616021790915560405133908b907f467adaed63bfa826bc051092cee7992ecf6db053f457619d5b58c544e52dd2ee906122c6908c908c9042908d90613718565b60405180910390a4505050505050505050565b6000546001600160a01b031633146123035760405162461bcd60e51b81526004016109b8906135e2565b6001600160a01b0381166000818152600660209081526040808320805460ff199081169091556005928390528184209092018054909216909155517fcfc24166db4bb677e857cacabd1541fb2b30645021b27c5130419589b84db52b9190a250565b600081815260036020526040812060050154606090819083908190819081908890600160a81b900460ff166123b0576040516392691cab60e01b8152600481018290526024016109b8565b6000600360008b815260200190815260200160002060405180610100016040529081600082015481526020016001820180546123eb9061341d565b80601f01602080910402602001604051908101604052809291908181526020018280546124179061341d565b80156124645780601f1061243957610100808354040283529160200191612464565b820191906000526020600020905b81548152906001019060200180831161244757829003601f168201915b5050505050815260200160028201805461247d9061341d565b80601f01602080910402602001604051908101604052809291908181526020018280546124a99061341d565b80156124f65780601f106124cb576101008083540402835291602001916124f6565b820191906000526020600020905b8154815290600101906020018083116124d957829003601f168201915b5050509183525050600382015460208083019190915260048301546001600160a01b0390811660408085019190915260059094015490811660608085019190915260ff600160a01b83048116608080870191909152600160a81b90930416151560a0948501528551928601519486015190860151918601519386015160c090960151929e50939c50929a50919850965090945092505050919395979092949650565b6000546001600160a01b031633146125c25760405162461bcd60e51b81526004016109b8906135e2565b6040805160e08101825282815281516020818101845260008083528184019290925283518085018552600d81526c155b98d85d1959dbdc9a5e9959609a1b8183015283850152835180820185528281526060840152835180820185528281526080840152600160a0840181905260c08401526001600160a01b038616825260059052919091208151819061265690826134ec565b506020820151600182019061266b90826134ec565b506040820151600282019061268090826134ec565b506060820151600382019061269590826134ec565b50608082015160048201906126aa90826134ec565b5060a08201516005909101805460c09093015115156101000261ff00199215159290921661ffff19909316929092171790556001600160a01b03821660008181526006602052604090819020805460ff19166001179055517f5a1a1bd8d52a28df3c36664a5968c59a58035adc8caa3077c7198f792776312c9061272f908490613774565b60405180910390a25050565b60606000805b60075481101561275d578061275581613404565b915050612741565b5050604080516000815260208101909152919050565b6007818154811061278357600080fd5b600091825260209091200154905081565b600082815260036020526040812060050154819060609081908390829081908990600160a81b900460ff166127df576040516392691cab60e01b8152600481018290526024016109b8565b60008a81526004602052604090205489106128325760405162461bcd60e51b8152602060048201526013602482015272496e646578206f7574206f6620626f756e647360681b60448201526064016109b8565b60008a815260046020526040812080548b908110612852576128526133d8565b6000918252602091829020604080516101008101825260089093029091018054835260018101546001600160a01b03908116948401949094526002810154909316908201526003820180549192916060840191906128af9061341d565b80601f01602080910402602001604051908101604052809291908181526020018280546128db9061341d565b80156129285780601f106128fd57610100808354040283529160200191612928565b820191906000526020600020905b81548152906001019060200180831161290b57829003601f168201915b505050505081526020016004820180546129419061341d565b80601f016020809104026020016040519081016040528092919081815260200182805461296d9061341d565b80156129ba5780601f1061298f576101008083540402835291602001916129ba565b820191906000526020600020905b81548152906001019060200180831161299d57829003601f168201915b50505050508152602001600582015481526020016006820180546129dd9061341d565b80601f0160208091040260200160405190810160405280929190818152602001828054612a099061341d565b8015612a565780601f10612a2b57610100808354040283529160200191612a56565b820191906000526020600020905b815481529060010190602001808311612a3957829003601f168201915b50505050508152602001600782018054612a6f9061341d565b80601f0160208091040260200160405190810160405280929190818152602001828054612a9b9061341d565b8015612ae85780601f10612abd57610100808354040283529160200191612ae8565b820191906000526020600020905b815481529060010190602001808311612acb57829003601f168201915b505050505081525050905080602001518160400151826060015183608001518460a001518560c001518660e001519850985098509850985098509850505092959891949750929550565b80356001600160a01b0381168114612b4957600080fd5b919050565b600060208284031215612b6057600080fd5b612b6982612b32565b9392505050565b6020808252825182820181905260009190848201906040850190845b81811015612ba857835183529284019291840191600101612b8c565b50909695505050505050565b6000815180845260005b81811015612bda57602081850181015186830182015201612bbe565b506000602082860101526020601f19601f83011685010191505092915050565b60e081526000612c0d60e083018a612bb4565b8281036020840152612c1f818a612bb4565b90508281036040840152612c338189612bb4565b90508281036060840152612c478188612bb4565b90508281036080840152612c5b8187612bb4565b94151560a0840152505090151560c09091015295945050505050565b634e487b7160e01b600052604160045260246000fd5b600082601f830112612c9e57600080fd5b813567ffffffffffffffff80821115612cb957612cb9612c77565b604051601f8301601f19908116603f01168101908282118183101715612ce157612ce1612c77565b81604052838152866020858801011115612cfa57600080fd5b836020870160208301376000602085830101528094505050505092915050565b600080600060608486031215612d2f57600080fd5b833567ffffffffffffffff80821115612d4757600080fd5b612d5387838801612c8d565b94506020860135915080821115612d6957600080fd5b50612d7686828701612c8d565b925050604084013590509250925092565b60008060408385031215612d9a57600080fd5b50508035926020909101359150565b8881526001600160a01b0388811660208301528716604082015261010060608201819052600090612ddc83820189612bb4565b90508281036080840152612df08188612bb4565b90508560a084015282810360c0840152612e0a8186612bb4565b905082810360e0840152612e1e8185612bb4565b9b9a5050505050505050505050565b600060208284031215612e3f57600080fd5b5035919050565b60006020808301818452808551808352604092508286019150828160051b87010184880160005b83811015612f3057603f19898403018552815180518452878101516001600160a01b03908116898601528782015116878501526060808201516101008287018190529190612ebd83880182612bb4565b9250505060808083015186830382880152612ed88382612bb4565b9250505060a080830151818701525060c08083015186830382880152612efe8382612bb4565b9250505060e08083015192508582038187015250612f1c8183612bb4565b968901969450505090860190600101612e6d565b509098975050505050505050565b60c081526000612f5160c0830189612bb4565b8281036020840152612f638189612bb4565b90508281036040840152612f778188612bb4565b90508281036060840152612f8b8187612bb4565b90508281036080840152612f9f8186612bb4565b91505082151560a0830152979650505050505050565b60008060008060008060c08789031215612fce57600080fd5b612fd787612b32565b9550602087013567ffffffffffffffff80821115612ff457600080fd5b6130008a838b01612c8d565b9650604089013591508082111561301657600080fd5b6130228a838b01612c8d565b9550606089013591508082111561303857600080fd5b6130448a838b01612c8d565b9450608089013591508082111561305a57600080fd5b6130668a838b01612c8d565b935060a089013591508082111561307c57600080fd5b5061308989828a01612c8d565b9150509295509295509295565b602081526000612b696020830184612bb4565b600080600080600060a086880312156130c157600080fd5b853567ffffffffffffffff808211156130d957600080fd5b6130e589838a01612c8d565b965060208801359150808211156130fb57600080fd5b61310789838a01612c8d565b9550604088013591508082111561311d57600080fd5b61312989838a01612c8d565b9450606088013591508082111561313f57600080fd5b61314b89838a01612c8d565b9350608088013591508082111561316157600080fd5b5061316e88828901612c8d565b9150509295509295909350565b60006101008a83528060208401526131958184018b612bb4565b905082810360408401526131a9818a612bb4565b606084019890985250506001600160a01b0394851660808201529290931660a083015260ff1660c082015290151560e0909101529392505050565b60008060008060008060c087890312156131fd57600080fd5b8635955061320d60208801612b32565b9450604087013567ffffffffffffffff8082111561301657600080fd5b600080600080600060a0868803121561324257600080fd5b8535945061325260208701612b32565b9350604086013567ffffffffffffffff8082111561311d57600080fd5b87815260e06020820152600061328860e0830189612bb4565b828103604084015261329a8189612bb4565b606084019790975250506001600160a01b0393841660808201529190921660a082015260ff90911660c0909101529392505050565b600080604083850312156132e257600080fd5b6132eb83612b32565b9150602083013567ffffffffffffffff81111561330757600080fd5b61331385828601612c8d565b9150509250929050565b6020808252825182820181905260009190848201906040850190845b81811015612ba85783516001600160a01b031683529284019291840191600101613339565b6001600160a01b0388811682528716602082015260e06040820181905260009061338a90830188612bb4565b828103606084015261339c8188612bb4565b905085608084015282810360a08401526133b68186612bb4565b905082810360c08401526133ca8185612bb4565b9a9950505050505050505050565b634e487b7160e01b600052603260045260246000fd5b634e487b7160e01b600052601160045260246000fd5b600060018201613416576134166133ee565b5060010190565b600181811c9082168061343157607f821691505b60208210810361114857634e487b7160e01b600052602260045260246000fd5b6020808252602c908201527f4f6e6c7920617574686f72697a6564206e6f6465732063616e2063616c6c207460408201526b3434b990333ab731ba34b7b760a11b606082015260800190565b601f8211156134e757600081815260208120601f850160051c810160208610156134c45750805b601f850160051c820191505b818110156134e3578281556001016134d0565b5050505b505050565b815167ffffffffffffffff81111561350657613506612c77565b61351a81613514845461341d565b8461349d565b602080601f83116001811461354f57600084156135375750858301515b600019600386901b1c1916600185901b1785556134e3565b600085815260208120601f198616915b8281101561357e5788860151825594840194600190910190840161355f565b508582101561359c5787850151600019600388901b60f8161c191681555b5050505050600190811b01905550565b6060815260006135bf6060830186612bb4565b82810360208401526135d18186612bb4565b915050826040830152949350505050565b60208082526021908201527f4f6e6c792061646d696e2063616e2063616c6c20746869732066756e6374696f6040820152603760f91b606082015260800190565b6040815260006136366040830185612bb4565b82810360208401526136488185612bb4565b95945050505050565b60408152600061367660408301600581526420b236b4b760d91b602082015260400190565b8281036020840152612b6981600581526420b236b4b760d91b602082015260400190565b60ff81811683821601908111156136b3576136b36133ee565b92915050565b60a0815260006136cc60a0830188612bb4565b82810360208401526136de8188612bb4565b905085604084015282810360608401526136f88186612bb4565b9050828103608084015261370c8185612bb4565b98975050505050505050565b60a08152600061372b60a0830187612bb4565b828103602084015261373d8187612bb4565b905084604084015282810360608401526137578185612bb4565b838103608090940193909352505060008152602001949350505050565b6040815260006137876040830184612bb4565b8281036020840152600d81526c155b98d85d1959dbdc9a5e9959609a1b6020820152604081019150509291505056fea264697066735822122002151c3d21ebeb64294722a9561d978f2fd7c79a43ac4a94e88bb2cb97fad9dc64736f6c63430008140033","opcodes":"PUSH1 0x80 PUSH1 0x40 MSTORE CALLVALUE DUP1 ISZERO PUSH3 0x11 JUMPI PUSH1 0x0 DUP1 REVERT JUMPDEST POP PUSH1 0x0 DUP1 SLOAD PUSH1 0x1 PUSH1 0x1 PUSH1 0xA0 SHL SUB NOT AND CALLER SWAP1 DUP2 OR DUP3 SSTORE PUSH1 0x40 DUP1 MLOAD PUSH2 0x120 DUP2 ADD DUP3 MSTORE PUSH1 0x5 PUSH1 0xE0 DUP3 ADD DUP2 DUP2 MSTORE PUSH5 0x20B236B4B7 PUSH1 0xD9 SHL PUSH2 0x100 DUP5 ADD DUP2 SWAP1 MSTORE SWAP1 DUP4 MSTORE DUP4 MLOAD PUSH1 0x20 DUP2 DUP2 ADD DUP7 MSTORE DUP8 DUP3 MSTORE DUP1 DUP6 ADD SWAP2 SWAP1 SWAP2 MSTORE DUP5 MLOAD DUP1 DUP7 ADD DUP7 MSTORE DUP4 DUP2 MSTORE DUP1 DUP3 ADD SWAP3 SWAP1 SWAP3 MSTORE DUP4 DUP6 ADD SWAP2 SWAP1 SWAP2 MSTORE DUP4 MLOAD DUP1 DUP3 ADD DUP6 MSTORE DUP7 DUP2 MSTORE PUSH1 0x60 DUP5 ADD MSTORE DUP4 MLOAD DUP1 DUP6 ADD DUP6 MSTORE PUSH1 0x14 DUP2 MSTORE PUSH32 0x53797374656D2041646D696E6973747261746F72000000000000000000000000 DUP2 DUP4 ADD MSTORE PUSH1 0x80 DUP5 ADD MSTORE PUSH1 0x1 PUSH1 0xA0 DUP5 ADD DUP2 SWAP1 MSTORE PUSH1 0xC0 DUP5 ADD MSTORE SWAP4 DUP6 MSTORE SWAP1 SWAP3 MSTORE SWAP1 SWAP2 KECCAK256 DUP2 MLOAD DUP2 SWAP1 PUSH3 0xE4 SWAP1 DUP3 PUSH3 0x26F JUMP JUMPDEST POP PUSH1 0x20 DUP3 ADD MLOAD PUSH1 0x1 DUP3 ADD SWAP1 PUSH3 0xFB SWAP1 DUP3 PUSH3 0x26F JUMP JUMPDEST POP PUSH1 0x40 DUP3 ADD MLOAD PUSH1 0x2 DUP3 ADD SWAP1 PUSH3 0x112 SWAP1 DUP3 PUSH3 0x26F JUMP JUMPDEST POP PUSH1 0x60 DUP3 ADD MLOAD PUSH1 0x3 DUP3 ADD SWAP1 PUSH3 0x129 SWAP1 DUP3 PUSH3 0x26F JUMP JUMPDEST POP PUSH1 0x80 DUP3 ADD MLOAD PUSH1 0x4 DUP3 ADD SWAP1 PUSH3 0x140 SWAP1 DUP3 PUSH3 0x26F JUMP JUMPDEST POP PUSH1 0xA0 DUP3 ADD MLOAD PUSH1 0x5 SWAP1 SWAP2 ADD DUP1 SLOAD PUSH1 0xC0 SWAP1 SWAP4 ADD MLOAD ISZERO ISZERO PUSH2 0x100 MUL PUSH2 0xFF00 NOT SWAP3 ISZERO ISZERO SWAP3 SWAP1 SWAP3 AND PUSH2 0xFFFF NOT SWAP1 SWAP4 AND SWAP3 SWAP1 SWAP3 OR OR SWAP1 SSTORE CALLER PUSH1 0x0 DUP2 DUP2 MSTORE PUSH1 0x6 PUSH1 0x20 MSTORE PUSH1 0x40 SWAP1 DUP2 SWAP1 KECCAK256 DUP1 SLOAD PUSH1 0xFF NOT AND PUSH1 0x1 OR SWAP1 SSTORE MLOAD PUSH32 0x5A1A1BD8D52A28DF3C36664A5968C59A58035ADC8CAA3077C7198F792776312C SWAP1 PUSH3 0x1BC SWAP1 PUSH3 0x33B JUMP JUMPDEST PUSH1 0x40 MLOAD DUP1 SWAP2 SUB SWAP1 LOG2 PUSH3 0x38D JUMP JUMPDEST PUSH4 0x4E487B71 PUSH1 0xE0 SHL PUSH1 0x0 MSTORE PUSH1 0x41 PUSH1 0x4 MSTORE PUSH1 0x24 PUSH1 0x0 REVERT JUMPDEST PUSH1 0x1 DUP2 DUP2 SHR SWAP1 DUP3 AND DUP1 PUSH3 0x1F5 JUMPI PUSH1 0x7F DUP3 AND SWAP2 POP JUMPDEST PUSH1 0x20 DUP3 LT DUP2 SUB PUSH3 0x216 JUMPI PUSH4 0x4E487B71 PUSH1 0xE0 SHL PUSH1 0x0 MSTORE PUSH1 0x22 PUSH1 0x4 MSTORE PUSH1 0x24 PUSH1 0x0 REVERT JUMPDEST POP SWAP2 SWAP1 POP JUMP JUMPDEST PUSH1 0x1F DUP3 GT ISZERO PUSH3 0x26A JUMPI PUSH1 0x0 DUP2 DUP2 MSTORE PUSH1 0x20 DUP2 KECCAK256 PUSH1 0x1F DUP6 ADD PUSH1 0x5 SHR DUP2 ADD PUSH1 0x20 DUP7 LT ISZERO PUSH3 0x245 JUMPI POP DUP1 JUMPDEST PUSH1 0x1F DUP6 ADD PUSH1 0x5 SHR DUP3 ADD SWAP2 POP JUMPDEST DUP2 DUP2 LT ISZERO PUSH3 0x266 JUMPI DUP3 DUP2 SSTORE PUSH1 0x1 ADD PUSH3 0x251 JUMP JUMPDEST POP POP POP JUMPDEST POP POP POP JUMP JUMPDEST DUP2 MLOAD PUSH1 0x1 PUSH1 0x1 PUSH1 0x40 SHL SUB DUP2 GT ISZERO PUSH3 0x28B JUMPI PUSH3 0x28B PUSH3 0x1CA JUMP JUMPDEST PUSH3 0x2A3 DUP2 PUSH3 0x29C DUP5 SLOAD PUSH3 0x1E0 JUMP JUMPDEST DUP5 PUSH3 0x21C JUMP JUMPDEST PUSH1 0x20 DUP1 PUSH1 0x1F DUP4 GT PUSH1 0x1 DUP2 EQ PUSH3 0x2DB JUMPI PUSH1 0x0 DUP5 ISZERO PUSH3 0x2C2 JUMPI POP DUP6 DUP4 ADD MLOAD JUMPDEST PUSH1 0x0 NOT PUSH1 0x3 DUP7 SWAP1 SHL SHR NOT AND PUSH1 0x1 DUP6 SWAP1 SHL OR DUP6 SSTORE PUSH3 0x266 JUMP JUMPDEST PUSH1 0x0 DUP6 DUP2 MSTORE PUSH1 0x20 DUP2 KECCAK256 PUSH1 0x1F NOT DUP7 AND SWAP2 JUMPDEST DUP3 DUP2 LT ISZERO PUSH3 0x30C JUMPI DUP9 DUP7 ADD MLOAD DUP3 SSTORE SWAP5 DUP5 ADD SWAP5 PUSH1 0x1 SWAP1 SWAP2 ADD SWAP1 DUP5 ADD PUSH3 0x2EB JUMP JUMPDEST POP DUP6 DUP3 LT ISZERO PUSH3 0x32B JUMPI DUP8 DUP6 ADD MLOAD PUSH1 0x0 NOT PUSH1 0x3 DUP9 SWAP1 SHL PUSH1 0xF8 AND SHR NOT AND DUP2 SSTORE JUMPDEST POP POP POP POP POP PUSH1 0x1 SWAP1 DUP2 SHL ADD SWAP1 SSTORE POP JUMP JUMPDEST PUSH1 0x40 DUP2 MSTORE PUSH1 0x0 PUSH3 0x361 PUSH1 0x40 DUP4 ADD PUSH1 0x5 DUP2 MSTORE PUSH5 0x20B236B4B7 PUSH1 0xD9 SHL PUSH1 0x20 DUP3 ADD MSTORE PUSH1 0x40 ADD SWAP1 JUMP JUMPDEST DUP3 DUP2 SUB PUSH1 0x20 DUP5 ADD MSTORE PUSH3 0x386 DUP2 PUSH1 0x5 DUP2 MSTORE PUSH5 0x20B236B4B7 PUSH1 0xD9 SHL PUSH1 0x20 DUP3 ADD MSTORE PUSH1 0x40 ADD SWAP1 JUMP JUMPDEST SWAP4 SWAP3 POP POP POP JUMP JUMPDEST PUSH2 0x37EC DUP1 PUSH3 0x39D PUSH1 0x0 CODECOPY PUSH1 0x0 RETURN INVALID PUSH1 0x80 PUSH1 0x40 MSTORE CALLVALUE DUP1 ISZERO PUSH2 0x10 JUMPI PUSH1 0x0 DUP1 REVERT JUMPDEST POP PUSH1 0x4 CALLDATASIZE LT PUSH2 0x1A9 JUMPI PUSH1 0x0 CALLDATALOAD PUSH1 0xE0 SHR DUP1 PUSH4 0x7ACC0B20 GT PUSH2 0xF9 JUMPI DUP1 PUSH4 0xC1583F80 GT PUSH2 0x97 JUMPI DUP1 PUSH4 0xE0F6EF87 GT PUSH2 0x71 JUMPI DUP1 PUSH4 0xE0F6EF87 EQ PUSH2 0x433 JUMPI DUP1 PUSH4 0xE3D33FC9 EQ PUSH2 0x43C JUMPI DUP1 PUSH4 0xEAAFD39F EQ PUSH2 0x445 JUMPI DUP1 PUSH4 0xF851A440 EQ PUSH2 0x46B JUMPI PUSH1 0x0 DUP1 REVERT JUMPDEST DUP1 PUSH4 0xC1583F80 EQ PUSH2 0x3F8 JUMPI DUP1 PUSH4 0xD783778C EQ PUSH2 0x40B JUMPI DUP1 PUSH4 0xDDE1BBCF EQ PUSH2 0x420 JUMPI PUSH1 0x0 DUP1 REVERT JUMPDEST DUP1 PUSH4 0x98C5FCAF GT PUSH2 0xD3 JUMPI DUP1 PUSH4 0x98C5FCAF EQ PUSH2 0x380 JUMPI DUP1 PUSH4 0xAE02EF1A EQ PUSH2 0x3AC JUMPI DUP1 PUSH4 0xB2B99EC9 EQ PUSH2 0x3BF JUMPI DUP1 PUSH4 0xB9DB15B4 EQ PUSH2 0x3D2 JUMPI PUSH1 0x0 DUP1 REVERT JUMPDEST DUP1 PUSH4 0x7ACC0B20 EQ PUSH2 0x313 JUMPI DUP1 PUSH4 0x7B62735A EQ PUSH2 0x33A JUMPI DUP1 PUSH4 0x7E53A740 EQ PUSH2 0x34D JUMPI PUSH1 0x0 DUP1 REVERT JUMPDEST DUP1 PUSH4 0x582115FB GT PUSH2 0x166 JUMPI DUP1 PUSH4 0x663C01AF GT PUSH2 0x140 JUMPI DUP1 PUSH4 0x663C01AF EQ PUSH2 0x2D2 JUMPI DUP1 PUSH4 0x75829DEF EQ PUSH2 0x2DA JUMPI DUP1 PUSH4 0x78347712 EQ PUSH2 0x2ED JUMPI DUP1 PUSH4 0x7A1317EF EQ PUSH2 0x300 JUMPI PUSH1 0x0 DUP1 REVERT JUMPDEST DUP1 PUSH4 0x582115FB EQ PUSH2 0x278 JUMPI DUP1 PUSH4 0x5A49CFB3 EQ PUSH2 0x29D JUMPI DUP1 PUSH4 0x5D1216D6 EQ PUSH2 0x2B2 JUMPI PUSH1 0x0 DUP1 REVERT JUMPDEST DUP1 PUSH4 0xFECEF48 EQ PUSH2 0x1AE JUMPI DUP1 PUSH4 0x1BED4E38 EQ PUSH2 0x1D7 JUMPI DUP1 PUSH4 0x23C2E2BC EQ PUSH2 0x1F8 JUMPI DUP1 PUSH4 0x3153A15B EQ PUSH2 0x21E JUMPI DUP1 PUSH4 0x3A7D2376 EQ PUSH2 0x231 JUMPI DUP1 PUSH4 0x57A096A1 EQ PUSH2 0x258 JUMPI JUMPDEST PUSH1 0x0 DUP1 REVERT JUMPDEST PUSH2 0x1C1 PUSH2 0x1BC CALLDATASIZE PUSH1 0x4 PUSH2 0x2B4E JUMP JUMPDEST PUSH2 0x496 JUMP JUMPDEST PUSH1 0x40 MLOAD PUSH2 0x1CE SWAP2 SWAP1 PUSH2 0x2B70 JUMP JUMPDEST PUSH1 0x40 MLOAD DUP1 SWAP2 SUB SWAP1 RETURN JUMPDEST PUSH2 0x1EA PUSH2 0x1E5 CALLDATASIZE PUSH1 0x4 PUSH2 0x2B4E JUMP JUMPDEST PUSH2 0x61D JUMP JUMPDEST PUSH1 0x40 MLOAD SWAP1 DUP2 MSTORE PUSH1 0x20 ADD PUSH2 0x1CE JUMP JUMPDEST PUSH2 0x20B PUSH2 0x206 CALLDATASIZE PUSH1 0x4 PUSH2 0x2B4E JUMP JUMPDEST PUSH2 0x6A1 JUMP JUMPDEST PUSH1 0x40 MLOAD PUSH2 0x1CE SWAP8 SWAP7 SWAP6 SWAP5 SWAP4 SWAP3 SWAP2 SWAP1 PUSH2 0x2BFA JUMP JUMPDEST PUSH2 0x1EA PUSH2 0x22C CALLDATASIZE PUSH1 0x4 PUSH2 0x2D1A JUMP JUMPDEST PUSH2 0x989 JUMP JUMPDEST PUSH2 0x244 PUSH2 0x23F CALLDATASIZE PUSH1 0x4 PUSH2 0x2D87 JUMP JUMPDEST PUSH2 0xB94 JUMP JUMPDEST PUSH1 0x40 MLOAD PUSH2 0x1CE SWAP9 SWAP8 SWAP7 SWAP6 SWAP5 SWAP4 SWAP3 SWAP2 SWAP1 PUSH2 0x2DA9 JUMP JUMPDEST PUSH2 0x26B PUSH2 0x266 CALLDATASIZE PUSH1 0x4 PUSH2 0x2E2D JUMP JUMPDEST PUSH2 0xE22 JUMP JUMPDEST PUSH1 0x40 MLOAD PUSH2 0x1CE SWAP2 SWAP1 PUSH2 0x2E46 JUMP JUMPDEST PUSH2 0x28B PUSH2 0x286 CALLDATASIZE PUSH1 0x4 PUSH2 0x2B4E JUMP JUMPDEST PUSH2 0x114E JUMP JUMPDEST PUSH1 0x40 MLOAD PUSH2 0x1CE SWAP7 SWAP6 SWAP5 SWAP4 SWAP3 SWAP2 SWAP1 PUSH2 0x2F3E JUMP JUMPDEST PUSH2 0x2B0 PUSH2 0x2AB CALLDATASIZE PUSH1 0x4 PUSH2 0x2FB5 JUMP JUMPDEST PUSH2 0x14B8 JUMP JUMPDEST STOP JUMPDEST PUSH2 0x2C5 PUSH2 0x2C0 CALLDATASIZE PUSH1 0x4 PUSH2 0x2B4E JUMP JUMPDEST PUSH2 0x1651 JUMP JUMPDEST PUSH1 0x40 MLOAD PUSH2 0x1CE SWAP2 SWAP1 PUSH2 0x3096 JUMP JUMPDEST PUSH2 0x1C1 PUSH2 0x16FD JUMP JUMPDEST PUSH2 0x2B0 PUSH2 0x2E8 CALLDATASIZE PUSH1 0x4 PUSH2 0x2B4E JUMP JUMPDEST PUSH2 0x1755 JUMP JUMPDEST PUSH2 0x1EA PUSH2 0x2FB CALLDATASIZE PUSH1 0x4 PUSH2 0x2E2D JUMP JUMPDEST PUSH2 0x1980 JUMP JUMPDEST PUSH2 0x2B0 PUSH2 0x30E CALLDATASIZE PUSH1 0x4 PUSH2 0x30A9 JUMP JUMPDEST PUSH2 0x19D2 JUMP JUMPDEST PUSH2 0x326 PUSH2 0x321 CALLDATASIZE PUSH1 0x4 PUSH2 0x2E2D JUMP JUMPDEST PUSH2 0x1AD7 JUMP JUMPDEST PUSH1 0x40 MLOAD PUSH2 0x1CE SWAP9 SWAP8 SWAP7 SWAP6 SWAP5 SWAP4 SWAP3 SWAP2 SWAP1 PUSH2 0x317B JUMP JUMPDEST PUSH2 0x2B0 PUSH2 0x348 CALLDATASIZE PUSH1 0x4 PUSH2 0x31E4 JUMP JUMPDEST PUSH2 0x1C40 JUMP JUMPDEST PUSH2 0x370 PUSH2 0x35B CALLDATASIZE PUSH1 0x4 PUSH2 0x2B4E JUMP JUMPDEST PUSH1 0x6 PUSH1 0x20 MSTORE PUSH1 0x0 SWAP1 DUP2 MSTORE PUSH1 0x40 SWAP1 KECCAK256 SLOAD PUSH1 0xFF AND DUP2 JUMP JUMPDEST PUSH1 0x40 MLOAD SWAP1 ISZERO ISZERO DUP2 MSTORE PUSH1 0x20 ADD PUSH2 0x1CE JUMP JUMPDEST PUSH2 0x370 PUSH2 0x38E CALLDATASIZE PUSH1 0x4 PUSH2 0x2B4E JUMP JUMPDEST PUSH1 0x1 PUSH1 0x1 PUSH1 0xA0 SHL SUB AND PUSH1 0x0 SWAP1 DUP2 MSTORE PUSH1 0x6 PUSH1 0x20 MSTORE PUSH1 0x40 SWAP1 KECCAK256 SLOAD PUSH1 0xFF AND SWAP1 JUMP JUMPDEST PUSH2 0x2B0 PUSH2 0x3BA CALLDATASIZE PUSH1 0x4 PUSH2 0x322A JUMP JUMPDEST PUSH2 0x1FB3 JUMP JUMPDEST PUSH2 0x2B0 PUSH2 0x3CD CALLDATASIZE PUSH1 0x4 PUSH2 0x2B4E JUMP JUMPDEST PUSH2 0x22D9 JUMP JUMPDEST PUSH2 0x3E5 PUSH2 0x3E0 CALLDATASIZE PUSH1 0x4 PUSH2 0x2E2D JUMP JUMPDEST PUSH2 0x2365 JUMP JUMPDEST PUSH1 0x40 MLOAD PUSH2 0x1CE SWAP8 SWAP7 SWAP6 SWAP5 SWAP4 SWAP3 SWAP2 SWAP1 PUSH2 0x326F JUMP JUMPDEST PUSH2 0x2B0 PUSH2 0x406 CALLDATASIZE PUSH1 0x4 PUSH2 0x32CF JUMP JUMPDEST PUSH2 0x2598 JUMP JUMPDEST PUSH2 0x413 PUSH2 0x273B JUMP JUMPDEST PUSH1 0x40 MLOAD PUSH2 0x1CE SWAP2 SWAP1 PUSH2 0x331D JUMP JUMPDEST PUSH2 0x1EA PUSH2 0x42E CALLDATASIZE PUSH1 0x4 PUSH2 0x2E2D JUMP JUMPDEST PUSH2 0x2773 JUMP JUMPDEST PUSH2 0x1EA PUSH1 0x1 SLOAD DUP2 JUMP JUMPDEST PUSH2 0x1EA PUSH1 0x2 SLOAD DUP2 JUMP JUMPDEST PUSH2 0x458 PUSH2 0x453 CALLDATASIZE PUSH1 0x4 PUSH2 0x2D87 JUMP JUMPDEST PUSH2 0x2794 JUMP JUMPDEST PUSH1 0x40 MLOAD PUSH2 0x1CE SWAP8 SWAP7 SWAP6 SWAP5 SWAP4 SWAP3 SWAP2 SWAP1 PUSH2 0x335E JUMP JUMPDEST PUSH1 0x0 SLOAD PUSH2 0x47E SWAP1 PUSH1 0x1 PUSH1 0x1 PUSH1 0xA0 SHL SUB AND DUP2 JUMP JUMPDEST PUSH1 0x40 MLOAD PUSH1 0x1 PUSH1 0x1 PUSH1 0xA0 SHL SUB SWAP1 SWAP2 AND DUP2 MSTORE PUSH1 0x20 ADD PUSH2 0x1CE JUMP JUMPDEST PUSH1 0x60 PUSH1 0x0 DUP1 JUMPDEST PUSH1 0x7 SLOAD DUP2 LT ISZERO PUSH2 0x514 JUMPI DUP4 PUSH1 0x1 PUSH1 0x1 PUSH1 0xA0 SHL SUB AND PUSH1 0x3 PUSH1 0x0 PUSH1 0x7 DUP5 DUP2 SLOAD DUP2 LT PUSH2 0x4C7 JUMPI PUSH2 0x4C7 PUSH2 0x33D8 JUMP JUMPDEST PUSH1 0x0 SWAP2 DUP3 MSTORE PUSH1 0x20 DUP1 DUP4 KECCAK256 SWAP1 SWAP2 ADD SLOAD DUP4 MSTORE DUP3 ADD SWAP3 SWAP1 SWAP3 MSTORE PUSH1 0x40 ADD SWAP1 KECCAK256 PUSH1 0x5 ADD SLOAD PUSH1 0x1 PUSH1 0x1 PUSH1 0xA0 SHL SUB AND SUB PUSH2 0x502 JUMPI DUP2 PUSH2 0x4FE DUP2 PUSH2 0x3404 JUMP JUMPDEST SWAP3 POP POP JUMPDEST DUP1 PUSH2 0x50C DUP2 PUSH2 0x3404 JUMP JUMPDEST SWAP2 POP POP PUSH2 0x49C JUMP JUMPDEST POP PUSH1 0x0 DUP2 PUSH8 0xFFFFFFFFFFFFFFFF DUP2 GT ISZERO PUSH2 0x530 JUMPI PUSH2 0x530 PUSH2 0x2C77 JUMP JUMPDEST PUSH1 0x40 MLOAD SWAP1 DUP1 DUP3 MSTORE DUP1 PUSH1 0x20 MUL PUSH1 0x20 ADD DUP3 ADD PUSH1 0x40 MSTORE DUP1 ISZERO PUSH2 0x559 JUMPI DUP2 PUSH1 0x20 ADD PUSH1 0x20 DUP3 MUL DUP1 CALLDATASIZE DUP4 CALLDATACOPY ADD SWAP1 POP JUMPDEST POP SWAP1 POP PUSH1 0x0 DUP1 JUMPDEST PUSH1 0x7 SLOAD DUP2 LT ISZERO PUSH2 0x613 JUMPI DUP6 PUSH1 0x1 PUSH1 0x1 PUSH1 0xA0 SHL SUB AND PUSH1 0x3 PUSH1 0x0 PUSH1 0x7 DUP5 DUP2 SLOAD DUP2 LT PUSH2 0x58B JUMPI PUSH2 0x58B PUSH2 0x33D8 JUMP JUMPDEST PUSH1 0x0 SWAP2 DUP3 MSTORE PUSH1 0x20 DUP1 DUP4 KECCAK256 SWAP1 SWAP2 ADD SLOAD DUP4 MSTORE DUP3 ADD SWAP3 SWAP1 SWAP3 MSTORE PUSH1 0x40 ADD SWAP1 KECCAK256 PUSH1 0x5 ADD SLOAD PUSH1 0x1 PUSH1 0x1 PUSH1 0xA0 SHL SUB AND SUB PUSH2 0x601 JUMPI PUSH1 0x7 DUP2 DUP2 SLOAD DUP2 LT PUSH2 0x5CB JUMPI PUSH2 0x5CB PUSH2 0x33D8 JUMP JUMPDEST SWAP1 PUSH1 0x0 MSTORE PUSH1 0x20 PUSH1 0x0 KECCAK256 ADD SLOAD DUP4 DUP4 DUP2 MLOAD DUP2 LT PUSH2 0x5E8 JUMPI PUSH2 0x5E8 PUSH2 0x33D8 JUMP JUMPDEST PUSH1 0x20 SWAP1 DUP2 MUL SWAP2 SWAP1 SWAP2 ADD ADD MSTORE DUP2 PUSH2 0x5FD DUP2 PUSH2 0x3404 JUMP JUMPDEST SWAP3 POP POP JUMPDEST DUP1 PUSH2 0x60B DUP2 PUSH2 0x3404 JUMP JUMPDEST SWAP2 POP POP PUSH2 0x560 JUMP JUMPDEST POP SWAP1 SWAP5 SWAP4 POP POP POP POP JUMP JUMPDEST PUSH1 0x0 DUP1 DUP1 JUMPDEST PUSH1 0x7 SLOAD DUP2 LT ISZERO PUSH2 0x69A JUMPI DUP4 PUSH1 0x1 PUSH1 0x1 PUSH1 0xA0 SHL SUB AND PUSH1 0x3 PUSH1 0x0 PUSH1 0x7 DUP5 DUP2 SLOAD DUP2 LT PUSH2 0x64D JUMPI PUSH2 0x64D PUSH2 0x33D8 JUMP JUMPDEST PUSH1 0x0 SWAP2 DUP3 MSTORE PUSH1 0x20 DUP1 DUP4 KECCAK256 SWAP1 SWAP2 ADD SLOAD DUP4 MSTORE DUP3 ADD SWAP3 SWAP1 SWAP3 MSTORE PUSH1 0x40 ADD SWAP1 KECCAK256 PUSH1 0x5 ADD SLOAD PUSH1 0x1 PUSH1 0x1 PUSH1 0xA0 SHL SUB AND SUB PUSH2 0x688 JUMPI DUP2 PUSH2 0x684 DUP2 PUSH2 0x3404 JUMP JUMPDEST SWAP3 POP POP JUMPDEST DUP1 PUSH2 0x692 DUP2 PUSH2 0x3404 JUMP JUMPDEST SWAP2 POP POP PUSH2 0x622 JUMP JUMPDEST POP SWAP3 SWAP2 POP POP JUMP JUMPDEST PUSH1 0x5 PUSH1 0x20 MSTORE PUSH1 0x0 SWAP1 DUP2 MSTORE PUSH1 0x40 SWAP1 KECCAK256 DUP1 SLOAD DUP2 SWAP1 PUSH2 0x6BC SWAP1 PUSH2 0x341D JUMP JUMPDEST DUP1 PUSH1 0x1F ADD PUSH1 0x20 DUP1 SWAP2 DIV MUL PUSH1 0x20 ADD PUSH1 0x40 MLOAD SWAP1 DUP2 ADD PUSH1 0x40 MSTORE DUP1 SWAP3 SWAP2 SWAP1 DUP2 DUP2 MSTORE PUSH1 0x20 ADD DUP3 DUP1 SLOAD PUSH2 0x6E8 SWAP1 PUSH2 0x341D JUMP JUMPDEST DUP1 ISZERO PUSH2 0x735 JUMPI DUP1 PUSH1 0x1F LT PUSH2 0x70A JUMPI PUSH2 0x100 DUP1 DUP4 SLOAD DIV MUL DUP4 MSTORE SWAP2 PUSH1 0x20 ADD SWAP2 PUSH2 0x735 JUMP JUMPDEST DUP3 ADD SWAP2 SWAP1 PUSH1 0x0 MSTORE PUSH1 0x20 PUSH1 0x0 KECCAK256 SWAP1 JUMPDEST DUP2 SLOAD DUP2 MSTORE SWAP1 PUSH1 0x1 ADD SWAP1 PUSH1 0x20 ADD DUP1 DUP4 GT PUSH2 0x718 JUMPI DUP3 SWAP1 SUB PUSH1 0x1F AND DUP3 ADD SWAP2 JUMPDEST POP POP POP POP POP SWAP1 DUP1 PUSH1 0x1 ADD DUP1 SLOAD PUSH2 0x74A SWAP1 PUSH2 0x341D JUMP JUMPDEST DUP1 PUSH1 0x1F ADD PUSH1 0x20 DUP1 SWAP2 DIV MUL PUSH1 0x20 ADD PUSH1 0x40 MLOAD SWAP1 DUP2 ADD PUSH1 0x40 MSTORE DUP1 SWAP3 SWAP2 SWAP1 DUP2 DUP2 MSTORE PUSH1 0x20 ADD DUP3 DUP1 SLOAD PUSH2 0x776 SWAP1 PUSH2 0x341D JUMP JUMPDEST DUP1 ISZERO PUSH2 0x7C3 JUMPI DUP1 PUSH1 0x1F LT PUSH2 0x798 JUMPI PUSH2 0x100 DUP1 DUP4 SLOAD DIV MUL DUP4 MSTORE SWAP2 PUSH1 0x20 ADD SWAP2 PUSH2 0x7C3 JUMP JUMPDEST DUP3 ADD SWAP2 SWAP1 PUSH1 0x0 MSTORE PUSH1 0x20 PUSH1 0x0 KECCAK256 SWAP1 JUMPDEST DUP2 SLOAD DUP2 MSTORE SWAP1 PUSH1 0x1 ADD SWAP1 PUSH1 0x20 ADD DUP1 DUP4 GT PUSH2 0x7A6 JUMPI DUP3 SWAP1 SUB PUSH1 0x1F AND DUP3 ADD SWAP2 JUMPDEST POP POP POP POP POP SWAP1 DUP1 PUSH1 0x2 ADD DUP1 SLOAD PUSH2 0x7D8 SWAP1 PUSH2 0x341D JUMP JUMPDEST DUP1 PUSH1 0x1F ADD PUSH1 0x20 DUP1 SWAP2 DIV MUL PUSH1 0x20 ADD PUSH1 0x40 MLOAD SWAP1 DUP2 ADD PUSH1 0x40 MSTORE DUP1 SWAP3 SWAP2 SWAP1 DUP2 DUP2 MSTORE PUSH1 0x20 ADD DUP3 DUP1 SLOAD PUSH2 0x804 SWAP1 PUSH2 0x341D JUMP JUMPDEST DUP1 ISZERO PUSH2 0x851 JUMPI DUP1 PUSH1 0x1F LT PUSH2 0x826 JUMPI PUSH2 0x100 DUP1 DUP4 SLOAD DIV MUL DUP4 MSTORE SWAP2 PUSH1 0x20 ADD SWAP2 PUSH2 0x851 JUMP JUMPDEST DUP3 ADD SWAP2 SWAP1 PUSH1 0x0 MSTORE PUSH1 0x20 PUSH1 0x0 KECCAK256 SWAP1 JUMPDEST DUP2 SLOAD DUP2 MSTORE SWAP1 PUSH1 0x1 ADD SWAP1 PUSH1 0x20 ADD DUP1 DUP4 GT PUSH2 0x834 JUMPI DUP3 SWAP1 SUB PUSH1 0x1F AND DUP3 ADD SWAP2 JUMPDEST POP POP POP POP POP SWAP1 DUP1 PUSH1 0x3 ADD DUP1 SLOAD PUSH2 0x866 SWAP1 PUSH2 0x341D JUMP JUMPDEST DUP1 PUSH1 0x1F ADD PUSH1 0x20 DUP1 SWAP2 DIV MUL PUSH1 0x20 ADD PUSH1 0x40 MLOAD SWAP1 DUP2 ADD PUSH1 0x40 MSTORE DUP1 SWAP3 SWAP2 SWAP1 DUP2 DUP2 MSTORE PUSH1 0x20 ADD DUP3 DUP1 SLOAD PUSH2 0x892 SWAP1 PUSH2 0x341D JUMP JUMPDEST DUP1 ISZERO PUSH2 0x8DF JUMPI DUP1 PUSH1 0x1F LT PUSH2 0x8B4 JUMPI PUSH2 0x100 DUP1 DUP4 SLOAD DIV MUL DUP4 MSTORE SWAP2 PUSH1 0x20 ADD SWAP2 PUSH2 0x8DF JUMP JUMPDEST DUP3 ADD SWAP2 SWAP1 PUSH1 0x0 MSTORE PUSH1 0x20 PUSH1 0x0 KECCAK256 SWAP1 JUMPDEST DUP2 SLOAD DUP2 MSTORE SWAP1 PUSH1 0x1 ADD SWAP1 PUSH1 0x20 ADD DUP1 DUP4 GT PUSH2 0x8C2 JUMPI DUP3 SWAP1 SUB PUSH1 0x1F AND DUP3 ADD SWAP2 JUMPDEST POP POP POP POP POP SWAP1 DUP1 PUSH1 0x4 ADD DUP1 SLOAD PUSH2 0x8F4 SWAP1 PUSH2 0x341D JUMP JUMPDEST DUP1 PUSH1 0x1F ADD PUSH1 0x20 DUP1 SWAP2 DIV MUL PUSH1 0x20 ADD PUSH1 0x40 MLOAD SWAP1 DUP2 ADD PUSH1 0x40 MSTORE DUP1 SWAP3 SWAP2 SWAP1 DUP2 DUP2 MSTORE PUSH1 0x20 ADD DUP3 DUP1 SLOAD PUSH2 0x920 SWAP1 PUSH2 0x341D JUMP JUMPDEST DUP1 ISZERO PUSH2 0x96D JUMPI DUP1 PUSH1 0x1F LT PUSH2 0x942 JUMPI PUSH2 0x100 DUP1 DUP4 SLOAD DIV MUL DUP4 MSTORE SWAP2 PUSH1 0x20 ADD SWAP2 PUSH2 0x96D JUMP JUMPDEST DUP3 ADD SWAP2 SWAP1 PUSH1 0x0 MSTORE PUSH1 0x20 PUSH1 0x0 KECCAK256 SWAP1 JUMPDEST DUP2 SLOAD DUP2 MSTORE SWAP1 PUSH1 0x1 ADD SWAP1 PUSH1 0x20 ADD DUP1 DUP4 GT PUSH2 0x950 JUMPI DUP3 SWAP1 SUB PUSH1 0x1F AND DUP3 ADD SWAP2 JUMPDEST POP POP POP PUSH1 0x5 SWAP1 SWAP4 ADD SLOAD SWAP2 SWAP3 POP POP PUSH1 0xFF DUP1 DUP3 AND SWAP2 PUSH2 0x100 SWAP1 DIV AND DUP8 JUMP JUMPDEST CALLER PUSH1 0x0 SWAP1 DUP2 MSTORE PUSH1 0x6 PUSH1 0x20 MSTORE PUSH1 0x40 DUP2 KECCAK256 SLOAD PUSH1 0xFF AND PUSH2 0x9C1 JUMPI PUSH1 0x40 MLOAD PUSH3 0x461BCD PUSH1 0xE5 SHL DUP2 MSTORE PUSH1 0x4 ADD PUSH2 0x9B8 SWAP1 PUSH2 0x3451 JUMP JUMPDEST PUSH1 0x40 MLOAD DUP1 SWAP2 SUB SWAP1 REVERT JUMPDEST DUP4 MLOAD PUSH1 0x0 SUB PUSH2 0x9E3 JUMPI PUSH1 0x40 MLOAD PUSH4 0xECD7B0D1 PUSH1 0xE0 SHL DUP2 MSTORE PUSH1 0x4 ADD PUSH1 0x40 MLOAD DUP1 SWAP2 SUB SWAP1 REVERT JUMPDEST DUP3 MLOAD PUSH1 0x0 SUB PUSH2 0xA05 JUMPI PUSH1 0x40 MLOAD PUSH4 0xECD7B0D1 PUSH1 0xE0 SHL DUP2 MSTORE PUSH1 0x4 ADD PUSH1 0x40 MLOAD DUP1 SWAP2 SUB SWAP1 REVERT JUMPDEST PUSH1 0x1 DUP1 SLOAD SWAP1 PUSH1 0x0 PUSH2 0xA15 DUP4 PUSH2 0x3404 JUMP JUMPDEST SWAP1 SWAP2 SSTORE POP POP PUSH1 0x1 DUP1 SLOAD PUSH1 0x40 DUP1 MLOAD PUSH2 0x100 DUP2 ADD DUP3 MSTORE DUP3 DUP2 MSTORE PUSH1 0x20 DUP1 DUP3 ADD DUP10 DUP2 MSTORE DUP3 DUP5 ADD DUP10 SWAP1 MSTORE PUSH1 0x60 DUP4 ADD DUP9 SWAP1 MSTORE CALLER PUSH1 0x80 DUP5 ADD DUP2 SWAP1 MSTORE PUSH1 0xA0 DUP5 ADD MSTORE PUSH1 0xC0 DUP4 ADD DUP7 SWAP1 MSTORE PUSH1 0xE0 DUP4 ADD DUP7 SWAP1 MSTORE PUSH1 0x0 DUP6 DUP2 MSTORE PUSH1 0x3 SWAP1 SWAP3 MSTORE SWAP3 SWAP1 KECCAK256 DUP2 MLOAD DUP2 SSTORE SWAP2 MLOAD SWAP3 SWAP4 SWAP1 SWAP3 SWAP1 DUP3 ADD SWAP1 PUSH2 0xA81 SWAP1 DUP3 PUSH2 0x34EC JUMP JUMPDEST POP PUSH1 0x40 DUP3 ADD MLOAD PUSH1 0x2 DUP3 ADD SWAP1 PUSH2 0xA96 SWAP1 DUP3 PUSH2 0x34EC JUMP JUMPDEST POP PUSH1 0x60 DUP3 ADD MLOAD PUSH1 0x3 DUP3 ADD SSTORE PUSH1 0x80 DUP3 ADD MLOAD PUSH1 0x4 DUP3 ADD DUP1 SLOAD PUSH1 0x1 PUSH1 0x1 PUSH1 0xA0 SHL SUB NOT AND PUSH1 0x1 PUSH1 0x1 PUSH1 0xA0 SHL SUB SWAP3 DUP4 AND OR SWAP1 SSTORE PUSH1 0xA0 DUP4 ADD MLOAD PUSH1 0x5 SWAP1 SWAP3 ADD DUP1 SLOAD PUSH1 0xC0 DUP6 ADD MLOAD PUSH1 0xE0 SWAP1 SWAP6 ADD MLOAD SWAP4 SWAP1 SWAP3 AND PUSH1 0x1 PUSH1 0x1 PUSH1 0xA8 SHL SUB NOT SWAP1 SWAP3 AND SWAP2 SWAP1 SWAP2 OR PUSH1 0x1 PUSH1 0xA0 SHL PUSH1 0xFF SWAP1 SWAP5 AND SWAP4 SWAP1 SWAP4 MUL SWAP3 SWAP1 SWAP3 OR PUSH1 0xFF PUSH1 0xA8 SHL NOT AND PUSH1 0x1 PUSH1 0xA8 SHL SWAP2 ISZERO ISZERO SWAP2 SWAP1 SWAP2 MUL OR SWAP1 SSTORE PUSH1 0x7 DUP1 SLOAD PUSH1 0x1 DUP2 ADD DUP3 SSTORE PUSH1 0x0 SWAP2 SWAP1 SWAP2 MSTORE PUSH32 0xA66CC928B5EDB82AF9BD49922954155AB7B0942694BEA4CE44661D9A8736C688 ADD DUP2 SWAP1 SSTORE PUSH1 0x40 MLOAD CALLER SWAP1 DUP3 SWAP1 PUSH32 0xEA22475394060B6C039F5CAD008910B7B9160A8AEE04F8F9BA666147E67EF52C SWAP1 PUSH2 0xB84 SWAP1 DUP10 SWAP1 DUP10 SWAP1 DUP10 SWAP1 PUSH2 0x35AC JUMP JUMPDEST PUSH1 0x40 MLOAD DUP1 SWAP2 SUB SWAP1 LOG3 SWAP5 SWAP4 POP POP POP POP JUMP JUMPDEST PUSH1 0x4 PUSH1 0x20 MSTORE DUP2 PUSH1 0x0 MSTORE PUSH1 0x40 PUSH1 0x0 KECCAK256 DUP2 DUP2 SLOAD DUP2 LT PUSH2 0xBB0 JUMPI PUSH1 0x0 DUP1 REVERT JUMPDEST PUSH1 0x0 SWAP2 DUP3 MSTORE PUSH1 0x20 SWAP1 SWAP2 KECCAK256 PUSH1 0x8 SWAP1 SWAP2 MUL ADD DUP1 SLOAD PUSH1 0x1 DUP3 ADD SLOAD PUSH1 0x2 DUP4 ADD SLOAD PUSH1 0x3 DUP5 ADD DUP1 SLOAD SWAP4 SWAP7 POP PUSH1 0x1 PUSH1 0x1 PUSH1 0xA0 SHL SUB SWAP3 DUP4 AND SWAP6 POP SWAP2 AND SWAP3 SWAP2 PUSH2 0xBEF SWAP1 PUSH2 0x341D JUMP JUMPDEST DUP1 PUSH1 0x1F ADD PUSH1 0x20 DUP1 SWAP2 DIV MUL PUSH1 0x20 ADD PUSH1 0x40 MLOAD SWAP1 DUP2 ADD PUSH1 0x40 MSTORE DUP1 SWAP3 SWAP2 SWAP1 DUP2 DUP2 MSTORE PUSH1 0x20 ADD DUP3 DUP1 SLOAD PUSH2 0xC1B SWAP1 PUSH2 0x341D JUMP JUMPDEST DUP1 ISZERO PUSH2 0xC68 JUMPI DUP1 PUSH1 0x1F LT PUSH2 0xC3D JUMPI PUSH2 0x100 DUP1 DUP4 SLOAD DIV MUL DUP4 MSTORE SWAP2 PUSH1 0x20 ADD SWAP2 PUSH2 0xC68 JUMP JUMPDEST DUP3 ADD SWAP2 SWAP1 PUSH1 0x0 MSTORE PUSH1 0x20 PUSH1 0x0 KECCAK256 SWAP1 JUMPDEST DUP2 SLOAD DUP2 MSTORE SWAP1 PUSH1 0x1 ADD SWAP1 PUSH1 0x20 ADD DUP1 DUP4 GT PUSH2 0xC4B JUMPI DUP3 SWAP1 SUB PUSH1 0x1F AND DUP3 ADD SWAP2 JUMPDEST POP POP POP POP POP SWAP1 DUP1 PUSH1 0x4 ADD DUP1 SLOAD PUSH2 0xC7D SWAP1 PUSH2 0x341D JUMP JUMPDEST DUP1 PUSH1 0x1F ADD PUSH1 0x20 DUP1 SWAP2 DIV MUL PUSH1 0x20 ADD PUSH1 0x40 MLOAD SWAP1 DUP2 ADD PUSH1 0x40 MSTORE DUP1 SWAP3 SWAP2 SWAP1 DUP2 DUP2 MSTORE PUSH1 0x20 ADD DUP3 DUP1 SLOAD PUSH2 0xCA9 SWAP1 PUSH2 0x341D JUMP JUMPDEST DUP1 ISZERO PUSH2 0xCF6 JUMPI DUP1 PUSH1 0x1F LT PUSH2 0xCCB JUMPI PUSH2 0x100 DUP1 DUP4 SLOAD DIV MUL DUP4 MSTORE SWAP2 PUSH1 0x20 ADD SWAP2 PUSH2 0xCF6 JUMP JUMPDEST DUP3 ADD SWAP2 SWAP1 PUSH1 0x0 MSTORE PUSH1 0x20 PUSH1 0x0 KECCAK256 SWAP1 JUMPDEST DUP2 SLOAD DUP2 MSTORE SWAP1 PUSH1 0x1 ADD SWAP1 PUSH1 0x20 ADD DUP1 DUP4 GT PUSH2 0xCD9 JUMPI DUP3 SWAP1 SUB PUSH1 0x1F AND DUP3 ADD SWAP2 JUMPDEST POP POP POP POP POP SWAP1 DUP1 PUSH1 0x5 ADD SLOAD SWAP1 DUP1 PUSH1 0x6 ADD DUP1 SLOAD PUSH2 0xD11 SWAP1 PUSH2 0x341D JUMP JUMPDEST DUP1 PUSH1 0x1F ADD PUSH1 0x20 DUP1 SWAP2 DIV MUL PUSH1 0x20 ADD PUSH1 0x40 MLOAD SWAP1 DUP2 ADD PUSH1 0x40 MSTORE DUP1 SWAP3 SWAP2 SWAP1 DUP2 DUP2 MSTORE PUSH1 0x20 ADD DUP3 DUP1 SLOAD PUSH2 0xD3D SWAP1 PUSH2 0x341D JUMP JUMPDEST DUP1 ISZERO PUSH2 0xD8A JUMPI DUP1 PUSH1 0x1F LT PUSH2 0xD5F JUMPI PUSH2 0x100 DUP1 DUP4 SLOAD DIV MUL DUP4 MSTORE SWAP2 PUSH1 0x20 ADD SWAP2 PUSH2 0xD8A JUMP JUMPDEST DUP3 ADD SWAP2 SWAP1 PUSH1 0x0 MSTORE PUSH1 0x20 PUSH1 0x0 KECCAK256 SWAP1 JUMPDEST DUP2 SLOAD DUP2 MSTORE SWAP1 PUSH1 0x1 ADD SWAP1 PUSH1 0x20 ADD DUP1 DUP4 GT PUSH2 0xD6D JUMPI DUP3 SWAP1 SUB PUSH1 0x1F AND DUP3 ADD SWAP2 JUMPDEST POP POP POP POP POP SWAP1 DUP1 PUSH1 0x7 ADD DUP1 SLOAD PUSH2 0xD9F SWAP1 PUSH2 0x341D JUMP JUMPDEST DUP1 PUSH1 0x1F ADD PUSH1 0x20 DUP1 SWAP2 DIV MUL PUSH1 0x20 ADD PUSH1 0x40 MLOAD SWAP1 DUP2 ADD PUSH1 0x40 MSTORE DUP1 SWAP3 SWAP2 SWAP1 DUP2 DUP2 MSTORE PUSH1 0x20 ADD DUP3 DUP1 SLOAD PUSH2 0xDCB SWAP1 PUSH2 0x341D JUMP JUMPDEST DUP1 ISZERO PUSH2 0xE18 JUMPI DUP1 PUSH1 0x1F LT PUSH2 0xDED JUMPI PUSH2 0x100 DUP1 DUP4 SLOAD DIV MUL DUP4 MSTORE SWAP2 PUSH1 0x20 ADD SWAP2 PUSH2 0xE18 JUMP JUMPDEST DUP3 ADD SWAP2 SWAP1 PUSH1 0x0 MSTORE PUSH1 0x20 PUSH1 0x0 KECCAK256 SWAP1 JUMPDEST DUP2 SLOAD DUP2 MSTORE SWAP1 PUSH1 0x1 ADD SWAP1 PUSH1 0x20 ADD DUP1 DUP4 GT PUSH2 0xDFB JUMPI DUP3 SWAP1 SUB PUSH1 0x1F AND DUP3 ADD SWAP2 JUMPDEST POP POP POP POP POP SWAP1 POP DUP9 JUMP JUMPDEST PUSH1 0x0 DUP2 DUP2 MSTORE PUSH1 0x3 PUSH1 0x20 MSTORE PUSH1 0x40 SWAP1 KECCAK256 PUSH1 0x5 ADD SLOAD PUSH1 0x60 SWAP1 DUP3 SWAP1 PUSH1 0x1 PUSH1 0xA8 SHL SWAP1 DIV PUSH1 0xFF AND PUSH2 0xE63 JUMPI PUSH1 0x40 MLOAD PUSH4 0x92691CAB PUSH1 0xE0 SHL DUP2 MSTORE PUSH1 0x4 DUP2 ADD DUP3 SWAP1 MSTORE PUSH1 0x24 ADD PUSH2 0x9B8 JUMP JUMPDEST PUSH1 0x0 DUP4 DUP2 MSTORE PUSH1 0x4 PUSH1 0x20 SWAP1 DUP2 MSTORE PUSH1 0x40 DUP1 DUP4 KECCAK256 DUP1 SLOAD DUP3 MLOAD DUP2 DUP6 MUL DUP2 ADD DUP6 ADD SWAP1 SWAP4 MSTORE DUP1 DUP4 MSTORE SWAP2 SWAP4 SWAP1 SWAP3 DUP5 ADD JUMPDEST DUP3 DUP3 LT ISZERO PUSH2 0x1141 JUMPI PUSH1 0x0 DUP5 DUP2 MSTORE PUSH1 0x20 SWAP1 DUP2 SWAP1 KECCAK256 PUSH1 0x40 DUP1 MLOAD PUSH2 0x100 DUP2 ADD DUP3 MSTORE PUSH1 0x8 DUP7 MUL SWAP1 SWAP3 ADD DUP1 SLOAD DUP4 MSTORE PUSH1 0x1 DUP2 ADD SLOAD PUSH1 0x1 PUSH1 0x1 PUSH1 0xA0 SHL SUB SWAP1 DUP2 AND SWAP5 DUP5 ADD SWAP5 SWAP1 SWAP5 MSTORE PUSH1 0x2 DUP2 ADD SLOAD SWAP1 SWAP4 AND SWAP1 DUP3 ADD MSTORE PUSH1 0x3 DUP3 ADD DUP1 SLOAD SWAP2 SWAP3 SWAP2 PUSH1 0x60 DUP5 ADD SWAP2 SWAP1 PUSH2 0xEF0 SWAP1 PUSH2 0x341D JUMP JUMPDEST DUP1 PUSH1 0x1F ADD PUSH1 0x20 DUP1 SWAP2 DIV MUL PUSH1 0x20 ADD PUSH1 0x40 MLOAD SWAP1 DUP2 ADD PUSH1 0x40 MSTORE DUP1 SWAP3 SWAP2 SWAP1 DUP2 DUP2 MSTORE PUSH1 0x20 ADD DUP3 DUP1 SLOAD PUSH2 0xF1C SWAP1 PUSH2 0x341D JUMP JUMPDEST DUP1 ISZERO PUSH2 0xF69 JUMPI DUP1 PUSH1 0x1F LT PUSH2 0xF3E JUMPI PUSH2 0x100 DUP1 DUP4 SLOAD DIV MUL DUP4 MSTORE SWAP2 PUSH1 0x20 ADD SWAP2 PUSH2 0xF69 JUMP JUMPDEST DUP3 ADD SWAP2 SWAP1 PUSH1 0x0 MSTORE PUSH1 0x20 PUSH1 0x0 KECCAK256 SWAP1 JUMPDEST DUP2 SLOAD DUP2 MSTORE SWAP1 PUSH1 0x1 ADD SWAP1 PUSH1 0x20 ADD DUP1 DUP4 GT PUSH2 0xF4C JUMPI DUP3 SWAP1 SUB PUSH1 0x1F AND DUP3 ADD SWAP2 JUMPDEST POP POP POP POP POP DUP2 MSTORE PUSH1 0x20 ADD PUSH1 0x4 DUP3 ADD DUP1 SLOAD PUSH2 0xF82 SWAP1 PUSH2 0x341D JUMP JUMPDEST DUP1 PUSH1 0x1F ADD PUSH1 0x20 DUP1 SWAP2 DIV MUL PUSH1 0x20 ADD PUSH1 0x40 MLOAD SWAP1 DUP2 ADD PUSH1 0x40 MSTORE DUP1 SWAP3 SWAP2 SWAP1 DUP2 DUP2 MSTORE PUSH1 0x20 ADD DUP3 DUP1 SLOAD PUSH2 0xFAE SWAP1 PUSH2 0x341D JUMP JUMPDEST DUP1 ISZERO PUSH2 0xFFB JUMPI DUP1 PUSH1 0x1F LT PUSH2 0xFD0 JUMPI PUSH2 0x100 DUP1 DUP4 SLOAD DIV MUL DUP4 MSTORE SWAP2 PUSH1 0x20 ADD SWAP2 PUSH2 0xFFB JUMP JUMPDEST DUP3 ADD SWAP2 SWAP1 PUSH1 0x0 MSTORE PUSH1 0x20 PUSH1 0x0 KECCAK256 SWAP1 JUMPDEST DUP2 SLOAD DUP2 MSTORE SWAP1 PUSH1 0x1 ADD SWAP1 PUSH1 0x20 ADD DUP1 DUP4 GT PUSH2 0xFDE JUMPI DUP3 SWAP1 SUB PUSH1 0x1F AND DUP3 ADD SWAP2 JUMPDEST POP POP POP POP POP DUP2 MSTORE PUSH1 0x20 ADD PUSH1 0x5 DUP3 ADD SLOAD DUP2 MSTORE PUSH1 0x20 ADD PUSH1 0x6 DUP3 ADD DUP1 SLOAD PUSH2 0x101E SWAP1 PUSH2 0x341D JUMP JUMPDEST DUP1 PUSH1 0x1F ADD PUSH1 0x20 DUP1 SWAP2 DIV MUL PUSH1 0x20 ADD PUSH1 0x40 MLOAD SWAP1 DUP2 ADD PUSH1 0x40 MSTORE DUP1 SWAP3 SWAP2 SWAP1 DUP2 DUP2 MSTORE PUSH1 0x20 ADD DUP3 DUP1 SLOAD PUSH2 0x104A SWAP1 PUSH2 0x341D JUMP JUMPDEST DUP1 ISZERO PUSH2 0x1097 JUMPI DUP1 PUSH1 0x1F LT PUSH2 0x106C JUMPI PUSH2 0x100 DUP1 DUP4 SLOAD DIV MUL DUP4 MSTORE SWAP2 PUSH1 0x20 ADD SWAP2 PUSH2 0x1097 JUMP JUMPDEST DUP3 ADD SWAP2 SWAP1 PUSH1 0x0 MSTORE PUSH1 0x20 PUSH1 0x0 KECCAK256 SWAP1 JUMPDEST DUP2 SLOAD DUP2 MSTORE SWAP1 PUSH1 0x1 ADD SWAP1 PUSH1 0x20 ADD DUP1 DUP4 GT PUSH2 0x107A JUMPI DUP3 SWAP1 SUB PUSH1 0x1F AND DUP3 ADD SWAP2 JUMPDEST POP POP POP POP POP DUP2 MSTORE PUSH1 0x20 ADD PUSH1 0x7 DUP3 ADD DUP1 SLOAD PUSH2 0x10B0 SWAP1 PUSH2 0x341D JUMP JUMPDEST DUP1 PUSH1 0x1F ADD PUSH1 0x20 DUP1 SWAP2 DIV MUL PUSH1 0x20 ADD PUSH1 0x40 MLOAD SWAP1 DUP2 ADD PUSH1 0x40 MSTORE DUP1 SWAP3 SWAP2 SWAP1 DUP2 DUP2 MSTORE PUSH1 0x20 ADD DUP3 DUP1 SLOAD PUSH2 0x10DC SWAP1 PUSH2 0x341D JUMP JUMPDEST DUP1 ISZERO PUSH2 0x1129 JUMPI DUP1 PUSH1 0x1F LT PUSH2 0x10FE JUMPI PUSH2 0x100 DUP1 DUP4 SLOAD DIV MUL DUP4 MSTORE SWAP2 PUSH1 0x20 ADD SWAP2 PUSH2 0x1129 JUMP JUMPDEST DUP3 ADD SWAP2 SWAP1 PUSH1 0x0 MSTORE PUSH1 0x20 PUSH1 0x0 KECCAK256 SWAP1 JUMPDEST DUP2 SLOAD DUP2 MSTORE SWAP1 PUSH1 0x1 ADD SWAP1 PUSH1 0x20 ADD DUP1 DUP4 GT PUSH2 0x110C JUMPI DUP3 SWAP1 SUB PUSH1 0x1F AND DUP3 ADD SWAP2 JUMPDEST POP POP POP POP POP DUP2 MSTORE POP POP DUP2 MSTORE PUSH1 0x20 ADD SWAP1 PUSH1 0x1 ADD SWAP1 PUSH2 0xE8C JUMP JUMPDEST POP POP POP POP SWAP2 POP JUMPDEST POP SWAP2 SWAP1 POP JUMP JUMPDEST PUSH1 0x60 DUP1 PUSH1 0x60 DUP1 PUSH1 0x60 PUSH1 0x0 DUP1 PUSH1 0x5 PUSH1 0x0 DUP10 PUSH1 0x1 PUSH1 0x1 PUSH1 0xA0 SHL SUB AND PUSH1 0x1 PUSH1 0x1 PUSH1 0xA0 SHL SUB AND DUP2 MSTORE PUSH1 0x20 ADD SWAP1 DUP2 MSTORE PUSH1 0x20 ADD PUSH1 0x0 KECCAK256 PUSH1 0x40 MLOAD DUP1 PUSH1 0xE0 ADD PUSH1 0x40 MSTORE SWAP1 DUP2 PUSH1 0x0 DUP3 ADD DUP1 SLOAD PUSH2 0x1199 SWAP1 PUSH2 0x341D JUMP JUMPDEST DUP1 PUSH1 0x1F ADD PUSH1 0x20 DUP1 SWAP2 DIV MUL PUSH1 0x20 ADD PUSH1 0x40 MLOAD SWAP1 DUP2 ADD PUSH1 0x40 MSTORE DUP1 SWAP3 SWAP2 SWAP1 DUP2 DUP2 MSTORE PUSH1 0x20 ADD DUP3 DUP1 SLOAD PUSH2 0x11C5 SWAP1 PUSH2 0x341D JUMP JUMPDEST DUP1 ISZERO PUSH2 0x1212 JUMPI DUP1 PUSH1 0x1F LT PUSH2 0x11E7 JUMPI PUSH2 0x100 DUP1 DUP4 SLOAD DIV MUL DUP4 MSTORE SWAP2 PUSH1 0x20 ADD SWAP2 PUSH2 0x1212 JUMP JUMPDEST DUP3 ADD SWAP2 SWAP1 PUSH1 0x0 MSTORE PUSH1 0x20 PUSH1 0x0 KECCAK256 SWAP1 JUMPDEST DUP2 SLOAD DUP2 MSTORE SWAP1 PUSH1 0x1 ADD SWAP1 PUSH1 0x20 ADD DUP1 DUP4 GT PUSH2 0x11F5 JUMPI DUP3 SWAP1 SUB PUSH1 0x1F AND DUP3 ADD SWAP2 JUMPDEST POP POP POP POP POP DUP2 MSTORE PUSH1 0x20 ADD PUSH1 0x1 DUP3 ADD DUP1 SLOAD PUSH2 0x122B SWAP1 PUSH2 0x341D JUMP JUMPDEST DUP1 PUSH1 0x1F ADD PUSH1 0x20 DUP1 SWAP2 DIV MUL PUSH1 0x20 ADD PUSH1 0x40 MLOAD SWAP1 DUP2 ADD PUSH1 0x40 MSTORE DUP1 SWAP3 SWAP2 SWAP1 DUP2 DUP2 MSTORE PUSH1 0x20 ADD DUP3 DUP1 SLOAD PUSH2 0x1257 SWAP1 PUSH2 0x341D JUMP JUMPDEST DUP1 ISZERO PUSH2 0x12A4 JUMPI DUP1 PUSH1 0x1F LT PUSH2 0x1279 JUMPI PUSH2 0x100 DUP1 DUP4 SLOAD DIV MUL DUP4 MSTORE SWAP2 PUSH1 0x20 ADD SWAP2 PUSH2 0x12A4 JUMP JUMPDEST DUP3 ADD SWAP2 SWAP1 PUSH1 0x0 MSTORE PUSH1 0x20 PUSH1 0x0 KECCAK256 SWAP1 JUMPDEST DUP2 SLOAD DUP2 MSTORE SWAP1 PUSH1 0x1 ADD SWAP1 PUSH1 0x20 ADD DUP1 DUP4 GT PUSH2 0x1287 JUMPI DUP3 SWAP1 SUB PUSH1 0x1F AND DUP3 ADD SWAP2 JUMPDEST POP POP POP POP POP DUP2 MSTORE PUSH1 0x20 ADD PUSH1 0x2 DUP3 ADD DUP1 SLOAD PUSH2 0x12BD SWAP1 PUSH2 0x341D JUMP JUMPDEST DUP1 PUSH1 0x1F ADD PUSH1 0x20 DUP1 SWAP2 DIV MUL PUSH1 0x20 ADD PUSH1 0x40 MLOAD SWAP1 DUP2 ADD PUSH1 0x40 MSTORE DUP1 SWAP3 SWAP2 SWAP1 DUP2 DUP2 MSTORE PUSH1 0x20 ADD DUP3 DUP1 SLOAD PUSH2 0x12E9 SWAP1 PUSH2 0x341D JUMP JUMPDEST DUP1 ISZERO PUSH2 0x1336 JUMPI DUP1 PUSH1 0x1F LT PUSH2 0x130B JUMPI PUSH2 0x100 DUP1 DUP4 SLOAD DIV MUL DUP4 MSTORE SWAP2 PUSH1 0x20 ADD SWAP2 PUSH2 0x1336 JUMP JUMPDEST DUP3 ADD SWAP2 SWAP1 PUSH1 0x0 MSTORE PUSH1 0x20 PUSH1 0x0 KECCAK256 SWAP1 JUMPDEST DUP2 SLOAD DUP2 MSTORE SWAP1 PUSH1 0x1 ADD SWAP1 PUSH1 0x20 ADD DUP1 DUP4 GT PUSH2 0x1319 JUMPI DUP3 SWAP1 SUB PUSH1 0x1F AND DUP3 ADD SWAP2 JUMPDEST POP POP POP POP POP DUP2 MSTORE PUSH1 0x20 ADD PUSH1 0x3 DUP3 ADD DUP1 SLOAD PUSH2 0x134F SWAP1 PUSH2 0x341D JUMP JUMPDEST DUP1 PUSH1 0x1F ADD PUSH1 0x20 DUP1 SWAP2 DIV MUL PUSH1 0x20 ADD PUSH1 0x40 MLOAD SWAP1 DUP2 ADD PUSH1 0x40 MSTORE DUP1 SWAP3 SWAP2 SWAP1 DUP2 DUP2 MSTORE PUSH1 0x20 ADD DUP3 DUP1 SLOAD PUSH2 0x137B SWAP1 PUSH2 0x341D JUMP JUMPDEST DUP1 ISZERO PUSH2 0x13C8 JUMPI DUP1 PUSH1 0x1F LT PUSH2 0x139D JUMPI PUSH2 0x100 DUP1 DUP4 SLOAD DIV MUL DUP4 MSTORE SWAP2 PUSH1 0x20 ADD SWAP2 PUSH2 0x13C8 JUMP JUMPDEST DUP3 ADD SWAP2 SWAP1 PUSH1 0x0 MSTORE PUSH1 0x20 PUSH1 0x0 KECCAK256 SWAP1 JUMPDEST DUP2 SLOAD DUP2 MSTORE SWAP1 PUSH1 0x1 ADD SWAP1 PUSH1 0x20 ADD DUP1 DUP4 GT PUSH2 0x13AB JUMPI DUP3 SWAP1 SUB PUSH1 0x1F AND DUP3 ADD SWAP2 JUMPDEST POP POP POP POP POP DUP2 MSTORE PUSH1 0x20 ADD PUSH1 0x4 DUP3 ADD DUP1 SLOAD PUSH2 0x13E1 SWAP1 PUSH2 0x341D JUMP JUMPDEST DUP1 PUSH1 0x1F ADD PUSH1 0x20 DUP1 SWAP2 DIV MUL PUSH1 0x20 ADD PUSH1 0x40 MLOAD SWAP1 DUP2 ADD PUSH1 0x40 MSTORE DUP1 SWAP3 SWAP2 SWAP1 DUP2 DUP2 MSTORE PUSH1 0x20 ADD DUP3 DUP1 SLOAD PUSH2 0x140D SWAP1 PUSH2 0x341D JUMP JUMPDEST DUP1 ISZERO PUSH2 0x145A JUMPI DUP1 PUSH1 0x1F LT PUSH2 0x142F JUMPI PUSH2 0x100 DUP1 DUP4 SLOAD DIV MUL DUP4 MSTORE SWAP2 PUSH1 0x20 ADD SWAP2 PUSH2 0x145A JUMP JUMPDEST DUP3 ADD SWAP2 SWAP1 PUSH1 0x0 MSTORE PUSH1 0x20 PUSH1 0x0 KECCAK256 SWAP1 JUMPDEST DUP2 SLOAD DUP2 MSTORE SWAP1 PUSH1 0x1 ADD SWAP1 PUSH1 0x20 ADD DUP1 DUP4 GT PUSH2 0x143D JUMPI DUP3 SWAP1 SUB PUSH1 0x1F AND DUP3 ADD SWAP2 JUMPDEST POP POP POP SWAP2 DUP4 MSTORE POP POP PUSH1 0x5 SWAP2 SWAP1 SWAP2 ADD SLOAD PUSH1 0xFF DUP1 DUP3 AND ISZERO ISZERO PUSH1 0x20 DUP1 DUP6 ADD SWAP2 SWAP1 SWAP2 MSTORE PUSH2 0x100 SWAP1 SWAP3 DIV AND ISZERO ISZERO PUSH1 0x40 SWAP3 DUP4 ADD MSTORE DUP3 MLOAD SWAP1 DUP4 ADD MLOAD SWAP2 DUP4 ADD MLOAD PUSH1 0x60 DUP5 ADD MLOAD PUSH1 0x80 DUP6 ADD MLOAD PUSH1 0xA0 SWAP1 SWAP6 ADD MLOAD SWAP3 SWAP14 SWAP4 SWAP13 POP SWAP1 SWAP11 POP SWAP9 POP SWAP2 SWAP7 POP SWAP1 SWAP5 POP SWAP3 POP POP POP JUMP JUMPDEST PUSH1 0x0 SLOAD PUSH1 0x1 PUSH1 0x1 PUSH1 0xA0 SHL SUB AND CALLER EQ PUSH2 0x14E2 JUMPI PUSH1 0x40 MLOAD PUSH3 0x461BCD PUSH1 0xE5 SHL DUP2 MSTORE PUSH1 0x4 ADD PUSH2 0x9B8 SWAP1 PUSH2 0x35E2 JUMP JUMPDEST PUSH1 0x1 PUSH1 0x1 PUSH1 0xA0 SHL SUB DUP7 AND PUSH2 0x1509 JUMPI PUSH1 0x40 MLOAD PUSH4 0xE6C4247B PUSH1 0xE0 SHL DUP2 MSTORE PUSH1 0x4 ADD PUSH1 0x40 MLOAD DUP1 SWAP2 SUB SWAP1 REVERT JUMPDEST PUSH1 0x40 DUP1 MLOAD PUSH1 0xE0 DUP2 ADD DUP3 MSTORE DUP7 DUP2 MSTORE PUSH1 0x20 DUP1 DUP3 ADD DUP8 SWAP1 MSTORE DUP2 DUP4 ADD DUP7 SWAP1 MSTORE PUSH1 0x60 DUP3 ADD DUP6 SWAP1 MSTORE PUSH1 0x80 DUP3 ADD DUP5 SWAP1 MSTORE PUSH1 0x1 PUSH1 0xA0 DUP4 ADD DUP2 SWAP1 MSTORE PUSH1 0xC0 DUP4 ADD MSTORE PUSH1 0x1 PUSH1 0x1 PUSH1 0xA0 SHL SUB DUP10 AND PUSH1 0x0 SWAP1 DUP2 MSTORE PUSH1 0x5 SWAP1 SWAP2 MSTORE SWAP2 SWAP1 SWAP2 KECCAK256 DUP2 MLOAD DUP2 SWAP1 PUSH2 0x1566 SWAP1 DUP3 PUSH2 0x34EC JUMP JUMPDEST POP PUSH1 0x20 DUP3 ADD MLOAD PUSH1 0x1 DUP3 ADD SWAP1 PUSH2 0x157B SWAP1 DUP3 PUSH2 0x34EC JUMP JUMPDEST POP PUSH1 0x40 DUP3 ADD MLOAD PUSH1 0x2 DUP3 ADD SWAP1 PUSH2 0x1590 SWAP1 DUP3 PUSH2 0x34EC JUMP JUMPDEST POP PUSH1 0x60 DUP3 ADD MLOAD PUSH1 0x3 DUP3 ADD SWAP1 PUSH2 0x15A5 SWAP1 DUP3 PUSH2 0x34EC JUMP JUMPDEST POP PUSH1 0x80 DUP3 ADD MLOAD PUSH1 0x4 DUP3 ADD SWAP1 PUSH2 0x15BA SWAP1 DUP3 PUSH2 0x34EC JUMP JUMPDEST POP PUSH1 0xA0 DUP3 ADD MLOAD PUSH1 0x5 SWAP1 SWAP2 ADD DUP1 SLOAD PUSH1 0xC0 SWAP1 SWAP4 ADD MLOAD ISZERO ISZERO PUSH2 0x100 MUL PUSH2 0xFF00 NOT SWAP3 ISZERO ISZERO SWAP3 SWAP1 SWAP3 AND PUSH2 0xFFFF NOT SWAP1 SWAP4 AND SWAP3 SWAP1 SWAP3 OR OR SWAP1 SSTORE PUSH1 0x1 PUSH1 0x1 PUSH1 0xA0 SHL SUB DUP7 AND PUSH1 0x0 DUP2 DUP2 MSTORE PUSH1 0x6 PUSH1 0x20 MSTORE PUSH1 0x40 SWAP1 DUP2 SWAP1 KECCAK256 DUP1 SLOAD PUSH1 0xFF NOT AND PUSH1 0x1 OR SWAP1 SSTORE MLOAD PUSH32 0x5A1A1BD8D52A28DF3C36664A5968C59A58035ADC8CAA3077C7198F792776312C SWAP1 PUSH2 0x1641 SWAP1 DUP9 SWAP1 DUP8 SWAP1 PUSH2 0x3623 JUMP JUMPDEST PUSH1 0x40 MLOAD DUP1 SWAP2 SUB SWAP1 LOG2 POP POP POP POP POP POP JUMP JUMPDEST PUSH1 0x1 PUSH1 0x1 PUSH1 0xA0 SHL SUB DUP2 AND PUSH1 0x0 SWAP1 DUP2 MSTORE PUSH1 0x5 PUSH1 0x20 MSTORE PUSH1 0x40 SWAP1 KECCAK256 DUP1 SLOAD PUSH1 0x60 SWAP2 SWAP1 PUSH2 0x1678 SWAP1 PUSH2 0x341D JUMP JUMPDEST DUP1 PUSH1 0x1F ADD PUSH1 0x20 DUP1 SWAP2 DIV MUL PUSH1 0x20 ADD PUSH1 0x40 MLOAD SWAP1 DUP2 ADD PUSH1 0x40 MSTORE DUP1 SWAP3 SWAP2 SWAP1 DUP2 DUP2 MSTORE PUSH1 0x20 ADD DUP3 DUP1 SLOAD PUSH2 0x16A4 SWAP1 PUSH2 0x341D JUMP JUMPDEST DUP1 ISZERO PUSH2 0x16F1 JUMPI DUP1 PUSH1 0x1F LT PUSH2 0x16C6 JUMPI PUSH2 0x100 DUP1 DUP4 SLOAD DIV MUL DUP4 MSTORE SWAP2 PUSH1 0x20 ADD SWAP2 PUSH2 0x16F1 JUMP JUMPDEST DUP3 ADD SWAP2 SWAP1 PUSH1 0x0 MSTORE PUSH1 0x20 PUSH1 0x0 KECCAK256 SWAP1 JUMPDEST DUP2 SLOAD DUP2 MSTORE SWAP1 PUSH1 0x1 ADD SWAP1 PUSH1 0x20 ADD DUP1 DUP4 GT PUSH2 0x16D4 JUMPI DUP3 SWAP1 SUB PUSH1 0x1F AND DUP3 ADD SWAP2 JUMPDEST POP POP POP POP POP SWAP1 POP SWAP2 SWAP1 POP JUMP JUMPDEST PUSH1 0x60 PUSH1 0x7 DUP1 SLOAD DUP1 PUSH1 0x20 MUL PUSH1 0x20 ADD PUSH1 0x40 MLOAD SWAP1 DUP2 ADD PUSH1 0x40 MSTORE DUP1 SWAP3 SWAP2 SWAP1 DUP2 DUP2 MSTORE PUSH1 0x20 ADD DUP3 DUP1 SLOAD DUP1 ISZERO PUSH2 0x174B JUMPI PUSH1 0x20 MUL DUP3 ADD SWAP2 SWAP1 PUSH1 0x0 MSTORE PUSH1 0x20 PUSH1 0x0 KECCAK256 SWAP1 JUMPDEST DUP2 SLOAD DUP2 MSTORE PUSH1 0x20 ADD SWAP1 PUSH1 0x1 ADD SWAP1 DUP1 DUP4 GT PUSH2 0x1737 JUMPI JUMPDEST POP POP POP POP POP SWAP1 POP SWAP1 JUMP JUMPDEST PUSH1 0x0 SLOAD PUSH1 0x1 PUSH1 0x1 PUSH1 0xA0 SHL SUB AND CALLER EQ PUSH2 0x177F JUMPI PUSH1 0x40 MLOAD PUSH3 0x461BCD PUSH1 0xE5 SHL DUP2 MSTORE PUSH1 0x4 ADD PUSH2 0x9B8 SWAP1 PUSH2 0x35E2 JUMP JUMPDEST PUSH1 0x1 PUSH1 0x1 PUSH1 0xA0 SHL SUB DUP2 AND PUSH2 0x17A6 JUMPI PUSH1 0x40 MLOAD PUSH4 0xE6C4247B PUSH1 0xE0 SHL DUP2 MSTORE PUSH1 0x4 ADD PUSH1 0x40 MLOAD DUP1 SWAP2 SUB SWAP1 REVERT JUMPDEST PUSH1 0x0 DUP1 SLOAD PUSH1 0x1 PUSH1 0x1 PUSH1 0xA0 SHL SUB SWAP1 DUP2 AND DUP3 MSTORE PUSH1 0x6 PUSH1 0x20 DUP2 DUP2 MSTORE PUSH1 0x40 DUP1 DUP6 KECCAK256 DUP1 SLOAD PUSH1 0xFF NOT SWAP1 DUP2 AND SWAP1 SWAP2 SSTORE DUP6 SLOAD DUP6 AND DUP7 MSTORE PUSH1 0x5 DUP1 DUP5 MSTORE DUP3 DUP8 KECCAK256 DUP2 ADD DUP1 SLOAD DUP4 AND SWAP1 SSTORE DUP7 SLOAD PUSH1 0x1 PUSH1 0x1 PUSH1 0xA0 SHL SUB NOT AND SWAP6 DUP9 AND SWAP6 DUP7 OR DUP8 SSTORE DUP6 DUP8 MSTORE SWAP4 DUP4 MSTORE DUP2 DUP7 KECCAK256 DUP1 SLOAD SWAP1 SWAP2 AND PUSH1 0x1 SWAP1 DUP2 OR SWAP1 SWAP2 SSTORE DUP2 MLOAD PUSH2 0x120 DUP2 ADD DUP4 MSTORE PUSH1 0xE0 DUP2 ADD DUP6 DUP2 MSTORE PUSH5 0x20B236B4B7 PUSH1 0xD9 SHL PUSH2 0x100 DUP4 ADD DUP2 SWAP1 MSTORE SWAP1 DUP3 MSTORE DUP4 MLOAD DUP1 DUP7 ADD DUP6 MSTORE DUP9 DUP2 MSTORE DUP3 DUP7 ADD MSTORE DUP4 MLOAD DUP1 DUP6 ADD DUP6 MSTORE DUP7 DUP2 MSTORE DUP1 DUP7 ADD SWAP2 SWAP1 SWAP2 MSTORE DUP2 DUP5 ADD MSTORE DUP3 MLOAD DUP1 DUP6 ADD DUP5 MSTORE DUP8 DUP2 MSTORE PUSH1 0x60 DUP3 ADD MSTORE DUP3 MLOAD DUP1 DUP5 ADD DUP5 MSTORE PUSH1 0x14 DUP2 MSTORE PUSH20 0x29BCB9BA32B69020B236B4B734B9BA3930BA37B9 PUSH1 0x61 SHL DUP2 DUP7 ADD MSTORE PUSH1 0x80 DUP3 ADD MSTORE PUSH1 0xA0 DUP2 ADD DUP3 SWAP1 MSTORE PUSH1 0xC0 DUP2 ADD SWAP2 SWAP1 SWAP2 MSTORE SWAP4 DUP6 MSTORE SWAP2 SWAP1 MSTORE SWAP1 SWAP2 KECCAK256 DUP2 MLOAD DUP2 SWAP1 PUSH2 0x18B6 SWAP1 DUP3 PUSH2 0x34EC JUMP JUMPDEST POP PUSH1 0x20 DUP3 ADD MLOAD PUSH1 0x1 DUP3 ADD SWAP1 PUSH2 0x18CB SWAP1 DUP3 PUSH2 0x34EC JUMP JUMPDEST POP PUSH1 0x40 DUP3 ADD MLOAD PUSH1 0x2 DUP3 ADD SWAP1 PUSH2 0x18E0 SWAP1 DUP3 PUSH2 0x34EC JUMP JUMPDEST POP PUSH1 0x60 DUP3 ADD MLOAD PUSH1 0x3 DUP3 ADD SWAP1 PUSH2 0x18F5 SWAP1 DUP3 PUSH2 0x34EC JUMP JUMPDEST POP PUSH1 0x80 DUP3 ADD MLOAD PUSH1 0x4 DUP3 ADD SWAP1 PUSH2 0x190A SWAP1 DUP3 PUSH2 0x34EC JUMP JUMPDEST POP PUSH1 0xA0 DUP3 ADD MLOAD PUSH1 0x5 SWAP1 SWAP2 ADD DUP1 SLOAD PUSH1 0xC0 SWAP1 SWAP4 ADD MLOAD ISZERO ISZERO PUSH2 0x100 MUL PUSH2 0xFF00 NOT SWAP3 ISZERO ISZERO SWAP3 SWAP1 SWAP3 AND PUSH2 0xFFFF NOT SWAP1 SWAP4 AND SWAP3 SWAP1 SWAP3 OR OR SWAP1 SSTORE PUSH1 0x40 MLOAD PUSH1 0x1 PUSH1 0x1 PUSH1 0xA0 SHL SUB DUP3 AND SWAP1 PUSH32 0x5A1A1BD8D52A28DF3C36664A5968C59A58035ADC8CAA3077C7198F792776312C SWAP1 PUSH2 0x1975 SWAP1 PUSH2 0x3651 JUMP JUMPDEST PUSH1 0x40 MLOAD DUP1 SWAP2 SUB SWAP1 LOG2 POP JUMP JUMPDEST PUSH1 0x0 DUP2 DUP2 MSTORE PUSH1 0x3 PUSH1 0x20 MSTORE PUSH1 0x40 DUP2 KECCAK256 PUSH1 0x5 ADD SLOAD DUP3 SWAP1 PUSH1 0x1 PUSH1 0xA8 SHL SWAP1 DIV PUSH1 0xFF AND PUSH2 0x19BE JUMPI PUSH1 0x40 MLOAD PUSH4 0x92691CAB PUSH1 0xE0 SHL DUP2 MSTORE PUSH1 0x4 DUP2 ADD DUP3 SWAP1 MSTORE PUSH1 0x24 ADD PUSH2 0x9B8 JUMP JUMPDEST POP POP PUSH1 0x0 SWAP1 DUP2 MSTORE PUSH1 0x4 PUSH1 0x20 MSTORE PUSH1 0x40 SWAP1 KECCAK256 SLOAD SWAP1 JUMP JUMPDEST CALLER PUSH1 0x0 SWAP1 DUP2 MSTORE PUSH1 0x6 PUSH1 0x20 MSTORE PUSH1 0x40 SWAP1 KECCAK256 SLOAD PUSH1 0xFF AND PUSH2 0x1A01 JUMPI PUSH1 0x40 MLOAD PUSH3 0x461BCD PUSH1 0xE5 SHL DUP2 MSTORE PUSH1 0x4 ADD PUSH2 0x9B8 SWAP1 PUSH2 0x3451 JUMP JUMPDEST CALLER PUSH1 0x0 SWAP1 DUP2 MSTORE PUSH1 0x5 PUSH1 0x20 MSTORE PUSH1 0x40 SWAP1 KECCAK256 PUSH2 0x1A1A DUP7 DUP3 PUSH2 0x34EC JUMP JUMPDEST POP CALLER PUSH1 0x0 SWAP1 DUP2 MSTORE PUSH1 0x5 PUSH1 0x20 MSTORE PUSH1 0x40 SWAP1 KECCAK256 PUSH1 0x1 ADD PUSH2 0x1A37 DUP6 DUP3 PUSH2 0x34EC JUMP JUMPDEST POP CALLER PUSH1 0x0 SWAP1 DUP2 MSTORE PUSH1 0x5 PUSH1 0x20 MSTORE PUSH1 0x40 SWAP1 KECCAK256 PUSH1 0x2 ADD PUSH2 0x1A54 DUP5 DUP3 PUSH2 0x34EC JUMP JUMPDEST POP CALLER PUSH1 0x0 SWAP1 DUP2 MSTORE PUSH1 0x5 PUSH1 0x20 MSTORE PUSH1 0x40 SWAP1 KECCAK256 PUSH1 0x3 ADD PUSH2 0x1A71 DUP4 DUP3 PUSH2 0x34EC JUMP JUMPDEST POP CALLER PUSH1 0x0 SWAP1 DUP2 MSTORE PUSH1 0x5 PUSH1 0x20 MSTORE PUSH1 0x40 SWAP1 KECCAK256 PUSH1 0x4 ADD PUSH2 0x1A8E DUP3 DUP3 PUSH2 0x34EC JUMP JUMPDEST POP CALLER PUSH1 0x1 PUSH1 0x1 PUSH1 0xA0 SHL SUB AND PUSH32 0x5F9FCBC17FBA60677AE056851409CA727B54B90CB63BE975F68684D06613B078 DUP7 PUSH1 0x40 MLOAD PUSH2 0x1AC8 SWAP2 SWAP1 PUSH2 0x3096 JUMP JUMPDEST PUSH1 0x40 MLOAD DUP1 SWAP2 SUB SWAP1 LOG2 POP POP POP POP POP JUMP JUMPDEST PUSH1 0x3 PUSH1 0x20 MSTORE PUSH1 0x0 SWAP1 DUP2 MSTORE PUSH1 0x40 SWAP1 KECCAK256 DUP1 SLOAD PUSH1 0x1 DUP3 ADD DUP1 SLOAD SWAP2 SWAP3 SWAP2 PUSH2 0x1AF9 SWAP1 PUSH2 0x341D JUMP JUMPDEST DUP1 PUSH1 0x1F ADD PUSH1 0x20 DUP1 SWAP2 DIV MUL PUSH1 0x20 ADD PUSH1 0x40 MLOAD SWAP1 DUP2 ADD PUSH1 0x40 MSTORE DUP1 SWAP3 SWAP2 SWAP1 DUP2 DUP2 MSTORE PUSH1 0x20 ADD DUP3 DUP1 SLOAD PUSH2 0x1B25 SWAP1 PUSH2 0x341D JUMP JUMPDEST DUP1 ISZERO PUSH2 0x1B72 JUMPI DUP1 PUSH1 0x1F LT PUSH2 0x1B47 JUMPI PUSH2 0x100 DUP1 DUP4 SLOAD DIV MUL DUP4 MSTORE SWAP2 PUSH1 0x20 ADD SWAP2 PUSH2 0x1B72 JUMP JUMPDEST DUP3 ADD SWAP2 SWAP1 PUSH1 0x0 MSTORE PUSH1 0x20 PUSH1 0x0 KECCAK256 SWAP1 JUMPDEST DUP2 SLOAD DUP2 MSTORE SWAP1 PUSH1 0x1 ADD SWAP1 PUSH1 0x20 ADD DUP1 DUP4 GT PUSH2 0x1B55 JUMPI DUP3 SWAP1 SUB PUSH1 0x1F AND DUP3 ADD SWAP2 JUMPDEST POP POP POP POP POP SWAP1 DUP1 PUSH1 0x2 ADD DUP1 SLOAD PUSH2 0x1B87 SWAP1 PUSH2 0x341D JUMP JUMPDEST DUP1 PUSH1 0x1F ADD PUSH1 0x20 DUP1 SWAP2 DIV MUL PUSH1 0x20 ADD PUSH1 0x40 MLOAD SWAP1 DUP2 ADD PUSH1 0x40 MSTORE DUP1 SWAP3 SWAP2 SWAP1 DUP2 DUP2 MSTORE PUSH1 0x20 ADD DUP3 DUP1 SLOAD PUSH2 0x1BB3 SWAP1 PUSH2 0x341D JUMP JUMPDEST DUP1 ISZERO PUSH2 0x1C00 JUMPI DUP1 PUSH1 0x1F LT PUSH2 0x1BD5 JUMPI PUSH2 0x100 DUP1 DUP4 SLOAD DIV MUL DUP4 MSTORE SWAP2 PUSH1 0x20 ADD SWAP2 PUSH2 0x1C00 JUMP JUMPDEST DUP3 ADD SWAP2 SWAP1 PUSH1 0x0 MSTORE PUSH1 0x20 PUSH1 0x0 KECCAK256 SWAP1 JUMPDEST DUP2 SLOAD DUP2 MSTORE SWAP1 PUSH1 0x1 ADD SWAP1 PUSH1 0x20 ADD DUP1 DUP4 GT PUSH2 0x1BE3 JUMPI DUP3 SWAP1 SUB PUSH1 0x1F AND DUP3 ADD SWAP2 JUMPDEST POP POP POP PUSH1 0x3 DUP5 ADD SLOAD PUSH1 0x4 DUP6 ADD SLOAD PUSH1 0x5 SWAP1 SWAP6 ADD SLOAD SWAP4 SWAP5 SWAP1 SWAP4 PUSH1 0x1 PUSH1 0x1 PUSH1 0xA0 SHL SUB SWAP2 DUP3 AND SWAP4 POP SWAP1 DUP2 AND SWAP2 POP PUSH1 0xFF PUSH1 0x1 PUSH1 0xA0 SHL DUP3 DIV DUP2 AND SWAP2 PUSH1 0x1 PUSH1 0xA8 SHL SWAP1 DIV AND DUP9 JUMP JUMPDEST PUSH1 0x0 DUP7 DUP2 MSTORE PUSH1 0x3 PUSH1 0x20 MSTORE PUSH1 0x40 SWAP1 KECCAK256 PUSH1 0x5 ADD SLOAD DUP7 SWAP1 PUSH1 0x1 PUSH1 0xA8 SHL SWAP1 DIV PUSH1 0xFF AND PUSH2 0x1C7E JUMPI PUSH1 0x40 MLOAD PUSH4 0x92691CAB PUSH1 0xE0 SHL DUP2 MSTORE PUSH1 0x4 DUP2 ADD DUP3 SWAP1 MSTORE PUSH1 0x24 ADD PUSH2 0x9B8 JUMP JUMPDEST CALLER PUSH1 0x0 SWAP1 DUP2 MSTORE PUSH1 0x6 PUSH1 0x20 MSTORE PUSH1 0x40 SWAP1 KECCAK256 SLOAD PUSH1 0xFF AND PUSH2 0x1CAD JUMPI PUSH1 0x40 MLOAD PUSH3 0x461BCD PUSH1 0xE5 SHL DUP2 MSTORE PUSH1 0x4 ADD PUSH2 0x9B8 SWAP1 PUSH2 0x3451 JUMP JUMPDEST PUSH1 0x0 DUP8 DUP2 MSTORE PUSH1 0x3 PUSH1 0x20 MSTORE PUSH1 0x40 SWAP1 KECCAK256 PUSH1 0x5 DUP2 ADD SLOAD PUSH1 0x1 PUSH1 0x1 PUSH1 0xA0 SHL SUB AND CALLER EQ PUSH2 0x1CE8 JUMPI PUSH1 0x40 MLOAD PUSH4 0x35CD3B6D PUSH1 0xE0 SHL DUP2 MSTORE PUSH1 0x4 ADD PUSH1 0x40 MLOAD DUP1 SWAP2 SUB SWAP1 REVERT JUMPDEST PUSH1 0x1 PUSH1 0x1 PUSH1 0xA0 SHL SUB DUP8 AND PUSH1 0x0 SWAP1 DUP2 MSTORE PUSH1 0x6 PUSH1 0x20 MSTORE PUSH1 0x40 SWAP1 KECCAK256 SLOAD PUSH1 0xFF AND PUSH2 0x1D21 JUMPI PUSH1 0x40 MLOAD PUSH4 0x6E65C1BD PUSH1 0xE0 SHL DUP2 MSTORE PUSH1 0x4 ADD PUSH1 0x40 MLOAD DUP1 SWAP2 SUB SWAP1 REVERT JUMPDEST PUSH1 0x1 PUSH1 0x1 PUSH1 0xA0 SHL SUB DUP8 AND PUSH2 0x1D48 JUMPI PUSH1 0x40 MLOAD PUSH4 0xE6C4247B PUSH1 0xE0 SHL DUP2 MSTORE PUSH1 0x4 ADD PUSH1 0x40 MLOAD DUP1 SWAP2 SUB SWAP1 REVERT JUMPDEST PUSH1 0x5 DUP2 ADD SLOAD PUSH1 0x0 SWAP1 PUSH2 0x1D65 SWAP1 PUSH1 0x1 PUSH1 0xA0 SHL SWAP1 DIV PUSH1 0xFF AND PUSH1 0x1 PUSH2 0x369A JUMP JUMPDEST SWAP1 POP PUSH1 0x3 DUP2 PUSH1 0xFF AND GT ISZERO PUSH2 0x1D8C JUMPI PUSH1 0x40 MLOAD PUSH4 0xE82A5329 PUSH1 0xE0 SHL DUP2 MSTORE PUSH1 0x4 ADD PUSH1 0x40 MLOAD DUP1 SWAP2 SUB SWAP1 REVERT JUMPDEST DUP7 MLOAD PUSH1 0x0 SUB PUSH2 0x1DAE JUMPI PUSH1 0x40 MLOAD PUSH4 0xECD7B0D1 PUSH1 0xE0 SHL DUP2 MSTORE PUSH1 0x4 ADD PUSH1 0x40 MLOAD DUP1 SWAP2 SUB SWAP1 REVERT JUMPDEST DUP6 MLOAD PUSH1 0x0 SUB PUSH2 0x1DD0 JUMPI PUSH1 0x40 MLOAD PUSH4 0xECD7B0D1 PUSH1 0xE0 SHL DUP2 MSTORE PUSH1 0x4 ADD PUSH1 0x40 MLOAD DUP1 SWAP2 SUB SWAP1 REVERT JUMPDEST PUSH1 0x2 DUP1 SLOAD SWAP1 PUSH1 0x0 PUSH2 0x1DE0 DUP4 PUSH2 0x3404 JUMP JUMPDEST SWAP2 SWAP1 POP SSTORE POP PUSH1 0x0 PUSH1 0x40 MLOAD DUP1 PUSH2 0x100 ADD PUSH1 0x40 MSTORE DUP1 DUP12 DUP2 MSTORE PUSH1 0x20 ADD CALLER PUSH1 0x1 PUSH1 0x1 PUSH1 0xA0 SHL SUB AND DUP2 MSTORE PUSH1 0x20 ADD DUP11 PUSH1 0x1 PUSH1 0x1 PUSH1 0xA0 SHL SUB AND DUP2 MSTORE PUSH1 0x20 ADD DUP10 DUP2 MSTORE PUSH1 0x20 ADD DUP9 DUP2 MSTORE PUSH1 0x20 ADD TIMESTAMP DUP2 MSTORE PUSH1 0x20 ADD DUP8 DUP2 MSTORE PUSH1 0x20 ADD DUP7 DUP2 MSTORE POP SWAP1 POP PUSH1 0x4 PUSH1 0x0 DUP12 DUP2 MSTORE PUSH1 0x20 ADD SWAP1 DUP2 MSTORE PUSH1 0x20 ADD PUSH1 0x0 KECCAK256 DUP2 SWAP1 DUP1 PUSH1 0x1 DUP2 SLOAD ADD DUP1 DUP3 SSTORE DUP1 SWAP2 POP POP PUSH1 0x1 SWAP1 SUB SWAP1 PUSH1 0x0 MSTORE PUSH1 0x20 PUSH1 0x0 KECCAK256 SWAP1 PUSH1 0x8 MUL ADD PUSH1 0x0 SWAP1 SWAP2 SWAP1 SWAP2 SWAP1 SWAP2 POP PUSH1 0x0 DUP3 ADD MLOAD DUP2 PUSH1 0x0 ADD SSTORE PUSH1 0x20 DUP3 ADD MLOAD DUP2 PUSH1 0x1 ADD PUSH1 0x0 PUSH2 0x100 EXP DUP2 SLOAD DUP2 PUSH1 0x1 PUSH1 0x1 PUSH1 0xA0 SHL SUB MUL NOT AND SWAP1 DUP4 PUSH1 0x1 PUSH1 0x1 PUSH1 0xA0 SHL SUB AND MUL OR SWAP1 SSTORE POP PUSH1 0x40 DUP3 ADD MLOAD DUP2 PUSH1 0x2 ADD PUSH1 0x0 PUSH2 0x100 EXP DUP2 SLOAD DUP2 PUSH1 0x1 PUSH1 0x1 PUSH1 0xA0 SHL SUB MUL NOT AND SWAP1 DUP4 PUSH1 0x1 PUSH1 0x1 PUSH1 0xA0 SHL SUB AND MUL OR SWAP1 SSTORE POP PUSH1 0x60 DUP3 ADD MLOAD DUP2 PUSH1 0x3 ADD SWAP1 DUP2 PUSH2 0x1EEB SWAP2 SWAP1 PUSH2 0x34EC JUMP JUMPDEST POP PUSH1 0x80 DUP3 ADD MLOAD PUSH1 0x4 DUP3 ADD SWAP1 PUSH2 0x1F00 SWAP1 DUP3 PUSH2 0x34EC JUMP JUMPDEST POP PUSH1 0xA0 DUP3 ADD MLOAD PUSH1 0x5 DUP3 ADD SSTORE PUSH1 0xC0 DUP3 ADD MLOAD PUSH1 0x6 DUP3 ADD SWAP1 PUSH2 0x1F1F SWAP1 DUP3 PUSH2 0x34EC JUMP JUMPDEST POP PUSH1 0xE0 DUP3 ADD MLOAD PUSH1 0x7 DUP3 ADD SWAP1 PUSH2 0x1F34 SWAP1 DUP3 PUSH2 0x34EC JUMP JUMPDEST POP POP POP PUSH1 0x5 DUP4 ADD DUP1 SLOAD PUSH1 0x1 PUSH1 0x1 PUSH1 0xA0 SHL SUB DUP12 AND PUSH1 0x1 PUSH1 0x1 PUSH1 0xA8 SHL SUB NOT SWAP1 SWAP2 AND DUP2 OR PUSH1 0x1 PUSH1 0xA0 SHL PUSH1 0xFF DUP7 AND MUL OR SWAP1 SWAP2 SSTORE PUSH1 0x40 MLOAD CALLER SWAP1 DUP13 SWAP1 PUSH32 0x467ADAED63BFA826BC051092CEE7992ECF6DB053F457619D5B58C544E52DD2EE SWAP1 PUSH2 0x1F9F SWAP1 DUP14 SWAP1 DUP14 SWAP1 TIMESTAMP SWAP1 DUP15 SWAP1 DUP15 SWAP1 PUSH2 0x36B9 JUMP JUMPDEST PUSH1 0x40 MLOAD DUP1 SWAP2 SUB SWAP1 LOG4 POP POP POP POP POP POP POP POP POP POP JUMP JUMPDEST PUSH1 0x0 DUP6 DUP2 MSTORE PUSH1 0x3 PUSH1 0x20 MSTORE PUSH1 0x40 SWAP1 KECCAK256 PUSH1 0x5 ADD SLOAD DUP6 SWAP1 PUSH1 0x1 PUSH1 0xA8 SHL SWAP1 DIV PUSH1 0xFF AND PUSH2 0x1FF1 JUMPI PUSH1 0x40 MLOAD PUSH4 0x92691CAB PUSH1 0xE0 SHL DUP2 MSTORE PUSH1 0x4 DUP2 ADD DUP3 SWAP1 MSTORE PUSH1 0x24 ADD PUSH2 0x9B8 JUMP JUMPDEST CALLER PUSH1 0x0 SWAP1 DUP2 MSTORE PUSH1 0x6 PUSH1 0x20 MSTORE PUSH1 0x40 SWAP1 KECCAK256 SLOAD PUSH1 0xFF AND PUSH2 0x2020 JUMPI PUSH1 0x40 MLOAD PUSH3 0x461BCD PUSH1 0xE5 SHL DUP2 MSTORE PUSH1 0x4 ADD PUSH2 0x9B8 SWAP1 PUSH2 0x3451 JUMP JUMPDEST PUSH1 0x0 DUP7 DUP2 MSTORE PUSH1 0x3 PUSH1 0x20 MSTORE PUSH1 0x40 SWAP1 KECCAK256 PUSH1 0x5 DUP2 ADD SLOAD PUSH1 0x1 PUSH1 0x1 PUSH1 0xA0 SHL SUB AND CALLER EQ PUSH2 0x205B JUMPI PUSH1 0x40 MLOAD PUSH4 0x35CD3B6D PUSH1 0xE0 SHL DUP2 MSTORE PUSH1 0x4 ADD PUSH1 0x40 MLOAD DUP1 SWAP2 SUB SWAP1 REVERT JUMPDEST PUSH1 0x1 PUSH1 0x1 PUSH1 0xA0 SHL SUB DUP7 AND PUSH1 0x0 SWAP1 DUP2 MSTORE PUSH1 0x6 PUSH1 0x20 MSTORE PUSH1 0x40 SWAP1 KECCAK256 SLOAD PUSH1 0xFF AND PUSH2 0x2094 JUMPI PUSH1 0x40 MLOAD PUSH4 0x6E65C1BD PUSH1 0xE0 SHL DUP2 MSTORE PUSH1 0x4 ADD PUSH1 0x40 MLOAD DUP1 SWAP2 SUB SWAP1 REVERT JUMPDEST PUSH1 0x1 PUSH1 0x1 PUSH1 0xA0 SHL SUB DUP7 AND PUSH2 0x20BB JUMPI PUSH1 0x40 MLOAD PUSH4 0xE6C4247B PUSH1 0xE0 SHL DUP2 MSTORE PUSH1 0x4 ADD PUSH1 0x40 MLOAD DUP1 SWAP2 SUB SWAP1 REVERT JUMPDEST PUSH1 0x5 DUP2 ADD SLOAD PUSH1 0x0 SWAP1 PUSH2 0x20D8 SWAP1 PUSH1 0x1 PUSH1 0xA0 SHL SWAP1 DIV PUSH1 0xFF AND PUSH1 0x1 PUSH2 0x369A JUMP JUMPDEST SWAP1 POP PUSH1 0x3 DUP2 PUSH1 0xFF AND GT ISZERO PUSH2 0x20FF JUMPI PUSH1 0x40 MLOAD PUSH4 0xE82A5329 PUSH1 0xE0 SHL DUP2 MSTORE PUSH1 0x4 ADD PUSH1 0x40 MLOAD DUP1 SWAP2 SUB SWAP1 REVERT JUMPDEST DUP6 MLOAD PUSH1 0x0 SUB PUSH2 0x2121 JUMPI PUSH1 0x40 MLOAD PUSH4 0xECD7B0D1 PUSH1 0xE0 SHL DUP2 MSTORE PUSH1 0x4 ADD PUSH1 0x40 MLOAD DUP1 SWAP2 SUB SWAP1 REVERT JUMPDEST DUP5 MLOAD PUSH1 0x0 SUB PUSH2 0x2143 JUMPI PUSH1 0x40 MLOAD PUSH4 0xECD7B0D1 PUSH1 0xE0 SHL DUP2 MSTORE PUSH1 0x4 ADD PUSH1 0x40 MLOAD DUP1 SWAP2 SUB SWAP1 REVERT JUMPDEST PUSH1 0x2 DUP1 SLOAD SWAP1 PUSH1 0x0 PUSH2 0x2153 DUP4 PUSH2 0x3404 JUMP JUMPDEST SWAP1 SWAP2 SSTORE POP POP PUSH1 0x40 DUP1 MLOAD PUSH2 0x100 DUP2 ADD DUP3 MSTORE DUP10 DUP2 MSTORE CALLER PUSH1 0x20 DUP1 DUP4 ADD SWAP2 DUP3 MSTORE PUSH1 0x1 PUSH1 0x1 PUSH1 0xA0 SHL SUB DUP12 DUP2 AND DUP5 DUP7 ADD SWAP1 DUP2 MSTORE PUSH1 0x60 DUP6 ADD DUP13 DUP2 MSTORE PUSH1 0x80 DUP7 ADD DUP13 SWAP1 MSTORE TIMESTAMP PUSH1 0xA0 DUP8 ADD MSTORE PUSH1 0xC0 DUP7 ADD DUP12 SWAP1 MSTORE DUP7 MLOAD DUP1 DUP6 ADD DUP9 MSTORE PUSH1 0x0 DUP1 DUP3 MSTORE PUSH1 0xE0 DUP9 ADD SWAP2 SWAP1 SWAP2 MSTORE DUP16 DUP2 MSTORE PUSH1 0x4 DUP6 MSTORE SWAP7 DUP8 KECCAK256 DUP1 SLOAD PUSH1 0x1 DUP1 DUP3 ADD DUP4 SSTORE SWAP2 DUP10 MSTORE SWAP5 SWAP1 SWAP8 KECCAK256 DUP7 MLOAD PUSH1 0x8 SWAP1 SWAP6 MUL ADD SWAP4 DUP5 SSTORE SWAP4 MLOAD SWAP6 DUP4 ADD DUP1 SLOAD PUSH1 0x1 PUSH1 0x1 PUSH1 0xA0 SHL SUB NOT SWAP1 DUP2 AND SWAP8 DUP5 AND SWAP8 SWAP1 SWAP8 OR SWAP1 SSTORE MLOAD PUSH1 0x2 DUP4 ADD DUP1 SLOAD SWAP1 SWAP7 AND SWAP2 AND OR SWAP1 SWAP4 SSTORE MLOAD SWAP1 SWAP2 DUP3 SWAP2 PUSH1 0x3 DUP3 ADD SWAP1 PUSH2 0x2214 SWAP1 DUP3 PUSH2 0x34EC JUMP JUMPDEST POP PUSH1 0x80 DUP3 ADD MLOAD PUSH1 0x4 DUP3 ADD SWAP1 PUSH2 0x2229 SWAP1 DUP3 PUSH2 0x34EC JUMP JUMPDEST POP PUSH1 0xA0 DUP3 ADD MLOAD PUSH1 0x5 DUP3 ADD SSTORE PUSH1 0xC0 DUP3 ADD MLOAD PUSH1 0x6 DUP3 ADD SWAP1 PUSH2 0x2248 SWAP1 DUP3 PUSH2 0x34EC JUMP JUMPDEST POP PUSH1 0xE0 DUP3 ADD MLOAD PUSH1 0x7 DUP3 ADD SWAP1 PUSH2 0x225D SWAP1 DUP3 PUSH2 0x34EC JUMP JUMPDEST POP POP POP PUSH1 0x5 DUP4 ADD DUP1 SLOAD PUSH1 0x1 PUSH1 0x1 PUSH1 0xA0 SHL SUB DUP11 AND PUSH1 0x1 PUSH1 0x1 PUSH1 0xA8 SHL SUB NOT SWAP1 SWAP2 AND DUP2 OR PUSH1 0x1 PUSH1 0xA0 SHL PUSH1 0xFF DUP7 AND MUL OR SWAP1 SWAP2 SSTORE PUSH1 0x40 MLOAD CALLER SWAP1 DUP12 SWAP1 PUSH32 0x467ADAED63BFA826BC051092CEE7992ECF6DB053F457619D5B58C544E52DD2EE SWAP1 PUSH2 0x22C6 SWAP1 DUP13 SWAP1 DUP13 SWAP1 TIMESTAMP SWAP1 DUP14 SWAP1 PUSH2 0x3718 JUMP JUMPDEST PUSH1 0x40 MLOAD DUP1 SWAP2 SUB SWAP1 LOG4 POP POP POP POP POP POP POP POP POP JUMP JUMPDEST PUSH1 0x0 SLOAD PUSH1 0x1 PUSH1 0x1 PUSH1 0xA0 SHL SUB AND CALLER EQ PUSH2 0x2303 JUMPI PUSH1 0x40 MLOAD PUSH3 0x461BCD PUSH1 0xE5 SHL DUP2 MSTORE PUSH1 0x4 ADD PUSH2 0x9B8 SWAP1 PUSH2 0x35E2 JUMP JUMPDEST PUSH1 0x1 PUSH1 0x1 PUSH1 0xA0 SHL SUB DUP2 AND PUSH1 0x0 DUP2 DUP2 MSTORE PUSH1 0x6 PUSH1 0x20 SWAP1 DUP2 MSTORE PUSH1 0x40 DUP1 DUP4 KECCAK256 DUP1 SLOAD PUSH1 0xFF NOT SWAP1 DUP2 AND SWAP1 SWAP2 SSTORE PUSH1 0x5 SWAP3 DUP4 SWAP1 MSTORE DUP2 DUP5 KECCAK256 SWAP1 SWAP3 ADD DUP1 SLOAD SWAP1 SWAP3 AND SWAP1 SWAP2 SSTORE MLOAD PUSH32 0xCFC24166DB4BB677E857CACABD1541FB2B30645021B27C5130419589B84DB52B SWAP2 SWAP1 LOG2 POP JUMP JUMPDEST PUSH1 0x0 DUP2 DUP2 MSTORE PUSH1 0x3 PUSH1 0x20 MSTORE PUSH1 0x40 DUP2 KECCAK256 PUSH1 0x5 ADD SLOAD PUSH1 0x60 SWAP1 DUP2 SWAP1 DUP4 SWAP1 DUP2 SWAP1 DUP2 SWAP1 DUP2 SWAP1 DUP9 SWAP1 PUSH1 0x1 PUSH1 0xA8 SHL SWAP1 DIV PUSH1 0xFF AND PUSH2 0x23B0 JUMPI PUSH1 0x40 MLOAD PUSH4 0x92691CAB PUSH1 0xE0 SHL DUP2 MSTORE PUSH1 0x4 DUP2 ADD DUP3 SWAP1 MSTORE PUSH1 0x24 ADD PUSH2 0x9B8 JUMP JUMPDEST PUSH1 0x0 PUSH1 0x3 PUSH1 0x0 DUP12 DUP2 MSTORE PUSH1 0x20 ADD SWAP1 DUP2 MSTORE PUSH1 0x20 ADD PUSH1 0x0 KECCAK256 PUSH1 0x40 MLOAD DUP1 PUSH2 0x100 ADD PUSH1 0x40 MSTORE SWAP1 DUP2 PUSH1 0x0 DUP3 ADD SLOAD DUP2 MSTORE PUSH1 0x20 ADD PUSH1 0x1 DUP3 ADD DUP1 SLOAD PUSH2 0x23EB SWAP1 PUSH2 0x341D JUMP JUMPDEST DUP1 PUSH1 0x1F ADD PUSH1 0x20 DUP1 SWAP2 DIV MUL PUSH1 0x20 ADD PUSH1 0x40 MLOAD SWAP1 DUP2 ADD PUSH1 0x40 MSTORE DUP1 SWAP3 SWAP2 SWAP1 DUP2 DUP2 MSTORE PUSH1 0x20 ADD DUP3 DUP1 SLOAD PUSH2 0x2417 SWAP1 PUSH2 0x341D JUMP JUMPDEST DUP1 ISZERO PUSH2 0x2464 JUMPI DUP1 PUSH1 0x1F LT PUSH2 0x2439 JUMPI PUSH2 0x100 DUP1 DUP4 SLOAD DIV MUL DUP4 MSTORE SWAP2 PUSH1 0x20 ADD SWAP2 PUSH2 0x2464 JUMP JUMPDEST DUP3 ADD SWAP2 SWAP1 PUSH1 0x0 MSTORE PUSH1 0x20 PUSH1 0x0 KECCAK256 SWAP1 JUMPDEST DUP2 SLOAD DUP2 MSTORE SWAP1 PUSH1 0x1 ADD SWAP1 PUSH1 0x20 ADD DUP1 DUP4 GT PUSH2 0x2447 JUMPI DUP3 SWAP1 SUB PUSH1 0x1F AND DUP3 ADD SWAP2 JUMPDEST POP POP POP POP POP DUP2 MSTORE PUSH1 0x20 ADD PUSH1 0x2 DUP3 ADD DUP1 SLOAD PUSH2 0x247D SWAP1 PUSH2 0x341D JUMP JUMPDEST DUP1 PUSH1 0x1F ADD PUSH1 0x20 DUP1 SWAP2 DIV MUL PUSH1 0x20 ADD PUSH1 0x40 MLOAD SWAP1 DUP2 ADD PUSH1 0x40 MSTORE DUP1 SWAP3 SWAP2 SWAP1 DUP2 DUP2 MSTORE PUSH1 0x20 ADD DUP3 DUP1 SLOAD PUSH2 0x24A9 SWAP1 PUSH2 0x341D JUMP JUMPDEST DUP1 ISZERO PUSH2 0x24F6 JUMPI DUP1 PUSH1 0x1F LT PUSH2 0x24CB JUMPI PUSH2 0x100 DUP1 DUP4 SLOAD DIV MUL DUP4 MSTORE SWAP2 PUSH1 0x20 ADD SWAP2 PUSH2 0x24F6 JUMP JUMPDEST DUP3 ADD SWAP2 SWAP1 PUSH1 0x0 MSTORE PUSH1 0x20 PUSH1 0x0 KECCAK256 SWAP1 JUMPDEST DUP2 SLOAD DUP2 MSTORE SWAP1 PUSH1 0x1 ADD SWAP1 PUSH1 0x20 ADD DUP1 DUP4 GT PUSH2 0x24D9 JUMPI DUP3 SWAP1 SUB PUSH1 0x1F AND DUP3 ADD SWAP2 JUMPDEST POP POP POP SWAP2 DUP4 MSTORE POP POP PUSH1 0x3 DUP3 ADD SLOAD PUSH1 0x20 DUP1 DUP4 ADD SWAP2 SWAP1 SWAP2 MSTORE PUSH1 0x4 DUP4 ADD SLOAD PUSH1 0x1 PUSH1 0x1 PUSH1 0xA0 SHL SUB SWAP1 DUP2 AND PUSH1 0x40 DUP1 DUP6 ADD SWAP2 SWAP1 SWAP2 MSTORE PUSH1 0x5 SWAP1 SWAP5 ADD SLOAD SWAP1 DUP2 AND PUSH1 0x60 DUP1 DUP6 ADD SWAP2 SWAP1 SWAP2 MSTORE PUSH1 0xFF PUSH1 0x1 PUSH1 0xA0 SHL DUP4 DIV DUP2 AND PUSH1 0x80 DUP1 DUP8 ADD SWAP2 SWAP1 SWAP2 MSTORE PUSH1 0x1 PUSH1 0xA8 SHL SWAP1 SWAP4 DIV AND ISZERO ISZERO PUSH1 0xA0 SWAP5 DUP6 ADD MSTORE DUP6 MLOAD SWAP3 DUP7 ADD MLOAD SWAP5 DUP7 ADD MLOAD SWAP1 DUP7 ADD MLOAD SWAP2 DUP7 ADD MLOAD SWAP4 DUP7 ADD MLOAD PUSH1 0xC0 SWAP1 SWAP7 ADD MLOAD SWAP3 SWAP15 POP SWAP4 SWAP13 POP SWAP3 SWAP11 POP SWAP2 SWAP9 POP SWAP7 POP SWAP1 SWAP5 POP SWAP3 POP POP POP SWAP2 SWAP4 SWAP6 SWAP8 SWAP1 SWAP3 SWAP5 SWAP7 POP JUMP JUMPDEST PUSH1 0x0 SLOAD PUSH1 0x1 PUSH1 0x1 PUSH1 0xA0 SHL SUB AND CALLER EQ PUSH2 0x25C2 JUMPI PUSH1 0x40 MLOAD PUSH3 0x461BCD PUSH1 0xE5 SHL DUP2 MSTORE PUSH1 0x4 ADD PUSH2 0x9B8 SWAP1 PUSH2 0x35E2 JUMP JUMPDEST PUSH1 0x40 DUP1 MLOAD PUSH1 0xE0 DUP2 ADD DUP3 MSTORE DUP3 DUP2 MSTORE DUP2 MLOAD PUSH1 0x20 DUP2 DUP2 ADD DUP5 MSTORE PUSH1 0x0 DUP1 DUP4 MSTORE DUP2 DUP5 ADD SWAP3 SWAP1 SWAP3 MSTORE DUP4 MLOAD DUP1 DUP6 ADD DUP6 MSTORE PUSH1 0xD DUP2 MSTORE PUSH13 0x155B98D85D1959DBDC9A5E9959 PUSH1 0x9A SHL DUP2 DUP4 ADD MSTORE DUP4 DUP6 ADD MSTORE DUP4 MLOAD DUP1 DUP3 ADD DUP6 MSTORE DUP3 DUP2 MSTORE PUSH1 0x60 DUP5 ADD MSTORE DUP4 MLOAD DUP1 DUP3 ADD DUP6 MSTORE DUP3 DUP2 MSTORE PUSH1 0x80 DUP5 ADD MSTORE PUSH1 0x1 PUSH1 0xA0 DUP5 ADD DUP2 SWAP1 MSTORE PUSH1 0xC0 DUP5 ADD MSTORE PUSH1 0x1 PUSH1 0x1 PUSH1 0xA0 SHL SUB DUP7 AND DUP3 MSTORE PUSH1 0x5 SWAP1 MSTORE SWAP2 SWAP1 SWAP2 KECCAK256 DUP2 MLOAD DUP2 SWAP1 PUSH2 0x2656 SWAP1 DUP3 PUSH2 0x34EC JUMP JUMPDEST POP PUSH1 0x20 DUP3 ADD MLOAD PUSH1 0x1 DUP3 ADD SWAP1 PUSH2 0x266B SWAP1 DUP3 PUSH2 0x34EC JUMP JUMPDEST POP PUSH1 0x40 DUP3 ADD MLOAD PUSH1 0x2 DUP3 ADD SWAP1 PUSH2 0x2680 SWAP1 DUP3 PUSH2 0x34EC JUMP JUMPDEST POP PUSH1 0x60 DUP3 ADD MLOAD PUSH1 0x3 DUP3 ADD SWAP1 PUSH2 0x2695 SWAP1 DUP3 PUSH2 0x34EC JUMP JUMPDEST POP PUSH1 0x80 DUP3 ADD MLOAD PUSH1 0x4 DUP3 ADD SWAP1 PUSH2 0x26AA SWAP1 DUP3 PUSH2 0x34EC JUMP JUMPDEST POP PUSH1 0xA0 DUP3 ADD MLOAD PUSH1 0x5 SWAP1 SWAP2 ADD DUP1 SLOAD PUSH1 0xC0 SWAP1 SWAP4 ADD MLOAD ISZERO ISZERO PUSH2 0x100 MUL PUSH2 0xFF00 NOT SWAP3 ISZERO ISZERO SWAP3 SWAP1 SWAP3 AND PUSH2 0xFFFF NOT SWAP1 SWAP4 AND SWAP3 SWAP1 SWAP3 OR OR SWAP1 SSTORE PUSH1 0x1 PUSH1 0x1 PUSH1 0xA0 SHL SUB DUP3 AND PUSH1 0x0 DUP2 DUP2 MSTORE PUSH1 0x6 PUSH1 0x20 MSTORE PUSH1 0x40 SWAP1 DUP2 SWAP1 KECCAK256 DUP1 SLOAD PUSH1 0xFF NOT AND PUSH1 0x1 OR SWAP1 SSTORE MLOAD PUSH32 0x5A1A1BD8D52A28DF3C36664A5968C59A58035ADC8CAA3077C7198F792776312C SWAP1 PUSH2 0x272F SWAP1 DUP5 SWAP1 PUSH2 0x3774 JUMP JUMPDEST PUSH1 0x40 MLOAD DUP1 SWAP2 SUB SWAP1 LOG2 POP POP JUMP JUMPDEST PUSH1 0x60 PUSH1 0x0 DUP1 JUMPDEST PUSH1 0x7 SLOAD DUP2 LT ISZERO PUSH2 0x275D JUMPI DUP1 PUSH2 0x2755 DUP2 PUSH2 0x3404 JUMP JUMPDEST SWAP2 POP POP PUSH2 0x2741 JUMP JUMPDEST POP POP PUSH1 0x40 DUP1 MLOAD PUSH1 0x0 DUP2 MSTORE PUSH1 0x20 DUP2 ADD SWAP1 SWAP2 MSTORE SWAP2 SWAP1 POP JUMP JUMPDEST PUSH1 0x7 DUP2 DUP2 SLOAD DUP2 LT PUSH2 0x2783 JUMPI PUSH1 0x0 DUP1 REVERT JUMPDEST PUSH1 0x0 SWAP2 DUP3 MSTORE PUSH1 0x20 SWAP1 SWAP2 KECCAK256 ADD SLOAD SWAP1 POP DUP2 JUMP JUMPDEST PUSH1 0x0 DUP3 DUP2 MSTORE PUSH1 0x3 PUSH1 0x20 MSTORE PUSH1 0x40 DUP2 KECCAK256 PUSH1 0x5 ADD SLOAD DUP2 SWAP1 PUSH1 0x60 SWAP1 DUP2 SWAP1 DUP4 SWAP1 DUP3 SWAP1 DUP2 SWAP1 DUP10 SWAP1 PUSH1 0x1 PUSH1 0xA8 SHL SWAP1 DIV PUSH1 0xFF AND PUSH2 0x27DF JUMPI PUSH1 0x40 MLOAD PUSH4 0x92691CAB PUSH1 0xE0 SHL DUP2 MSTORE PUSH1 0x4 DUP2 ADD DUP3 SWAP1 MSTORE PUSH1 0x24 ADD PUSH2 0x9B8 JUMP JUMPDEST PUSH1 0x0 DUP11 DUP2 MSTORE PUSH1 0x4 PUSH1 0x20 MSTORE PUSH1 0x40 SWAP1 KECCAK256 SLOAD DUP10 LT PUSH2 0x2832 JUMPI PUSH1 0x40 MLOAD PUSH3 0x461BCD PUSH1 0xE5 SHL DUP2 MSTORE PUSH1 0x20 PUSH1 0x4 DUP3 ADD MSTORE PUSH1 0x13 PUSH1 0x24 DUP3 ADD MSTORE PUSH19 0x496E646578206F7574206F6620626F756E6473 PUSH1 0x68 SHL PUSH1 0x44 DUP3 ADD MSTORE PUSH1 0x64 ADD PUSH2 0x9B8 JUMP JUMPDEST PUSH1 0x0 DUP11 DUP2 MSTORE PUSH1 0x4 PUSH1 0x20 MSTORE PUSH1 0x40 DUP2 KECCAK256 DUP1 SLOAD DUP12 SWAP1 DUP2 LT PUSH2 0x2852 JUMPI PUSH2 0x2852 PUSH2 0x33D8 JUMP JUMPDEST PUSH1 0x0 SWAP2 DUP3 MSTORE PUSH1 0x20 SWAP2 DUP3 SWAP1 KECCAK256 PUSH1 0x40 DUP1 MLOAD PUSH2 0x100 DUP2 ADD DUP3 MSTORE PUSH1 0x8 SWAP1 SWAP4 MUL SWAP1 SWAP2 ADD DUP1 SLOAD DUP4 MSTORE PUSH1 0x1 DUP2 ADD SLOAD PUSH1 0x1 PUSH1 0x1 PUSH1 0xA0 SHL SUB SWAP1 DUP2 AND SWAP5 DUP5 ADD SWAP5 SWAP1 SWAP5 MSTORE PUSH1 0x2 DUP2 ADD SLOAD SWAP1 SWAP4 AND SWAP1 DUP3 ADD MSTORE PUSH1 0x3 DUP3 ADD DUP1 SLOAD SWAP2 SWAP3 SWAP2 PUSH1 0x60 DUP5 ADD SWAP2 SWAP1 PUSH2 0x28AF SWAP1 PUSH2 0x341D JUMP JUMPDEST DUP1 PUSH1 0x1F ADD PUSH1 0x20 DUP1 SWAP2 DIV MUL PUSH1 0x20 ADD PUSH1 0x40 MLOAD SWAP1 DUP2 ADD PUSH1 0x40 MSTORE DUP1 SWAP3 SWAP2 SWAP1 DUP2 DUP2 MSTORE PUSH1 0x20 ADD DUP3 DUP1 SLOAD PUSH2 0x28DB SWAP1 PUSH2 0x341D JUMP JUMPDEST DUP1 ISZERO PUSH2 0x2928 JUMPI DUP1 PUSH1 0x1F LT PUSH2 0x28FD JUMPI PUSH2 0x100 DUP1 DUP4 SLOAD DIV MUL DUP4 MSTORE SWAP2 PUSH1 0x20 ADD SWAP2 PUSH2 0x2928 JUMP JUMPDEST DUP3 ADD SWAP2 SWAP1 PUSH1 0x0 MSTORE PUSH1 0x20 PUSH1 0x0 KECCAK256 SWAP1 JUMPDEST DUP2 SLOAD DUP2 MSTORE SWAP1 PUSH1 0x1 ADD SWAP1 PUSH1 0x20 ADD DUP1 DUP4 GT PUSH2 0x290B JUMPI DUP3 SWAP1 SUB PUSH1 0x1F AND DUP3 ADD SWAP2 JUMPDEST POP POP POP POP POP DUP2 MSTORE PUSH1 0x20 ADD PUSH1 0x4 DUP3 ADD DUP1 SLOAD PUSH2 0x2941 SWAP1 PUSH2 0x341D JUMP JUMPDEST DUP1 PUSH1 0x1F ADD PUSH1 0x20 DUP1 SWAP2 DIV MUL PUSH1 0x20 ADD PUSH1 0x40 MLOAD SWAP1 DUP2 ADD PUSH1 0x40 MSTORE DUP1 SWAP3 SWAP2 SWAP1 DUP2 DUP2 MSTORE PUSH1 0x20 ADD DUP3 DUP1 SLOAD PUSH2 0x296D SWAP1 PUSH2 0x341D JUMP JUMPDEST DUP1 ISZERO PUSH2 0x29BA JUMPI DUP1 PUSH1 0x1F LT PUSH2 0x298F JUMPI PUSH2 0x100 DUP1 DUP4 SLOAD DIV MUL DUP4 MSTORE SWAP2 PUSH1 0x20 ADD SWAP2 PUSH2 0x29BA JUMP JUMPDEST DUP3 ADD SWAP2 SWAP1 PUSH1 0x0 MSTORE PUSH1 0x20 PUSH1 0x0 KECCAK256 SWAP1 JUMPDEST DUP2 SLOAD DUP2 MSTORE SWAP1 PUSH1 0x1 ADD SWAP1 PUSH1 0x20 ADD DUP1 DUP4 GT PUSH2 0x299D JUMPI DUP3 SWAP1 SUB PUSH1 0x1F AND DUP3 ADD SWAP2 JUMPDEST POP POP POP POP POP DUP2 MSTORE PUSH1 0x20 ADD PUSH1 0x5 DUP3 ADD SLOAD DUP2 MSTORE PUSH1 0x20 ADD PUSH1 0x6 DUP3 ADD DUP1 SLOAD PUSH2 0x29DD SWAP1 PUSH2 0x341D JUMP JUMPDEST DUP1 PUSH1 0x1F ADD PUSH1 0x20 DUP1 SWAP2 DIV MUL PUSH1 0x20 ADD PUSH1 0x40 MLOAD SWAP1 DUP2 ADD PUSH1 0x40 MSTORE DUP1 SWAP3 SWAP2 SWAP1 DUP2 DUP2 MSTORE PUSH1 0x20 ADD DUP3 DUP1 SLOAD PUSH2 0x2A09 SWAP1 PUSH2 0x341D JUMP JUMPDEST DUP1 ISZERO PUSH2 0x2A56 JUMPI DUP1 PUSH1 0x1F LT PUSH2 0x2A2B JUMPI PUSH2 0x100 DUP1 DUP4 SLOAD DIV MUL DUP4 MSTORE SWAP2 PUSH1 0x20 ADD SWAP2 PUSH2 0x2A56 JUMP JUMPDEST DUP3 ADD SWAP2 SWAP1 PUSH1 0x0 MSTORE PUSH1 0x20 PUSH1 0x0 KECCAK256 SWAP1 JUMPDEST DUP2 SLOAD DUP2 MSTORE SWAP1 PUSH1 0x1 ADD SWAP1 PUSH1 0x20 ADD DUP1 DUP4 GT PUSH2 0x2A39 JUMPI DUP3 SWAP1 SUB PUSH1 0x1F AND DUP3 ADD SWAP2 JUMPDEST POP POP POP POP POP DUP2 MSTORE PUSH1 0x20 ADD PUSH1 0x7 DUP3 ADD DUP1 SLOAD PUSH2 0x2A6F SWAP1 PUSH2 0x341D JUMP JUMPDEST DUP1 PUSH1 0x1F ADD PUSH1 0x20 DUP1 SWAP2 DIV MUL PUSH1 0x20 ADD PUSH1 0x40 MLOAD SWAP1 DUP2 ADD PUSH1 0x40 MSTORE DUP1 SWAP3 SWAP2 SWAP1 DUP2 DUP2 MSTORE PUSH1 0x20 ADD DUP3 DUP1 SLOAD PUSH2 0x2A9B SWAP1 PUSH2 0x341D JUMP JUMPDEST DUP1 ISZERO PUSH2 0x2AE8 JUMPI DUP1 PUSH1 0x1F LT PUSH2 0x2ABD JUMPI PUSH2 0x100 DUP1 DUP4 SLOAD DIV MUL DUP4 MSTORE SWAP2 PUSH1 0x20 ADD SWAP2 PUSH2 0x2AE8 JUMP JUMPDEST DUP3 ADD SWAP2 SWAP1 PUSH1 0x0 MSTORE PUSH1 0x20 PUSH1 0x0 KECCAK256 SWAP1 JUMPDEST DUP2 SLOAD DUP2 MSTORE SWAP1 PUSH1 0x1 ADD SWAP1 PUSH1 0x20 ADD DUP1 DUP4 GT PUSH2 0x2ACB JUMPI DUP3 SWAP1 SUB PUSH1 0x1F AND DUP3 ADD SWAP2 JUMPDEST POP POP POP POP POP DUP2 MSTORE POP POP SWAP1 POP DUP1 PUSH1 0x20 ADD MLOAD DUP2 PUSH1 0x40 ADD MLOAD DUP3 PUSH1 0x60 ADD MLOAD DUP4 PUSH1 0x80 ADD MLOAD DUP5 PUSH1 0xA0 ADD MLOAD DUP6 PUSH1 0xC0 ADD MLOAD DUP7 PUSH1 0xE0 ADD MLOAD SWAP9 POP SWAP9 POP SWAP9 POP SWAP9 POP SWAP9 POP SWAP9 POP SWAP9 POP POP POP SWAP3 SWAP6 SWAP9 SWAP2 SWAP5 SWAP8 POP SWAP3 SWAP6 POP JUMP JUMPDEST DUP1 CALLDATALOAD PUSH1 0x1 PUSH1 0x1 PUSH1 0xA0 SHL SUB DUP2 AND DUP2 EQ PUSH2 0x2B49 JUMPI PUSH1 0x0 DUP1 REVERT JUMPDEST SWAP2 SWAP1 POP JUMP JUMPDEST PUSH1 0x0 PUSH1 0x20 DUP3 DUP5 SUB SLT ISZERO PUSH2 0x2B60 JUMPI PUSH1 0x0 DUP1 REVERT JUMPDEST PUSH2 0x2B69 DUP3 PUSH2 0x2B32 JUMP JUMPDEST SWAP4 SWAP3 POP POP POP JUMP JUMPDEST PUSH1 0x20 DUP1 DUP3 MSTORE DUP3 MLOAD DUP3 DUP3 ADD DUP2 SWAP1 MSTORE PUSH1 0x0 SWAP2 SWAP1 DUP5 DUP3 ADD SWAP1 PUSH1 0x40 DUP6 ADD SWAP1 DUP5 JUMPDEST DUP2 DUP2 LT ISZERO PUSH2 0x2BA8 JUMPI DUP4 MLOAD DUP4 MSTORE SWAP3 DUP5 ADD SWAP3 SWAP2 DUP5 ADD SWAP2 PUSH1 0x1 ADD PUSH2 0x2B8C JUMP JUMPDEST POP SWAP1 SWAP7 SWAP6 POP POP POP POP POP POP JUMP JUMPDEST PUSH1 0x0 DUP2 MLOAD DUP1 DUP5 MSTORE PUSH1 0x0 JUMPDEST DUP2 DUP2 LT ISZERO PUSH2 0x2BDA JUMPI PUSH1 0x20 DUP2 DUP6 ADD DUP2 ADD MLOAD DUP7 DUP4 ADD DUP3 ADD MSTORE ADD PUSH2 0x2BBE JUMP JUMPDEST POP PUSH1 0x0 PUSH1 0x20 DUP3 DUP7 ADD ADD MSTORE PUSH1 0x20 PUSH1 0x1F NOT PUSH1 0x1F DUP4 ADD AND DUP6 ADD ADD SWAP2 POP POP SWAP3 SWAP2 POP POP JUMP JUMPDEST PUSH1 0xE0 DUP2 MSTORE PUSH1 0x0 PUSH2 0x2C0D PUSH1 0xE0 DUP4 ADD DUP11 PUSH2 0x2BB4 JUMP JUMPDEST DUP3 DUP2 SUB PUSH1 0x20 DUP5 ADD MSTORE PUSH2 0x2C1F DUP2 DUP11 PUSH2 0x2BB4 JUMP JUMPDEST SWAP1 POP DUP3 DUP2 SUB PUSH1 0x40 DUP5 ADD MSTORE PUSH2 0x2C33 DUP2 DUP10 PUSH2 0x2BB4 JUMP JUMPDEST SWAP1 POP DUP3 DUP2 SUB PUSH1 0x60 DUP5 ADD MSTORE PUSH2 0x2C47 DUP2 DUP9 PUSH2 0x2BB4 JUMP JUMPDEST SWAP1 POP DUP3 DUP2 SUB PUSH1 0x80 DUP5 ADD MSTORE PUSH2 0x2C5B DUP2 DUP8 PUSH2 0x2BB4 JUMP JUMPDEST SWAP5 ISZERO ISZERO PUSH1 0xA0 DUP5 ADD MSTORE POP POP SWAP1 ISZERO ISZERO PUSH1 0xC0 SWAP1 SWAP2 ADD MSTORE SWAP6 SWAP5 POP POP POP POP POP JUMP JUMPDEST PUSH4 0x4E487B71 PUSH1 0xE0 SHL PUSH1 0x0 MSTORE PUSH1 0x41 PUSH1 0x4 MSTORE PUSH1 0x24 PUSH1 0x0 REVERT JUMPDEST PUSH1 0x0 DUP3 PUSH1 0x1F DUP4 ADD SLT PUSH2 0x2C9E JUMPI PUSH1 0x0 DUP1 REVERT JUMPDEST DUP2 CALLDATALOAD PUSH8 0xFFFFFFFFFFFFFFFF DUP1 DUP3 GT ISZERO PUSH2 0x2CB9 JUMPI PUSH2 0x2CB9 PUSH2 0x2C77 JUMP JUMPDEST PUSH1 0x40 MLOAD PUSH1 0x1F DUP4 ADD PUSH1 0x1F NOT SWAP1 DUP2 AND PUSH1 0x3F ADD AND DUP2 ADD SWAP1 DUP3 DUP3 GT DUP2 DUP4 LT OR ISZERO PUSH2 0x2CE1 JUMPI PUSH2 0x2CE1 PUSH2 0x2C77 JUMP JUMPDEST DUP2 PUSH1 0x40 MSTORE DUP4 DUP2 MSTORE DUP7 PUSH1 0x20 DUP6 DUP9 ADD ADD GT ISZERO PUSH2 0x2CFA JUMPI PUSH1 0x0 DUP1 REVERT JUMPDEST DUP4 PUSH1 0x20 DUP8 ADD PUSH1 0x20 DUP4 ADD CALLDATACOPY PUSH1 0x0 PUSH1 0x20 DUP6 DUP4 ADD ADD MSTORE DUP1 SWAP5 POP POP POP POP POP SWAP3 SWAP2 POP POP JUMP JUMPDEST PUSH1 0x0 DUP1 PUSH1 0x0 PUSH1 0x60 DUP5 DUP7 SUB SLT ISZERO PUSH2 0x2D2F JUMPI PUSH1 0x0 DUP1 REVERT JUMPDEST DUP4 CALLDATALOAD PUSH8 0xFFFFFFFFFFFFFFFF DUP1 DUP3 GT ISZERO PUSH2 0x2D47 JUMPI PUSH1 0x0 DUP1 REVERT JUMPDEST PUSH2 0x2D53 DUP8 DUP4 DUP9 ADD PUSH2 0x2C8D JUMP JUMPDEST SWAP5 POP PUSH1 0x20 DUP7 ADD CALLDATALOAD SWAP2 POP DUP1 DUP3 GT ISZERO PUSH2 0x2D69 JUMPI PUSH1 0x0 DUP1 REVERT JUMPDEST POP PUSH2 0x2D76 DUP7 DUP3 DUP8 ADD PUSH2 0x2C8D JUMP JUMPDEST SWAP3 POP POP PUSH1 0x40 DUP5 ADD CALLDATALOAD SWAP1 POP SWAP3 POP SWAP3 POP SWAP3 JUMP JUMPDEST PUSH1 0x0 DUP1 PUSH1 0x40 DUP4 DUP6 SUB SLT ISZERO PUSH2 0x2D9A JUMPI PUSH1 0x0 DUP1 REVERT JUMPDEST POP POP DUP1 CALLDATALOAD SWAP3 PUSH1 0x20 SWAP1 SWAP2 ADD CALLDATALOAD SWAP2 POP JUMP JUMPDEST DUP9 DUP2 MSTORE PUSH1 0x1 PUSH1 0x1 PUSH1 0xA0 SHL SUB DUP9 DUP2 AND PUSH1 0x20 DUP4 ADD MSTORE DUP8 AND PUSH1 0x40 DUP3 ADD MSTORE PUSH2 0x100 PUSH1 0x60 DUP3 ADD DUP2 SWAP1 MSTORE PUSH1 0x0 SWAP1 PUSH2 0x2DDC DUP4 DUP3 ADD DUP10 PUSH2 0x2BB4 JUMP JUMPDEST SWAP1 POP DUP3 DUP2 SUB PUSH1 0x80 DUP5 ADD MSTORE PUSH2 0x2DF0 DUP2 DUP9 PUSH2 0x2BB4 JUMP JUMPDEST SWAP1 POP DUP6 PUSH1 0xA0 DUP5 ADD MSTORE DUP3 DUP2 SUB PUSH1 0xC0 DUP5 ADD MSTORE PUSH2 0x2E0A DUP2 DUP7 PUSH2 0x2BB4 JUMP JUMPDEST SWAP1 POP DUP3 DUP2 SUB PUSH1 0xE0 DUP5 ADD MSTORE PUSH2 0x2E1E DUP2 DUP6 PUSH2 0x2BB4 JUMP JUMPDEST SWAP12 SWAP11 POP POP POP POP POP POP POP POP POP POP POP JUMP JUMPDEST PUSH1 0x0 PUSH1 0x20 DUP3 DUP5 SUB SLT ISZERO PUSH2 0x2E3F JUMPI PUSH1 0x0 DUP1 REVERT JUMPDEST POP CALLDATALOAD SWAP2 SWAP1 POP JUMP JUMPDEST PUSH1 0x0 PUSH1 0x20 DUP1 DUP4 ADD DUP2 DUP5 MSTORE DUP1 DUP6 MLOAD DUP1 DUP4 MSTORE PUSH1 0x40 SWAP3 POP DUP3 DUP7 ADD SWAP2 POP DUP3 DUP2 PUSH1 0x5 SHL DUP8 ADD ADD DUP5 DUP9 ADD PUSH1 0x0 JUMPDEST DUP4 DUP2 LT ISZERO PUSH2 0x2F30 JUMPI PUSH1 0x3F NOT DUP10 DUP5 SUB ADD DUP6 MSTORE DUP2 MLOAD DUP1 MLOAD DUP5 MSTORE DUP8 DUP2 ADD MLOAD PUSH1 0x1 PUSH1 0x1 PUSH1 0xA0 SHL SUB SWAP1 DUP2 AND DUP10 DUP7 ADD MSTORE DUP8 DUP3 ADD MLOAD AND DUP8 DUP6 ADD MSTORE PUSH1 0x60 DUP1 DUP3 ADD MLOAD PUSH2 0x100 DUP3 DUP8 ADD DUP2 SWAP1 MSTORE SWAP2 SWAP1 PUSH2 0x2EBD DUP4 DUP9 ADD DUP3 PUSH2 0x2BB4 JUMP JUMPDEST SWAP3 POP POP POP PUSH1 0x80 DUP1 DUP4 ADD MLOAD DUP7 DUP4 SUB DUP3 DUP9 ADD MSTORE PUSH2 0x2ED8 DUP4 DUP3 PUSH2 0x2BB4 JUMP JUMPDEST SWAP3 POP POP POP PUSH1 0xA0 DUP1 DUP4 ADD MLOAD DUP2 DUP8 ADD MSTORE POP PUSH1 0xC0 DUP1 DUP4 ADD MLOAD DUP7 DUP4 SUB DUP3 DUP9 ADD MSTORE PUSH2 0x2EFE DUP4 DUP3 PUSH2 0x2BB4 JUMP JUMPDEST SWAP3 POP POP POP PUSH1 0xE0 DUP1 DUP4 ADD MLOAD SWAP3 POP DUP6 DUP3 SUB DUP2 DUP8 ADD MSTORE POP PUSH2 0x2F1C DUP2 DUP4 PUSH2 0x2BB4 JUMP JUMPDEST SWAP7 DUP10 ADD SWAP7 SWAP5 POP POP POP SWAP1 DUP7 ADD SWAP1 PUSH1 0x1 ADD PUSH2 0x2E6D JUMP JUMPDEST POP SWAP1 SWAP9 SWAP8 POP POP POP POP POP POP POP POP JUMP JUMPDEST PUSH1 0xC0 DUP2 MSTORE PUSH1 0x0 PUSH2 0x2F51 PUSH1 0xC0 DUP4 ADD DUP10 PUSH2 0x2BB4 JUMP JUMPDEST DUP3 DUP2 SUB PUSH1 0x20 DUP5 ADD MSTORE PUSH2 0x2F63 DUP2 DUP10 PUSH2 0x2BB4 JUMP JUMPDEST SWAP1 POP DUP3 DUP2 SUB PUSH1 0x40 DUP5 ADD MSTORE PUSH2 0x2F77 DUP2 DUP9 PUSH2 0x2BB4 JUMP JUMPDEST SWAP1 POP DUP3 DUP2 SUB PUSH1 0x60 DUP5 ADD MSTORE PUSH2 0x2F8B DUP2 DUP8 PUSH2 0x2BB4 JUMP JUMPDEST SWAP1 POP DUP3 DUP2 SUB PUSH1 0x80 DUP5 ADD MSTORE PUSH2 0x2F9F DUP2 DUP7 PUSH2 0x2BB4 JUMP JUMPDEST SWAP2 POP POP DUP3 ISZERO ISZERO PUSH1 0xA0 DUP4 ADD MSTORE SWAP8 SWAP7 POP POP POP POP POP POP POP JUMP JUMPDEST PUSH1 0x0 DUP1 PUSH1 0x0 DUP1 PUSH1 0x0 DUP1 PUSH1 0xC0 DUP8 DUP10 SUB SLT ISZERO PUSH2 0x2FCE JUMPI PUSH1 0x0 DUP1 REVERT JUMPDEST PUSH2 0x2FD7 DUP8 PUSH2 0x2B32 JUMP JUMPDEST SWAP6 POP PUSH1 0x20 DUP8 ADD CALLDATALOAD PUSH8 0xFFFFFFFFFFFFFFFF DUP1 DUP3 GT ISZERO PUSH2 0x2FF4 JUMPI PUSH1 0x0 DUP1 REVERT JUMPDEST PUSH2 0x3000 DUP11 DUP4 DUP12 ADD PUSH2 0x2C8D JUMP JUMPDEST SWAP7 POP PUSH1 0x40 DUP10 ADD CALLDATALOAD SWAP2 POP DUP1 DUP3 GT ISZERO PUSH2 0x3016 JUMPI PUSH1 0x0 DUP1 REVERT JUMPDEST PUSH2 0x3022 DUP11 DUP4 DUP12 ADD PUSH2 0x2C8D JUMP JUMPDEST SWAP6 POP PUSH1 0x60 DUP10 ADD CALLDATALOAD SWAP2 POP DUP1 DUP3 GT ISZERO PUSH2 0x3038 JUMPI PUSH1 0x0 DUP1 REVERT JUMPDEST PUSH2 0x3044 DUP11 DUP4 DUP12 ADD PUSH2 0x2C8D JUMP JUMPDEST SWAP5 POP PUSH1 0x80 DUP10 ADD CALLDATALOAD SWAP2 POP DUP1 DUP3 GT ISZERO PUSH2 0x305A JUMPI PUSH1 0x0 DUP1 REVERT JUMPDEST PUSH2 0x3066 DUP11 DUP4 DUP12 ADD PUSH2 0x2C8D JUMP JUMPDEST SWAP4 POP PUSH1 0xA0 DUP10 ADD CALLDATALOAD SWAP2 POP DUP1 DUP3 GT ISZERO PUSH2 0x307C JUMPI PUSH1 0x0 DUP1 REVERT JUMPDEST POP PUSH2 0x3089 DUP10 DUP3 DUP11 ADD PUSH2 0x2C8D JUMP JUMPDEST SWAP2 POP POP SWAP3 SWAP6 POP SWAP3 SWAP6 POP SWAP3 SWAP6 JUMP JUMPDEST PUSH1 0x20 DUP2 MSTORE PUSH1 0x0 PUSH2 0x2B69 PUSH1 0x20 DUP4 ADD DUP5 PUSH2 0x2BB4 JUMP JUMPDEST PUSH1 0x0 DUP1 PUSH1 0x0 DUP1 PUSH1 0x0 PUSH1 0xA0 DUP7 DUP9 SUB SLT ISZERO PUSH2 0x30C1 JUMPI PUSH1 0x0 DUP1 REVERT JUMPDEST DUP6 CALLDATALOAD PUSH8 0xFFFFFFFFFFFFFFFF DUP1 DUP3 GT ISZERO PUSH2 0x30D9 JUMPI PUSH1 0x0 DUP1 REVERT JUMPDEST PUSH2 0x30E5 DUP10 DUP4 DUP11 ADD PUSH2 0x2C8D JUMP JUMPDEST SWAP7 POP PUSH1 0x20 DUP9 ADD CALLDATALOAD SWAP2 POP DUP1 DUP3 GT ISZERO PUSH2 0x30FB JUMPI PUSH1 0x0 DUP1 REVERT JUMPDEST PUSH2 0x3107 DUP10 DUP4 DUP11 ADD PUSH2 0x2C8D JUMP JUMPDEST SWAP6 POP PUSH1 0x40 DUP9 ADD CALLDATALOAD SWAP2 POP DUP1 DUP3 GT ISZERO PUSH2 0x311D JUMPI PUSH1 0x0 DUP1 REVERT JUMPDEST PUSH2 0x3129 DUP10 DUP4 DUP11 ADD PUSH2 0x2C8D JUMP JUMPDEST SWAP5 POP PUSH1 0x60 DUP9 ADD CALLDATALOAD SWAP2 POP DUP1 DUP3 GT ISZERO PUSH2 0x313F JUMPI PUSH1 0x0 DUP1 REVERT JUMPDEST PUSH2 0x314B DUP10 DUP4 DUP11 ADD PUSH2 0x2C8D JUMP JUMPDEST SWAP4 POP PUSH1 0x80 DUP9 ADD CALLDATALOAD SWAP2 POP DUP1 DUP3 GT ISZERO PUSH2 0x3161 JUMPI PUSH1 0x0 DUP1 REVERT JUMPDEST POP PUSH2 0x316E DUP9 DUP3 DUP10 ADD PUSH2 0x2C8D JUMP JUMPDEST SWAP2 POP POP SWAP3 SWAP6 POP SWAP3 SWAP6 SWAP1 SWAP4 POP JUMP JUMPDEST PUSH1 0x0 PUSH2 0x100 DUP11 DUP4 MSTORE DUP1 PUSH1 0x20 DUP5 ADD MSTORE PUSH2 0x3195 DUP2 DUP5 ADD DUP12 PUSH2 0x2BB4 JUMP JUMPDEST SWAP1 POP DUP3 DUP2 SUB PUSH1 0x40 DUP5 ADD MSTORE PUSH2 0x31A9 DUP2 DUP11 PUSH2 0x2BB4 JUMP JUMPDEST PUSH1 0x60 DUP5 ADD SWAP9 SWAP1 SWAP9 MSTORE POP POP PUSH1 0x1 PUSH1 0x1 PUSH1 0xA0 SHL SUB SWAP5 DUP6 AND PUSH1 0x80 DUP3 ADD MSTORE SWAP3 SWAP1 SWAP4 AND PUSH1 0xA0 DUP4 ADD MSTORE PUSH1 0xFF AND PUSH1 0xC0 DUP3 ADD MSTORE SWAP1 ISZERO ISZERO PUSH1 0xE0 SWAP1 SWAP2 ADD MSTORE SWAP4 SWAP3 POP POP POP JUMP JUMPDEST PUSH1 0x0 DUP1 PUSH1 0x0 DUP1 PUSH1 0x0 DUP1 PUSH1 0xC0 DUP8 DUP10 SUB SLT ISZERO PUSH2 0x31FD JUMPI PUSH1 0x0 DUP1 REVERT JUMPDEST DUP7 CALLDATALOAD SWAP6 POP PUSH2 0x320D PUSH1 0x20 DUP9 ADD PUSH2 0x2B32 JUMP JUMPDEST SWAP5 POP PUSH1 0x40 DUP8 ADD CALLDATALOAD PUSH8 0xFFFFFFFFFFFFFFFF DUP1 DUP3 GT ISZERO PUSH2 0x3016 JUMPI PUSH1 0x0 DUP1 REVERT JUMPDEST PUSH1 0x0 DUP1 PUSH1 0x0 DUP1 PUSH1 0x0 PUSH1 0xA0 DUP7 DUP9 SUB SLT ISZERO PUSH2 0x3242 JUMPI PUSH1 0x0 DUP1 REVERT JUMPDEST DUP6 CALLDATALOAD SWAP5 POP PUSH2 0x3252 PUSH1 0x20 DUP8 ADD PUSH2 0x2B32 JUMP JUMPDEST SWAP4 POP PUSH1 0x40 DUP7 ADD CALLDATALOAD PUSH8 0xFFFFFFFFFFFFFFFF DUP1 DUP3 GT ISZERO PUSH2 0x311D JUMPI PUSH1 0x0 DUP1 REVERT JUMPDEST DUP8 DUP2 MSTORE PUSH1 0xE0 PUSH1 0x20 DUP3 ADD MSTORE PUSH1 0x0 PUSH2 0x3288 PUSH1 0xE0 DUP4 ADD DUP10 PUSH2 0x2BB4 JUMP JUMPDEST DUP3 DUP2 SUB PUSH1 0x40 DUP5 ADD MSTORE PUSH2 0x329A DUP2 DUP10 PUSH2 0x2BB4 JUMP JUMPDEST PUSH1 0x60 DUP5 ADD SWAP8 SWAP1 SWAP8 MSTORE POP POP PUSH1 0x1 PUSH1 0x1 PUSH1 0xA0 SHL SUB SWAP4 DUP5 AND PUSH1 0x80 DUP3 ADD MSTORE SWAP2 SWAP1 SWAP3 AND PUSH1 0xA0 DUP3 ADD MSTORE PUSH1 0xFF SWAP1 SWAP2 AND PUSH1 0xC0 SWAP1 SWAP2 ADD MSTORE SWAP4 SWAP3 POP POP POP JUMP JUMPDEST PUSH1 0x0 DUP1 PUSH1 0x40 DUP4 DUP6 SUB SLT ISZERO PUSH2 0x32E2 JUMPI PUSH1 0x0 DUP1 REVERT JUMPDEST PUSH2 0x32EB DUP4 PUSH2 0x2B32 JUMP JUMPDEST SWAP2 POP PUSH1 0x20 DUP4 ADD CALLDATALOAD PUSH8 0xFFFFFFFFFFFFFFFF DUP2 GT ISZERO PUSH2 0x3307 JUMPI PUSH1 0x0 DUP1 REVERT JUMPDEST PUSH2 0x3313 DUP6 DUP3 DUP7 ADD PUSH2 0x2C8D JUMP JUMPDEST SWAP2 POP POP SWAP3 POP SWAP3 SWAP1 POP JUMP JUMPDEST PUSH1 0x20 DUP1 DUP3 MSTORE DUP3 MLOAD DUP3 DUP3 ADD DUP2 SWAP1 MSTORE PUSH1 0x0 SWAP2 SWAP1 DUP5 DUP3 ADD SWAP1 PUSH1 0x40 DUP6 ADD SWAP1 DUP5 JUMPDEST DUP2 DUP2 LT ISZERO PUSH2 0x2BA8 JUMPI DUP4 MLOAD PUSH1 0x1 PUSH1 0x1 PUSH1 0xA0 SHL SUB AND DUP4 MSTORE SWAP3 DUP5 ADD SWAP3 SWAP2 DUP5 ADD SWAP2 PUSH1 0x1 ADD PUSH2 0x3339 JUMP JUMPDEST PUSH1 0x1 PUSH1 0x1 PUSH1 0xA0 SHL SUB DUP9 DUP2 AND DUP3 MSTORE DUP8 AND PUSH1 0x20 DUP3 ADD MSTORE PUSH1 0xE0 PUSH1 0x40 DUP3 ADD DUP2 SWAP1 MSTORE PUSH1 0x0 SWAP1 PUSH2 0x338A SWAP1 DUP4 ADD DUP9 PUSH2 0x2BB4 JUMP JUMPDEST DUP3 DUP2 SUB PUSH1 0x60 DUP5 ADD MSTORE PUSH2 0x339C DUP2 DUP9 PUSH2 0x2BB4 JUMP JUMPDEST SWAP1 POP DUP6 PUSH1 0x80 DUP5 ADD MSTORE DUP3 DUP2 SUB PUSH1 0xA0 DUP5 ADD MSTORE PUSH2 0x33B6 DUP2 DUP7 PUSH2 0x2BB4 JUMP JUMPDEST SWAP1 POP DUP3 DUP2 SUB PUSH1 0xC0 DUP5 ADD MSTORE PUSH2 0x33CA DUP2 DUP6 PUSH2 0x2BB4 JUMP JUMPDEST SWAP11 SWAP10 POP POP POP POP POP POP POP POP POP POP JUMP JUMPDEST PUSH4 0x4E487B71 PUSH1 0xE0 SHL PUSH1 0x0 MSTORE PUSH1 0x32 PUSH1 0x4 MSTORE PUSH1 0x24 PUSH1 0x0 REVERT JUMPDEST PUSH4 0x4E487B71 PUSH1 0xE0 SHL PUSH1 0x0 MSTORE PUSH1 0x11 PUSH1 0x4 MSTORE PUSH1 0x24 PUSH1 0x0 REVERT JUMPDEST PUSH1 0x0 PUSH1 0x1 DUP3 ADD PUSH2 0x3416 JUMPI PUSH2 0x3416 PUSH2 0x33EE JUMP JUMPDEST POP PUSH1 0x1 ADD SWAP1 JUMP JUMPDEST PUSH1 0x1 DUP2 DUP2 SHR SWAP1 DUP3 AND DUP1 PUSH2 0x3431 JUMPI PUSH1 0x7F DUP3 AND SWAP2 POP JUMPDEST PUSH1 0x20 DUP3 LT DUP2 SUB PUSH2 0x1148 JUMPI PUSH4 0x4E487B71 PUSH1 0xE0 SHL PUSH1 0x0 MSTORE PUSH1 0x22 PUSH1 0x4 MSTORE PUSH1 0x24 PUSH1 0x0 REVERT JUMPDEST PUSH1 0x20 DUP1 DUP3 MSTORE PUSH1 0x2C SWAP1 DUP3 ADD MSTORE PUSH32 0x4F6E6C7920617574686F72697A6564206E6F6465732063616E2063616C6C2074 PUSH1 0x40 DUP3 ADD MSTORE PUSH12 0x3434B990333AB731BA34B7B7 PUSH1 0xA1 SHL PUSH1 0x60 DUP3 ADD MSTORE PUSH1 0x80 ADD SWAP1 JUMP JUMPDEST PUSH1 0x1F DUP3 GT ISZERO PUSH2 0x34E7 JUMPI PUSH1 0x0 DUP2 DUP2 MSTORE PUSH1 0x20 DUP2 KECCAK256 PUSH1 0x1F DUP6 ADD PUSH1 0x5 SHR DUP2 ADD PUSH1 0x20 DUP7 LT ISZERO PUSH2 0x34C4 JUMPI POP DUP1 JUMPDEST PUSH1 0x1F DUP6 ADD PUSH1 0x5 SHR DUP3 ADD SWAP2 POP JUMPDEST DUP2 DUP2 LT ISZERO PUSH2 0x34E3 JUMPI DUP3 DUP2 SSTORE PUSH1 0x1 ADD PUSH2 0x34D0 JUMP JUMPDEST POP POP POP JUMPDEST POP POP POP JUMP JUMPDEST DUP2 MLOAD PUSH8 0xFFFFFFFFFFFFFFFF DUP2 GT ISZERO PUSH2 0x3506 JUMPI PUSH2 0x3506 PUSH2 0x2C77 JUMP JUMPDEST PUSH2 0x351A DUP2 PUSH2 0x3514 DUP5 SLOAD PUSH2 0x341D JUMP JUMPDEST DUP5 PUSH2 0x349D JUMP JUMPDEST PUSH1 0x20 DUP1 PUSH1 0x1F DUP4 GT PUSH1 0x1 DUP2 EQ PUSH2 0x354F JUMPI PUSH1 0x0 DUP5 ISZERO PUSH2 0x3537 JUMPI POP DUP6 DUP4 ADD MLOAD JUMPDEST PUSH1 0x0 NOT PUSH1 0x3 DUP7 SWAP1 SHL SHR NOT AND PUSH1 0x1 DUP6 SWAP1 SHL OR DUP6 SSTORE PUSH2 0x34E3 JUMP JUMPDEST PUSH1 0x0 DUP6 DUP2 MSTORE PUSH1 0x20 DUP2 KECCAK256 PUSH1 0x1F NOT DUP7 AND SWAP2 JUMPDEST DUP3 DUP2 LT ISZERO PUSH2 0x357E JUMPI DUP9 DUP7 ADD MLOAD DUP3 SSTORE SWAP5 DUP5 ADD SWAP5 PUSH1 0x1 SWAP1 SWAP2 ADD SWAP1 DUP5 ADD PUSH2 0x355F JUMP JUMPDEST POP DUP6 DUP3 LT ISZERO PUSH2 0x359C JUMPI DUP8 DUP6 ADD MLOAD PUSH1 0x0 NOT PUSH1 0x3 DUP9 SWAP1 SHL PUSH1 0xF8 AND SHR NOT AND DUP2 SSTORE JUMPDEST POP POP POP POP POP PUSH1 0x1 SWAP1 DUP2 SHL ADD SWAP1 SSTORE POP JUMP JUMPDEST PUSH1 0x60 DUP2 MSTORE PUSH1 0x0 PUSH2 0x35BF PUSH1 0x60 DUP4 ADD DUP7 PUSH2 0x2BB4 JUMP JUMPDEST DUP3 DUP2 SUB PUSH1 0x20 DUP5 ADD MSTORE PUSH2 0x35D1 DUP2 DUP7 PUSH2 0x2BB4 JUMP JUMPDEST SWAP2 POP POP DUP3 PUSH1 0x40 DUP4 ADD MSTORE SWAP5 SWAP4 POP POP POP POP JUMP JUMPDEST PUSH1 0x20 DUP1 DUP3 MSTORE PUSH1 0x21 SWAP1 DUP3 ADD MSTORE PUSH32 0x4F6E6C792061646D696E2063616E2063616C6C20746869732066756E6374696F PUSH1 0x40 DUP3 ADD MSTORE PUSH1 0x37 PUSH1 0xF9 SHL PUSH1 0x60 DUP3 ADD MSTORE PUSH1 0x80 ADD SWAP1 JUMP JUMPDEST PUSH1 0x40 DUP2 MSTORE PUSH1 0x0 PUSH2 0x3636 PUSH1 0x40 DUP4 ADD DUP6 PUSH2 0x2BB4 JUMP JUMPDEST DUP3 DUP2 SUB PUSH1 0x20 DUP5 ADD MSTORE PUSH2 0x3648 DUP2 DUP6 PUSH2 0x2BB4 JUMP JUMPDEST SWAP6 SWAP5 POP POP POP POP POP JUMP JUMPDEST PUSH1 0x40 DUP2 MSTORE PUSH1 0x0 PUSH2 0x3676 PUSH1 0x40 DUP4 ADD PUSH1 0x5 DUP2 MSTORE PUSH5 0x20B236B4B7 PUSH1 0xD9 SHL PUSH1 0x20 DUP3 ADD MSTORE PUSH1 0x40 ADD SWAP1 JUMP JUMPDEST DUP3 DUP2 SUB PUSH1 0x20 DUP5 ADD MSTORE PUSH2 0x2B69 DUP2 PUSH1 0x5 DUP2 MSTORE PUSH5 0x20B236B4B7 PUSH1 0xD9 SHL PUSH1 0x20 DUP3 ADD MSTORE PUSH1 0x40 ADD SWAP1 JUMP JUMPDEST PUSH1 0xFF DUP2 DUP2 AND DUP4 DUP3 AND ADD SWAP1 DUP2 GT ISZERO PUSH2 0x36B3 JUMPI PUSH2 0x36B3 PUSH2 0x33EE JUMP JUMPDEST SWAP3 SWAP2 POP POP JUMP JUMPDEST PUSH1 0xA0 DUP2 MSTORE PUSH1 0x0 PUSH2 0x36CC PUSH1 0xA0 DUP4 ADD DUP9 PUSH2 0x2BB4 JUMP JUMPDEST DUP3 DUP2 SUB PUSH1 0x20 DUP5 ADD MSTORE PUSH2 0x36DE DUP2 DUP9 PUSH2 0x2BB4 JUMP JUMPDEST SWAP1 POP DUP6 PUSH1 0x40 DUP5 ADD MSTORE DUP3 DUP2 SUB PUSH1 0x60 DUP5 ADD MSTORE PUSH2 0x36F8 DUP2 DUP7 PUSH2 0x2BB4 JUMP JUMPDEST SWAP1 POP DUP3 DUP2 SUB PUSH1 0x80 DUP5 ADD MSTORE PUSH2 0x370C DUP2 DUP6 PUSH2 0x2BB4 JUMP JUMPDEST SWAP9 SWAP8 POP POP POP POP POP POP POP POP JUMP JUMPDEST PUSH1 0xA0 DUP2 MSTORE PUSH1 0x0 PUSH2 0x372B PUSH1 0xA0 DUP4 ADD DUP8 PUSH2 0x2BB4 JUMP JUMPDEST DUP3 DUP2 SUB PUSH1 0x20 DUP5 ADD MSTORE PUSH2 0x373D DUP2 DUP8 PUSH2 0x2BB4 JUMP JUMPDEST SWAP1 POP DUP5 PUSH1 0x40 DUP5 ADD MSTORE DUP3 DUP2 SUB PUSH1 0x60 DUP5 ADD MSTORE PUSH2 0x3757 DUP2 DUP6 PUSH2 0x2BB4 JUMP JUMPDEST DUP4 DUP2 SUB PUSH1 0x80 SWAP1 SWAP5 ADD SWAP4 SWAP1 SWAP4 MSTORE POP POP PUSH1 0x0 DUP2 MSTORE PUSH1 0x20 ADD SWAP5 SWAP4 POP POP POP POP JUMP JUMPDEST PUSH1 0x40 DUP2 MSTORE PUSH1 0x0 PUSH2 0x3787 PUSH1 0x40 DUP4 ADD DUP5 PUSH2 0x2BB4 JUMP JUMPDEST DUP3 DUP2 SUB PUSH1 0x20 DUP5 ADD MSTORE PUSH1 0xD DUP2 MSTORE PUSH13 0x155B98D85D1959DBDC9A5E9959 PUSH1 0x9A SHL PUSH1 0x20 DUP3 ADD MSTORE PUSH1 0x40 DUP2 ADD SWAP2 POP POP SWAP3 SWAP2 POP POP JUMP INVALID LOG2 PUSH5 0x6970667358 0x22 SLT KECCAK256 MUL ISZERO SHR RETURNDATASIZE 0x21 0xEB 0xEB PUSH5 0x294722A956 SAR SWAP8 DUP16 0x2F 0xD7 0xC7 SWAP11 NUMBER 0xAC 0x4A SWAP5 0xE8 DUP12 0xB2 0xCB SWAP8 STATICCALL 0xD9 0xDC PUSH5 0x736F6C6343 STOP ADDMOD EQ STOP CALLER "},"methodIdentifiers":{"admin()":"f851a440","allProductIds(uint256)":"dde1bbcf","authorizeNode(address,string)":"c1583f80","authorizeNodeWithInfo(address,string,string,string,string,string)":"5a49cfb3","authorizedNodes(address)":"7e53a740","getAllAuthorizedNodes()":"d783778c","getAllProductIds()":"663c01af","getNodeInfo(address)":"582115fb","getNodeName(address)":"5d1216d6","getProduct(uint256)":"b9db15b4","getProductCountByOwner(address)":"1bed4e38","getProductHistory(uint256)":"57a096a1","getProductHistoryCount(uint256)":"78347712","getProductsByOwner(address)":"0fecef48","getTransferRecord(uint256,uint256)":"eaafd39f","isAuthorizedNode(address)":"98c5fcaf","nodeInfo(address)":"23c2e2bc","productCount()":"e0f6ef87","productHistory(uint256,uint256)":"3a7d2376","products(uint256)":"7acc0b20","recordTransfer(uint256,address,string,string,string)":"ae02ef1a","recordTransferWithVerifier(uint256,address,string,string,string,string)":"7b62735a","registerProduct(string,string,uint256)":"3153a15b","removeNode(address)":"b2b99ec9","transferAdmin(address)":"75829def","transferCount()":"e3d33fc9","updateNodeInfo(string,string,string,string,string)":"7a1317ef"}}}}}